{
	"task1/BinarySearch.sol": {
		"BinarySearch": {
			"abi": [
				{
					"inputs": [
						{
							"internalType": "uint256[]",
							"name": "arr",
							"type": "uint256[]"
						},
						{
							"internalType": "uint256",
							"name": "target",
							"type": "uint256"
						}
					],
					"name": "binarySearch",
					"outputs": [
						{
							"internalType": "int256",
							"name": "",
							"type": "int256"
						}
					],
					"stateMutability": "pure",
					"type": "function"
				}
			],
			"devdoc": {
				"kind": "dev",
				"methods": {},
				"version": 1
			},
			"evm": {
				"assembly": "    /* \"task1/BinarySearch.sol\":60:640  contract BinarySearch {... */\n  mstore(0x40, 0x80)\n  callvalue\n  dup1\n  iszero\n  tag_1\n  jumpi\n  revert(0x00, 0x00)\ntag_1:\n  pop\n  dataSize(sub_0)\n  dup1\n  dataOffset(sub_0)\n  0x00\n  codecopy\n  0x00\n  return\nstop\n\nsub_0: assembly {\n        /* \"task1/BinarySearch.sol\":60:640  contract BinarySearch {... */\n      mstore(0x40, 0x80)\n      callvalue\n      dup1\n      iszero\n      tag_1\n      jumpi\n      revert(0x00, 0x00)\n    tag_1:\n      pop\n      jumpi(tag_2, lt(calldatasize, 0x04))\n      shr(0xe0, calldataload(0x00))\n      dup1\n      0xb12601da\n      eq\n      tag_3\n      jumpi\n    tag_2:\n      revert(0x00, 0x00)\n        /* \"task1/BinarySearch.sol\":89:637  function binarySearch(uint[] memory arr, uint target) public pure returns (int) {... */\n    tag_3:\n      tag_4\n      0x04\n      dup1\n      calldatasize\n      sub\n      dup2\n      add\n      swap1\n      tag_5\n      swap2\n      swap1\n      tag_6\n      jump\t// in\n    tag_5:\n      tag_7\n      jump\t// in\n    tag_4:\n      mload(0x40)\n      tag_8\n      swap2\n      swap1\n      tag_9\n      jump\t// in\n    tag_8:\n      mload(0x40)\n      dup1\n      swap2\n      sub\n      swap1\n      return\n    tag_7:\n        /* \"task1/BinarySearch.sol\":164:167  int */\n      0x00\n        /* \"task1/BinarySearch.sol\":180:188  int left */\n      0x00\n        /* \"task1/BinarySearch.sol\":191:192  0 */\n      0x00\n        /* \"task1/BinarySearch.sol\":180:192  int left = 0 */\n      swap1\n      pop\n        /* \"task1/BinarySearch.sol\":203:212  int right */\n      0x00\n        /* \"task1/BinarySearch.sol\":233:234  1 */\n      0x01\n        /* \"task1/BinarySearch.sol\":219:222  arr */\n      dup6\n        /* \"task1/BinarySearch.sol\":219:229  arr.length */\n      mload\n        /* \"task1/BinarySearch.sol\":215:234  int(arr.length) - 1 */\n      tag_11\n      swap2\n      swap1\n      tag_12\n      jump\t// in\n    tag_11:\n        /* \"task1/BinarySearch.sol\":203:234  int right = int(arr.length) - 1 */\n      swap1\n      pop\n        /* \"task1/BinarySearch.sol\":245:589  while (left <= right) {... */\n    tag_13:\n        /* \"task1/BinarySearch.sol\":260:265  right */\n      dup1\n        /* \"task1/BinarySearch.sol\":252:256  left */\n      dup3\n        /* \"task1/BinarySearch.sol\":252:265  left <= right */\n      sgt\n        /* \"task1/BinarySearch.sol\":245:589  while (left <= right) {... */\n      tag_14\n      jumpi\n        /* \"task1/BinarySearch.sol\":282:289  int mid */\n      0x00\n        /* \"task1/BinarySearch.sol\":316:317  2 */\n      0x02\n        /* \"task1/BinarySearch.sol\":308:312  left */\n      dup4\n        /* \"task1/BinarySearch.sol\":300:305  right */\n      dup4\n        /* \"task1/BinarySearch.sol\":300:312  right - left */\n      tag_15\n      swap2\n      swap1\n      tag_12\n      jump\t// in\n    tag_15:\n        /* \"task1/BinarySearch.sol\":299:317  (right - left) / 2 */\n      tag_16\n      swap2\n      swap1\n      tag_17\n      jump\t// in\n    tag_16:\n        /* \"task1/BinarySearch.sol\":292:296  left */\n      dup4\n        /* \"task1/BinarySearch.sol\":292:317  left + (right - left) / 2 */\n      tag_18\n      swap2\n      swap1\n      tag_19\n      jump\t// in\n    tag_18:\n        /* \"task1/BinarySearch.sol\":282:317  int mid = left + (right - left) / 2 */\n      swap1\n      pop\n        /* \"task1/BinarySearch.sol\":354:360  target */\n      dup5\n        /* \"task1/BinarySearch.sol\":336:339  arr */\n      dup7\n        /* \"task1/BinarySearch.sol\":345:348  mid */\n      dup3\n        /* \"task1/BinarySearch.sol\":336:350  arr[uint(mid)] */\n      dup2\n      mload\n      dup2\n      lt\n      tag_20\n      jumpi\n      tag_21\n      tag_22\n      jump\t// in\n    tag_21:\n    tag_20:\n      0x20\n      mul\n      0x20\n      add\n      add\n      mload\n        /* \"task1/BinarySearch.sol\":336:360  arr[uint(mid)] == target */\n      sub\n        /* \"task1/BinarySearch.sol\":332:578  if (arr[uint(mid)] == target) {... */\n      tag_23\n      jumpi\n        /* \"task1/BinarySearch.sol\":388:391  mid */\n      dup1\n        /* \"task1/BinarySearch.sol\":381:391  return mid */\n      swap4\n      pop\n      pop\n      pop\n      pop\n      jump(tag_10)\n        /* \"task1/BinarySearch.sol\":332:578  if (arr[uint(mid)] == target) {... */\n    tag_23:\n        /* \"task1/BinarySearch.sol\":465:471  target */\n      dup5\n        /* \"task1/BinarySearch.sol\":448:451  arr */\n      dup7\n        /* \"task1/BinarySearch.sol\":457:460  mid */\n      dup3\n        /* \"task1/BinarySearch.sol\":448:462  arr[uint(mid)] */\n      dup2\n      mload\n      dup2\n      lt\n      tag_25\n      jumpi\n      tag_26\n      tag_22\n      jump\t// in\n    tag_26:\n    tag_25:\n      0x20\n      mul\n      0x20\n      add\n      add\n      mload\n        /* \"task1/BinarySearch.sol\":448:471  arr[uint(mid)] < target */\n      lt\n        /* \"task1/BinarySearch.sol\":444:578  if (arr[uint(mid)] < target) {... */\n      iszero\n      tag_27\n      jumpi\n        /* \"task1/BinarySearch.sol\":505:506  1 */\n      0x01\n        /* \"task1/BinarySearch.sol\":499:502  mid */\n      dup2\n        /* \"task1/BinarySearch.sol\":499:506  mid + 1 */\n      tag_28\n      swap2\n      swap1\n      tag_19\n      jump\t// in\n    tag_28:\n        /* \"task1/BinarySearch.sol\":492:506  left = mid + 1 */\n      swap3\n      pop\n        /* \"task1/BinarySearch.sol\":444:578  if (arr[uint(mid)] < target) {... */\n      jump(tag_29)\n    tag_27:\n        /* \"task1/BinarySearch.sol\":561:562  1 */\n      0x01\n        /* \"task1/BinarySearch.sol\":555:558  mid */\n      dup2\n        /* \"task1/BinarySearch.sol\":555:562  mid - 1 */\n      tag_30\n      swap2\n      swap1\n      tag_12\n      jump\t// in\n    tag_30:\n        /* \"task1/BinarySearch.sol\":547:562  right = mid - 1 */\n      swap2\n      pop\n        /* \"task1/BinarySearch.sol\":444:578  if (arr[uint(mid)] < target) {... */\n    tag_29:\n        /* \"task1/BinarySearch.sol\":267:589  {... */\n      pop\n        /* \"task1/BinarySearch.sol\":245:589  while (left <= right) {... */\n      jump(tag_13)\n    tag_14:\n        /* \"task1/BinarySearch.sol\":606:608  -1 */\n      0xffffffffffffffffffffffffffffffffffffffffffffffffffffffffffffffff\n        /* \"task1/BinarySearch.sol\":599:608  return -1 */\n      swap3\n      pop\n      pop\n      pop\n        /* \"task1/BinarySearch.sol\":89:637  function binarySearch(uint[] memory arr, uint target) public pure returns (int) {... */\n    tag_10:\n      swap3\n      swap2\n      pop\n      pop\n      jump\t// out\n        /* \"#utility.yul\":7:82   */\n    tag_31:\n        /* \"#utility.yul\":40:46   */\n      0x00\n        /* \"#utility.yul\":73:75   */\n      0x40\n        /* \"#utility.yul\":67:76   */\n      mload\n        /* \"#utility.yul\":57:76   */\n      swap1\n      pop\n        /* \"#utility.yul\":7:82   */\n      swap1\n      jump\t// out\n        /* \"#utility.yul\":88:205   */\n    tag_32:\n        /* \"#utility.yul\":197:198   */\n      0x00\n        /* \"#utility.yul\":194:195   */\n      0x00\n        /* \"#utility.yul\":187:199   */\n      revert\n        /* \"#utility.yul\":211:328   */\n    tag_33:\n        /* \"#utility.yul\":320:321   */\n      0x00\n        /* \"#utility.yul\":317:318   */\n      0x00\n        /* \"#utility.yul\":310:322   */\n      revert\n        /* \"#utility.yul\":334:451   */\n    tag_34:\n        /* \"#utility.yul\":443:444   */\n      0x00\n        /* \"#utility.yul\":440:441   */\n      0x00\n        /* \"#utility.yul\":433:445   */\n      revert\n        /* \"#utility.yul\":457:559   */\n    tag_35:\n        /* \"#utility.yul\":498:504   */\n      0x00\n        /* \"#utility.yul\":549:551   */\n      0x1f\n        /* \"#utility.yul\":545:552   */\n      not\n        /* \"#utility.yul\":540:542   */\n      0x1f\n        /* \"#utility.yul\":533:538   */\n      dup4\n        /* \"#utility.yul\":529:543   */\n      add\n        /* \"#utility.yul\":525:553   */\n      and\n        /* \"#utility.yul\":515:553   */\n      swap1\n      pop\n        /* \"#utility.yul\":457:559   */\n      swap2\n      swap1\n      pop\n      jump\t// out\n        /* \"#utility.yul\":565:745   */\n    tag_36:\n        /* \"#utility.yul\":613:690   */\n      0x4e487b7100000000000000000000000000000000000000000000000000000000\n        /* \"#utility.yul\":610:611   */\n      0x00\n        /* \"#utility.yul\":603:691   */\n      mstore\n        /* \"#utility.yul\":710:714   */\n      0x41\n        /* \"#utility.yul\":707:708   */\n      0x04\n        /* \"#utility.yul\":700:715   */\n      mstore\n        /* \"#utility.yul\":734:738   */\n      0x24\n        /* \"#utility.yul\":731:732   */\n      0x00\n        /* \"#utility.yul\":724:739   */\n      revert\n        /* \"#utility.yul\":751:1032   */\n    tag_37:\n        /* \"#utility.yul\":834:861   */\n      tag_58\n        /* \"#utility.yul\":856:860   */\n      dup3\n        /* \"#utility.yul\":834:861   */\n      tag_35\n      jump\t// in\n    tag_58:\n        /* \"#utility.yul\":826:832   */\n      dup2\n        /* \"#utility.yul\":822:862   */\n      add\n        /* \"#utility.yul\":964:970   */\n      dup2\n        /* \"#utility.yul\":952:962   */\n      dup2\n        /* \"#utility.yul\":949:971   */\n      lt\n        /* \"#utility.yul\":928:946   */\n      0xffffffffffffffff\n        /* \"#utility.yul\":916:926   */\n      dup3\n        /* \"#utility.yul\":913:947   */\n      gt\n        /* \"#utility.yul\":910:972   */\n      or\n        /* \"#utility.yul\":907:995   */\n      iszero\n      tag_59\n      jumpi\n        /* \"#utility.yul\":975:993   */\n      tag_60\n      tag_36\n      jump\t// in\n    tag_60:\n        /* \"#utility.yul\":907:995   */\n    tag_59:\n        /* \"#utility.yul\":1015:1025   */\n      dup1\n        /* \"#utility.yul\":1011:1013   */\n      0x40\n        /* \"#utility.yul\":1004:1026   */\n      mstore\n        /* \"#utility.yul\":794:1032   */\n      pop\n        /* \"#utility.yul\":751:1032   */\n      pop\n      pop\n      jump\t// out\n        /* \"#utility.yul\":1038:1167   */\n    tag_38:\n        /* \"#utility.yul\":1072:1078   */\n      0x00\n        /* \"#utility.yul\":1099:1119   */\n      tag_62\n      tag_31\n      jump\t// in\n    tag_62:\n        /* \"#utility.yul\":1089:1119   */\n      swap1\n      pop\n        /* \"#utility.yul\":1128:1161   */\n      tag_63\n        /* \"#utility.yul\":1156:1160   */\n      dup3\n        /* \"#utility.yul\":1148:1154   */\n      dup3\n        /* \"#utility.yul\":1128:1161   */\n      tag_37\n      jump\t// in\n    tag_63:\n        /* \"#utility.yul\":1038:1167   */\n      swap2\n      swap1\n      pop\n      jump\t// out\n        /* \"#utility.yul\":1173:1484   */\n    tag_39:\n        /* \"#utility.yul\":1250:1254   */\n      0x00\n        /* \"#utility.yul\":1340:1358   */\n      0xffffffffffffffff\n        /* \"#utility.yul\":1332:1338   */\n      dup3\n        /* \"#utility.yul\":1329:1359   */\n      gt\n        /* \"#utility.yul\":1326:1382   */\n      iszero\n      tag_65\n      jumpi\n        /* \"#utility.yul\":1362:1380   */\n      tag_66\n      tag_36\n      jump\t// in\n    tag_66:\n        /* \"#utility.yul\":1326:1382   */\n    tag_65:\n        /* \"#utility.yul\":1412:1416   */\n      0x20\n        /* \"#utility.yul\":1404:1410   */\n      dup3\n        /* \"#utility.yul\":1400:1417   */\n      mul\n        /* \"#utility.yul\":1392:1417   */\n      swap1\n      pop\n        /* \"#utility.yul\":1472:1476   */\n      0x20\n        /* \"#utility.yul\":1466:1470   */\n      dup2\n        /* \"#utility.yul\":1462:1477   */\n      add\n        /* \"#utility.yul\":1454:1477   */\n      swap1\n      pop\n        /* \"#utility.yul\":1173:1484   */\n      swap2\n      swap1\n      pop\n      jump\t// out\n        /* \"#utility.yul\":1490:1607   */\n    tag_40:\n        /* \"#utility.yul\":1599:1600   */\n      0x00\n        /* \"#utility.yul\":1596:1597   */\n      0x00\n        /* \"#utility.yul\":1589:1601   */\n      revert\n        /* \"#utility.yul\":1613:1690   */\n    tag_41:\n        /* \"#utility.yul\":1650:1657   */\n      0x00\n        /* \"#utility.yul\":1679:1684   */\n      dup2\n        /* \"#utility.yul\":1668:1684   */\n      swap1\n      pop\n        /* \"#utility.yul\":1613:1690   */\n      swap2\n      swap1\n      pop\n      jump\t// out\n        /* \"#utility.yul\":1696:1818   */\n    tag_42:\n        /* \"#utility.yul\":1769:1793   */\n      tag_70\n        /* \"#utility.yul\":1787:1792   */\n      dup2\n        /* \"#utility.yul\":1769:1793   */\n      tag_41\n      jump\t// in\n    tag_70:\n        /* \"#utility.yul\":1762:1767   */\n      dup2\n        /* \"#utility.yul\":1759:1794   */\n      eq\n        /* \"#utility.yul\":1749:1812   */\n      tag_71\n      jumpi\n        /* \"#utility.yul\":1808:1809   */\n      0x00\n        /* \"#utility.yul\":1805:1806   */\n      0x00\n        /* \"#utility.yul\":1798:1810   */\n      revert\n        /* \"#utility.yul\":1749:1812   */\n    tag_71:\n        /* \"#utility.yul\":1696:1818   */\n      pop\n      jump\t// out\n        /* \"#utility.yul\":1824:1963   */\n    tag_43:\n        /* \"#utility.yul\":1870:1875   */\n      0x00\n        /* \"#utility.yul\":1908:1914   */\n      dup2\n        /* \"#utility.yul\":1895:1915   */\n      calldataload\n        /* \"#utility.yul\":1886:1915   */\n      swap1\n      pop\n        /* \"#utility.yul\":1924:1957   */\n      tag_73\n        /* \"#utility.yul\":1951:1956   */\n      dup2\n        /* \"#utility.yul\":1924:1957   */\n      tag_42\n      jump\t// in\n    tag_73:\n        /* \"#utility.yul\":1824:1963   */\n      swap3\n      swap2\n      pop\n      pop\n      jump\t// out\n        /* \"#utility.yul\":1986:2696   */\n    tag_44:\n        /* \"#utility.yul\":2082:2087   */\n      0x00\n        /* \"#utility.yul\":2107:2188   */\n      tag_75\n        /* \"#utility.yul\":2123:2187   */\n      tag_76\n        /* \"#utility.yul\":2180:2186   */\n      dup5\n        /* \"#utility.yul\":2123:2187   */\n      tag_39\n      jump\t// in\n    tag_76:\n        /* \"#utility.yul\":2107:2188   */\n      tag_38\n      jump\t// in\n    tag_75:\n        /* \"#utility.yul\":2098:2188   */\n      swap1\n      pop\n        /* \"#utility.yul\":2208:2213   */\n      dup1\n        /* \"#utility.yul\":2237:2243   */\n      dup4\n        /* \"#utility.yul\":2230:2235   */\n      dup3\n        /* \"#utility.yul\":2223:2244   */\n      mstore\n        /* \"#utility.yul\":2271:2275   */\n      0x20\n        /* \"#utility.yul\":2264:2269   */\n      dup3\n        /* \"#utility.yul\":2260:2276   */\n      add\n        /* \"#utility.yul\":2253:2276   */\n      swap1\n      pop\n        /* \"#utility.yul\":2324:2328   */\n      0x20\n        /* \"#utility.yul\":2316:2322   */\n      dup5\n        /* \"#utility.yul\":2312:2329   */\n      mul\n        /* \"#utility.yul\":2304:2310   */\n      dup4\n        /* \"#utility.yul\":2300:2330   */\n      add\n        /* \"#utility.yul\":2353:2356   */\n      dup6\n        /* \"#utility.yul\":2345:2351   */\n      dup2\n        /* \"#utility.yul\":2342:2357   */\n      gt\n        /* \"#utility.yul\":2339:2461   */\n      iszero\n      tag_77\n      jumpi\n        /* \"#utility.yul\":2372:2451   */\n      tag_78\n      tag_40\n      jump\t// in\n    tag_78:\n        /* \"#utility.yul\":2339:2461   */\n    tag_77:\n        /* \"#utility.yul\":2487:2493   */\n      dup4\n        /* \"#utility.yul\":2470:2690   */\n    tag_79:\n        /* \"#utility.yul\":2504:2510   */\n      dup2\n        /* \"#utility.yul\":2499:2502   */\n      dup2\n        /* \"#utility.yul\":2496:2511   */\n      lt\n        /* \"#utility.yul\":2470:2690   */\n      iszero\n      tag_81\n      jumpi\n        /* \"#utility.yul\":2579:2582   */\n      dup1\n        /* \"#utility.yul\":2608:2645   */\n      tag_82\n        /* \"#utility.yul\":2641:2644   */\n      dup9\n        /* \"#utility.yul\":2629:2639   */\n      dup3\n        /* \"#utility.yul\":2608:2645   */\n      tag_43\n      jump\t// in\n    tag_82:\n        /* \"#utility.yul\":2603:2606   */\n      dup5\n        /* \"#utility.yul\":2596:2646   */\n      mstore\n        /* \"#utility.yul\":2675:2679   */\n      0x20\n        /* \"#utility.yul\":2670:2673   */\n      dup5\n        /* \"#utility.yul\":2666:2680   */\n      add\n        /* \"#utility.yul\":2659:2680   */\n      swap4\n      pop\n        /* \"#utility.yul\":2546:2690   */\n      pop\n        /* \"#utility.yul\":2530:2534   */\n      0x20\n        /* \"#utility.yul\":2525:2528   */\n      dup2\n        /* \"#utility.yul\":2521:2535   */\n      add\n        /* \"#utility.yul\":2514:2535   */\n      swap1\n      pop\n        /* \"#utility.yul\":2470:2690   */\n      jump(tag_79)\n    tag_81:\n        /* \"#utility.yul\":2474:2495   */\n      pop\n        /* \"#utility.yul\":2088:2696   */\n      pop\n      pop\n        /* \"#utility.yul\":1986:2696   */\n      swap4\n      swap3\n      pop\n      pop\n      pop\n      jump\t// out\n        /* \"#utility.yul\":2719:3089   */\n    tag_45:\n        /* \"#utility.yul\":2790:2795   */\n      0x00\n        /* \"#utility.yul\":2839:2842   */\n      dup3\n        /* \"#utility.yul\":2832:2836   */\n      0x1f\n        /* \"#utility.yul\":2824:2830   */\n      dup4\n        /* \"#utility.yul\":2820:2837   */\n      add\n        /* \"#utility.yul\":2816:2843   */\n      slt\n        /* \"#utility.yul\":2806:2928   */\n      tag_84\n      jumpi\n        /* \"#utility.yul\":2847:2926   */\n      tag_85\n      tag_34\n      jump\t// in\n    tag_85:\n        /* \"#utility.yul\":2806:2928   */\n    tag_84:\n        /* \"#utility.yul\":2964:2970   */\n      dup2\n        /* \"#utility.yul\":2951:2971   */\n      calldataload\n        /* \"#utility.yul\":2989:3083   */\n      tag_86\n        /* \"#utility.yul\":3079:3082   */\n      dup5\n        /* \"#utility.yul\":3071:3077   */\n      dup3\n        /* \"#utility.yul\":3064:3068   */\n      0x20\n        /* \"#utility.yul\":3056:3062   */\n      dup7\n        /* \"#utility.yul\":3052:3069   */\n      add\n        /* \"#utility.yul\":2989:3083   */\n      tag_44\n      jump\t// in\n    tag_86:\n        /* \"#utility.yul\":2980:3083   */\n      swap2\n      pop\n        /* \"#utility.yul\":2796:3089   */\n      pop\n        /* \"#utility.yul\":2719:3089   */\n      swap3\n      swap2\n      pop\n      pop\n      jump\t// out\n        /* \"#utility.yul\":3095:3779   */\n    tag_6:\n        /* \"#utility.yul\":3188:3194   */\n      0x00\n        /* \"#utility.yul\":3196:3202   */\n      0x00\n        /* \"#utility.yul\":3245:3247   */\n      0x40\n        /* \"#utility.yul\":3233:3242   */\n      dup4\n        /* \"#utility.yul\":3224:3231   */\n      dup6\n        /* \"#utility.yul\":3220:3243   */\n      sub\n        /* \"#utility.yul\":3216:3248   */\n      slt\n        /* \"#utility.yul\":3213:3332   */\n      iszero\n      tag_88\n      jumpi\n        /* \"#utility.yul\":3251:3330   */\n      tag_89\n      tag_32\n      jump\t// in\n    tag_89:\n        /* \"#utility.yul\":3213:3332   */\n    tag_88:\n        /* \"#utility.yul\":3399:3400   */\n      0x00\n        /* \"#utility.yul\":3388:3397   */\n      dup4\n        /* \"#utility.yul\":3384:3401   */\n      add\n        /* \"#utility.yul\":3371:3402   */\n      calldataload\n        /* \"#utility.yul\":3429:3447   */\n      0xffffffffffffffff\n        /* \"#utility.yul\":3421:3427   */\n      dup2\n        /* \"#utility.yul\":3418:3448   */\n      gt\n        /* \"#utility.yul\":3415:3532   */\n      iszero\n      tag_90\n      jumpi\n        /* \"#utility.yul\":3451:3530   */\n      tag_91\n      tag_33\n      jump\t// in\n    tag_91:\n        /* \"#utility.yul\":3415:3532   */\n    tag_90:\n        /* \"#utility.yul\":3556:3634   */\n      tag_92\n        /* \"#utility.yul\":3626:3633   */\n      dup6\n        /* \"#utility.yul\":3617:3623   */\n      dup3\n        /* \"#utility.yul\":3606:3615   */\n      dup7\n        /* \"#utility.yul\":3602:3624   */\n      add\n        /* \"#utility.yul\":3556:3634   */\n      tag_45\n      jump\t// in\n    tag_92:\n        /* \"#utility.yul\":3546:3634   */\n      swap3\n      pop\n        /* \"#utility.yul\":3342:3644   */\n      pop\n        /* \"#utility.yul\":3683:3685   */\n      0x20\n        /* \"#utility.yul\":3709:3762   */\n      tag_93\n        /* \"#utility.yul\":3754:3761   */\n      dup6\n        /* \"#utility.yul\":3745:3751   */\n      dup3\n        /* \"#utility.yul\":3734:3743   */\n      dup7\n        /* \"#utility.yul\":3730:3752   */\n      add\n        /* \"#utility.yul\":3709:3762   */\n      tag_43\n      jump\t// in\n    tag_93:\n        /* \"#utility.yul\":3699:3762   */\n      swap2\n      pop\n        /* \"#utility.yul\":3654:3772   */\n      pop\n        /* \"#utility.yul\":3095:3779   */\n      swap3\n      pop\n      swap3\n      swap1\n      pop\n      jump\t// out\n        /* \"#utility.yul\":3785:3861   */\n    tag_46:\n        /* \"#utility.yul\":3821:3828   */\n      0x00\n        /* \"#utility.yul\":3850:3855   */\n      dup2\n        /* \"#utility.yul\":3839:3855   */\n      swap1\n      pop\n        /* \"#utility.yul\":3785:3861   */\n      swap2\n      swap1\n      pop\n      jump\t// out\n        /* \"#utility.yul\":3867:3982   */\n    tag_47:\n        /* \"#utility.yul\":3952:3975   */\n      tag_96\n        /* \"#utility.yul\":3969:3974   */\n      dup2\n        /* \"#utility.yul\":3952:3975   */\n      tag_46\n      jump\t// in\n    tag_96:\n        /* \"#utility.yul\":3947:3950   */\n      dup3\n        /* \"#utility.yul\":3940:3976   */\n      mstore\n        /* \"#utility.yul\":3867:3982   */\n      pop\n      pop\n      jump\t// out\n        /* \"#utility.yul\":3988:4206   */\n    tag_9:\n        /* \"#utility.yul\":4079:4083   */\n      0x00\n        /* \"#utility.yul\":4117:4119   */\n      0x20\n        /* \"#utility.yul\":4106:4115   */\n      dup3\n        /* \"#utility.yul\":4102:4120   */\n      add\n        /* \"#utility.yul\":4094:4120   */\n      swap1\n      pop\n        /* \"#utility.yul\":4130:4199   */\n      tag_98\n        /* \"#utility.yul\":4196:4197   */\n      0x00\n        /* \"#utility.yul\":4185:4194   */\n      dup4\n        /* \"#utility.yul\":4181:4198   */\n      add\n        /* \"#utility.yul\":4172:4178   */\n      dup5\n        /* \"#utility.yul\":4130:4199   */\n      tag_47\n      jump\t// in\n    tag_98:\n        /* \"#utility.yul\":3988:4206   */\n      swap3\n      swap2\n      pop\n      pop\n      jump\t// out\n        /* \"#utility.yul\":4212:4392   */\n    tag_48:\n        /* \"#utility.yul\":4260:4337   */\n      0x4e487b7100000000000000000000000000000000000000000000000000000000\n        /* \"#utility.yul\":4257:4258   */\n      0x00\n        /* \"#utility.yul\":4250:4338   */\n      mstore\n        /* \"#utility.yul\":4357:4361   */\n      0x11\n        /* \"#utility.yul\":4354:4355   */\n      0x04\n        /* \"#utility.yul\":4347:4362   */\n      mstore\n        /* \"#utility.yul\":4381:4385   */\n      0x24\n        /* \"#utility.yul\":4378:4379   */\n      0x00\n        /* \"#utility.yul\":4371:4386   */\n      revert\n        /* \"#utility.yul\":4398:4770   */\n    tag_12:\n        /* \"#utility.yul\":4437:4441   */\n      0x00\n        /* \"#utility.yul\":4457:4476   */\n      tag_101\n        /* \"#utility.yul\":4474:4475   */\n      dup3\n        /* \"#utility.yul\":4457:4476   */\n      tag_46\n      jump\t// in\n    tag_101:\n        /* \"#utility.yul\":4452:4476   */\n      swap2\n      pop\n        /* \"#utility.yul\":4490:4509   */\n      tag_102\n        /* \"#utility.yul\":4507:4508   */\n      dup4\n        /* \"#utility.yul\":4490:4509   */\n      tag_46\n      jump\t// in\n    tag_102:\n        /* \"#utility.yul\":4485:4509   */\n      swap3\n      pop\n        /* \"#utility.yul\":4533:4534   */\n      dup3\n        /* \"#utility.yul\":4530:4531   */\n      dup3\n        /* \"#utility.yul\":4526:4535   */\n      sub\n        /* \"#utility.yul\":4518:4535   */\n      swap1\n      pop\n        /* \"#utility.yul\":4727:4728   */\n      dup2\n        /* \"#utility.yul\":4721:4725   */\n      dup2\n        /* \"#utility.yul\":4717:4729   */\n      slt\n        /* \"#utility.yul\":4713:4714   */\n      0x00\n        /* \"#utility.yul\":4710:4711   */\n      dup5\n        /* \"#utility.yul\":4706:4715   */\n      slt\n        /* \"#utility.yul\":4702:4730   */\n      and\n        /* \"#utility.yul\":4685:4686   */\n      dup3\n        /* \"#utility.yul\":4679:4683   */\n      dup3\n        /* \"#utility.yul\":4675:4687   */\n      sgt\n        /* \"#utility.yul\":4670:4671   */\n      0x00\n        /* \"#utility.yul\":4667:4668   */\n      dup6\n        /* \"#utility.yul\":4663:4672   */\n      slt\n        /* \"#utility.yul\":4656:4673   */\n      iszero\n        /* \"#utility.yul\":4652:4688   */\n      and\n        /* \"#utility.yul\":4636:4740   */\n      or\n        /* \"#utility.yul\":4633:4763   */\n      iszero\n      tag_103\n      jumpi\n        /* \"#utility.yul\":4743:4761   */\n      tag_104\n      tag_48\n      jump\t// in\n    tag_104:\n        /* \"#utility.yul\":4633:4763   */\n    tag_103:\n        /* \"#utility.yul\":4398:4770   */\n      swap3\n      swap2\n      pop\n      pop\n      jump\t// out\n        /* \"#utility.yul\":4776:4956   */\n    tag_49:\n        /* \"#utility.yul\":4824:4901   */\n      0x4e487b7100000000000000000000000000000000000000000000000000000000\n        /* \"#utility.yul\":4821:4822   */\n      0x00\n        /* \"#utility.yul\":4814:4902   */\n      mstore\n        /* \"#utility.yul\":4921:4925   */\n      0x12\n        /* \"#utility.yul\":4918:4919   */\n      0x04\n        /* \"#utility.yul\":4911:4926   */\n      mstore\n        /* \"#utility.yul\":4945:4949   */\n      0x24\n        /* \"#utility.yul\":4942:4943   */\n      0x00\n        /* \"#utility.yul\":4935:4950   */\n      revert\n        /* \"#utility.yul\":4962:5347   */\n    tag_17:\n        /* \"#utility.yul\":5001:5002   */\n      0x00\n        /* \"#utility.yul\":5018:5037   */\n      tag_107\n        /* \"#utility.yul\":5035:5036   */\n      dup3\n        /* \"#utility.yul\":5018:5037   */\n      tag_46\n      jump\t// in\n    tag_107:\n        /* \"#utility.yul\":5013:5037   */\n      swap2\n      pop\n        /* \"#utility.yul\":5051:5070   */\n      tag_108\n        /* \"#utility.yul\":5068:5069   */\n      dup4\n        /* \"#utility.yul\":5051:5070   */\n      tag_46\n      jump\t// in\n    tag_108:\n        /* \"#utility.yul\":5046:5070   */\n      swap3\n      pop\n        /* \"#utility.yul\":5089:5090   */\n      dup3\n        /* \"#utility.yul\":5079:5114   */\n      tag_109\n      jumpi\n        /* \"#utility.yul\":5094:5112   */\n      tag_110\n      tag_49\n      jump\t// in\n    tag_110:\n        /* \"#utility.yul\":5079:5114   */\n    tag_109:\n        /* \"#utility.yul\":5280:5281   */\n      0x01\n        /* \"#utility.yul\":5277:5278   */\n      0x00\n        /* \"#utility.yul\":5273:5282   */\n      sub\n        /* \"#utility.yul\":5270:5271   */\n      dup4\n        /* \"#utility.yul\":5267:5283   */\n      eq\n        /* \"#utility.yul\":5186:5252   */\n      0x8000000000000000000000000000000000000000000000000000000000000000\n        /* \"#utility.yul\":5183:5184   */\n      dup4\n        /* \"#utility.yul\":5180:5253   */\n      eq\n        /* \"#utility.yul\":5163:5293   */\n      and\n        /* \"#utility.yul\":5160:5316   */\n      iszero\n      tag_111\n      jumpi\n        /* \"#utility.yul\":5296:5314   */\n      tag_112\n      tag_48\n      jump\t// in\n    tag_112:\n        /* \"#utility.yul\":5160:5316   */\n    tag_111:\n        /* \"#utility.yul\":5339:5340   */\n      dup3\n        /* \"#utility.yul\":5336:5337   */\n      dup3\n        /* \"#utility.yul\":5331:5341   */\n      sdiv\n        /* \"#utility.yul\":5326:5341   */\n      swap1\n      pop\n        /* \"#utility.yul\":4962:5347   */\n      swap3\n      swap2\n      pop\n      pop\n      jump\t// out\n        /* \"#utility.yul\":5353:5728   */\n    tag_19:\n        /* \"#utility.yul\":5392:5395   */\n      0x00\n        /* \"#utility.yul\":5411:5430   */\n      tag_114\n        /* \"#utility.yul\":5428:5429   */\n      dup3\n        /* \"#utility.yul\":5411:5430   */\n      tag_46\n      jump\t// in\n    tag_114:\n        /* \"#utility.yul\":5406:5430   */\n      swap2\n      pop\n        /* \"#utility.yul\":5444:5463   */\n      tag_115\n        /* \"#utility.yul\":5461:5462   */\n      dup4\n        /* \"#utility.yul\":5444:5463   */\n      tag_46\n      jump\t// in\n    tag_115:\n        /* \"#utility.yul\":5439:5463   */\n      swap3\n      pop\n        /* \"#utility.yul\":5486:5487   */\n      dup3\n        /* \"#utility.yul\":5483:5484   */\n      dup3\n        /* \"#utility.yul\":5479:5488   */\n      add\n        /* \"#utility.yul\":5472:5488   */\n      swap1\n      pop\n        /* \"#utility.yul\":5684:5685   */\n      dup3\n        /* \"#utility.yul\":5679:5682   */\n      dup2\n        /* \"#utility.yul\":5675:5686   */\n      slt\n        /* \"#utility.yul\":5668:5687   */\n      iszero\n        /* \"#utility.yul\":5664:5665   */\n      0x00\n        /* \"#utility.yul\":5661:5662   */\n      dup4\n        /* \"#utility.yul\":5657:5666   */\n      slt\n        /* \"#utility.yul\":5653:5688   */\n      and\n        /* \"#utility.yul\":5636:5637   */\n      dup4\n        /* \"#utility.yul\":5631:5634   */\n      dup3\n        /* \"#utility.yul\":5627:5638   */\n      slt\n        /* \"#utility.yul\":5622:5623   */\n      0x00\n        /* \"#utility.yul\":5619:5620   */\n      dup5\n        /* \"#utility.yul\":5615:5624   */\n      slt\n        /* \"#utility.yul\":5608:5625   */\n      iszero\n        /* \"#utility.yul\":5604:5639   */\n      and\n        /* \"#utility.yul\":5588:5698   */\n      or\n        /* \"#utility.yul\":5585:5721   */\n      iszero\n      tag_116\n      jumpi\n        /* \"#utility.yul\":5701:5719   */\n      tag_117\n      tag_48\n      jump\t// in\n    tag_117:\n        /* \"#utility.yul\":5585:5721   */\n    tag_116:\n        /* \"#utility.yul\":5353:5728   */\n      swap3\n      swap2\n      pop\n      pop\n      jump\t// out\n        /* \"#utility.yul\":5734:5914   */\n    tag_22:\n        /* \"#utility.yul\":5782:5859   */\n      0x4e487b7100000000000000000000000000000000000000000000000000000000\n        /* \"#utility.yul\":5779:5780   */\n      0x00\n        /* \"#utility.yul\":5772:5860   */\n      mstore\n        /* \"#utility.yul\":5879:5883   */\n      0x32\n        /* \"#utility.yul\":5876:5877   */\n      0x04\n        /* \"#utility.yul\":5869:5884   */\n      mstore\n        /* \"#utility.yul\":5903:5907   */\n      0x24\n        /* \"#utility.yul\":5900:5901   */\n      0x00\n        /* \"#utility.yul\":5893:5908   */\n      revert\n\n    auxdata: 0xa26469706673582212201bdc052b98234b320a8e30c16298e65f689a9e652a614752d51f29c3d9c230a564736f6c634300081e0033\n}\n",
				"bytecode": {
					"linkReferences": {},
					"object": "6080604052348015600e575f5ffd5b5061050a8061001c5f395ff3fe608060405234801561000f575f5ffd5b5060043610610029575f3560e01c8063b12601da1461002d575b5f5ffd5b610047600480360381019061004291906102d9565b61005d565b604051610054919061034b565b60405180910390f35b5f5f5f90505f600185516100719190610391565b90505b808213610119575f6002838361008a9190610391565b61009491906103fe565b8361009f9190610466565b9050848682815181106100b5576100b46104a7565b5b6020026020010151036100cd5780935050505061013f565b848682815181106100e1576100e06104a7565b5b60200260200101511015610103576001816100fc9190610466565b9250610113565b6001816101109190610391565b91505b50610074565b7fffffffffffffffffffffffffffffffffffffffffffffffffffffffffffffffff925050505b92915050565b5f604051905090565b5f5ffd5b5f5ffd5b5f5ffd5b5f601f19601f8301169050919050565b7f4e487b71000000000000000000000000000000000000000000000000000000005f52604160045260245ffd5b6101a08261015a565b810181811067ffffffffffffffff821117156101bf576101be61016a565b5b80604052505050565b5f6101d1610145565b90506101dd8282610197565b919050565b5f67ffffffffffffffff8211156101fc576101fb61016a565b5b602082029050602081019050919050565b5f5ffd5b5f819050919050565b61022381610211565b811461022d575f5ffd5b50565b5f8135905061023e8161021a565b92915050565b5f610256610251846101e2565b6101c8565b905080838252602082019050602084028301858111156102795761027861020d565b5b835b818110156102a2578061028e8882610230565b84526020840193505060208101905061027b565b5050509392505050565b5f82601f8301126102c0576102bf610156565b5b81356102d0848260208601610244565b91505092915050565b5f5f604083850312156102ef576102ee61014e565b5b5f83013567ffffffffffffffff81111561030c5761030b610152565b5b610318858286016102ac565b925050602061032985828601610230565b9150509250929050565b5f819050919050565b61034581610333565b82525050565b5f60208201905061035e5f83018461033c565b92915050565b7f4e487b71000000000000000000000000000000000000000000000000000000005f52601160045260245ffd5b5f61039b82610333565b91506103a683610333565b925082820390508181125f8412168282135f8512151617156103cb576103ca610364565b5b92915050565b7f4e487b71000000000000000000000000000000000000000000000000000000005f52601260045260245ffd5b5f61040882610333565b915061041383610333565b925082610423576104226103d1565b5b60015f0383147f80000000000000000000000000000000000000000000000000000000000000008314161561045b5761045a610364565b5b828205905092915050565b5f61047082610333565b915061047b83610333565b92508282019050828112155f8312168382125f8412151617156104a1576104a0610364565b5b92915050565b7f4e487b71000000000000000000000000000000000000000000000000000000005f52603260045260245ffdfea26469706673582212201bdc052b98234b320a8e30c16298e65f689a9e652a614752d51f29c3d9c230a564736f6c634300081e0033",
					"opcodes": "PUSH1 0x80 PUSH1 0x40 MSTORE CALLVALUE DUP1 ISZERO PUSH1 0xE JUMPI PUSH0 PUSH0 REVERT JUMPDEST POP PUSH2 0x50A DUP1 PUSH2 0x1C PUSH0 CODECOPY PUSH0 RETURN INVALID PUSH1 0x80 PUSH1 0x40 MSTORE CALLVALUE DUP1 ISZERO PUSH2 0xF JUMPI PUSH0 PUSH0 REVERT JUMPDEST POP PUSH1 0x4 CALLDATASIZE LT PUSH2 0x29 JUMPI PUSH0 CALLDATALOAD PUSH1 0xE0 SHR DUP1 PUSH4 0xB12601DA EQ PUSH2 0x2D JUMPI JUMPDEST PUSH0 PUSH0 REVERT JUMPDEST PUSH2 0x47 PUSH1 0x4 DUP1 CALLDATASIZE SUB DUP2 ADD SWAP1 PUSH2 0x42 SWAP2 SWAP1 PUSH2 0x2D9 JUMP JUMPDEST PUSH2 0x5D JUMP JUMPDEST PUSH1 0x40 MLOAD PUSH2 0x54 SWAP2 SWAP1 PUSH2 0x34B JUMP JUMPDEST PUSH1 0x40 MLOAD DUP1 SWAP2 SUB SWAP1 RETURN JUMPDEST PUSH0 PUSH0 PUSH0 SWAP1 POP PUSH0 PUSH1 0x1 DUP6 MLOAD PUSH2 0x71 SWAP2 SWAP1 PUSH2 0x391 JUMP JUMPDEST SWAP1 POP JUMPDEST DUP1 DUP3 SGT PUSH2 0x119 JUMPI PUSH0 PUSH1 0x2 DUP4 DUP4 PUSH2 0x8A SWAP2 SWAP1 PUSH2 0x391 JUMP JUMPDEST PUSH2 0x94 SWAP2 SWAP1 PUSH2 0x3FE JUMP JUMPDEST DUP4 PUSH2 0x9F SWAP2 SWAP1 PUSH2 0x466 JUMP JUMPDEST SWAP1 POP DUP5 DUP7 DUP3 DUP2 MLOAD DUP2 LT PUSH2 0xB5 JUMPI PUSH2 0xB4 PUSH2 0x4A7 JUMP JUMPDEST JUMPDEST PUSH1 0x20 MUL PUSH1 0x20 ADD ADD MLOAD SUB PUSH2 0xCD JUMPI DUP1 SWAP4 POP POP POP POP PUSH2 0x13F JUMP JUMPDEST DUP5 DUP7 DUP3 DUP2 MLOAD DUP2 LT PUSH2 0xE1 JUMPI PUSH2 0xE0 PUSH2 0x4A7 JUMP JUMPDEST JUMPDEST PUSH1 0x20 MUL PUSH1 0x20 ADD ADD MLOAD LT ISZERO PUSH2 0x103 JUMPI PUSH1 0x1 DUP2 PUSH2 0xFC SWAP2 SWAP1 PUSH2 0x466 JUMP JUMPDEST SWAP3 POP PUSH2 0x113 JUMP JUMPDEST PUSH1 0x1 DUP2 PUSH2 0x110 SWAP2 SWAP1 PUSH2 0x391 JUMP JUMPDEST SWAP2 POP JUMPDEST POP PUSH2 0x74 JUMP JUMPDEST PUSH32 0xFFFFFFFFFFFFFFFFFFFFFFFFFFFFFFFFFFFFFFFFFFFFFFFFFFFFFFFFFFFFFFFF SWAP3 POP POP POP JUMPDEST SWAP3 SWAP2 POP POP JUMP JUMPDEST PUSH0 PUSH1 0x40 MLOAD SWAP1 POP SWAP1 JUMP JUMPDEST PUSH0 PUSH0 REVERT JUMPDEST PUSH0 PUSH0 REVERT JUMPDEST PUSH0 PUSH0 REVERT JUMPDEST PUSH0 PUSH1 0x1F NOT PUSH1 0x1F DUP4 ADD AND SWAP1 POP SWAP2 SWAP1 POP JUMP JUMPDEST PUSH32 0x4E487B7100000000000000000000000000000000000000000000000000000000 PUSH0 MSTORE PUSH1 0x41 PUSH1 0x4 MSTORE PUSH1 0x24 PUSH0 REVERT JUMPDEST PUSH2 0x1A0 DUP3 PUSH2 0x15A JUMP JUMPDEST DUP2 ADD DUP2 DUP2 LT PUSH8 0xFFFFFFFFFFFFFFFF DUP3 GT OR ISZERO PUSH2 0x1BF JUMPI PUSH2 0x1BE PUSH2 0x16A JUMP JUMPDEST JUMPDEST DUP1 PUSH1 0x40 MSTORE POP POP POP JUMP JUMPDEST PUSH0 PUSH2 0x1D1 PUSH2 0x145 JUMP JUMPDEST SWAP1 POP PUSH2 0x1DD DUP3 DUP3 PUSH2 0x197 JUMP JUMPDEST SWAP2 SWAP1 POP JUMP JUMPDEST PUSH0 PUSH8 0xFFFFFFFFFFFFFFFF DUP3 GT ISZERO PUSH2 0x1FC JUMPI PUSH2 0x1FB PUSH2 0x16A JUMP JUMPDEST JUMPDEST PUSH1 0x20 DUP3 MUL SWAP1 POP PUSH1 0x20 DUP2 ADD SWAP1 POP SWAP2 SWAP1 POP JUMP JUMPDEST PUSH0 PUSH0 REVERT JUMPDEST PUSH0 DUP2 SWAP1 POP SWAP2 SWAP1 POP JUMP JUMPDEST PUSH2 0x223 DUP2 PUSH2 0x211 JUMP JUMPDEST DUP2 EQ PUSH2 0x22D JUMPI PUSH0 PUSH0 REVERT JUMPDEST POP JUMP JUMPDEST PUSH0 DUP2 CALLDATALOAD SWAP1 POP PUSH2 0x23E DUP2 PUSH2 0x21A JUMP JUMPDEST SWAP3 SWAP2 POP POP JUMP JUMPDEST PUSH0 PUSH2 0x256 PUSH2 0x251 DUP5 PUSH2 0x1E2 JUMP JUMPDEST PUSH2 0x1C8 JUMP JUMPDEST SWAP1 POP DUP1 DUP4 DUP3 MSTORE PUSH1 0x20 DUP3 ADD SWAP1 POP PUSH1 0x20 DUP5 MUL DUP4 ADD DUP6 DUP2 GT ISZERO PUSH2 0x279 JUMPI PUSH2 0x278 PUSH2 0x20D JUMP JUMPDEST JUMPDEST DUP4 JUMPDEST DUP2 DUP2 LT ISZERO PUSH2 0x2A2 JUMPI DUP1 PUSH2 0x28E DUP9 DUP3 PUSH2 0x230 JUMP JUMPDEST DUP5 MSTORE PUSH1 0x20 DUP5 ADD SWAP4 POP POP PUSH1 0x20 DUP2 ADD SWAP1 POP PUSH2 0x27B JUMP JUMPDEST POP POP POP SWAP4 SWAP3 POP POP POP JUMP JUMPDEST PUSH0 DUP3 PUSH1 0x1F DUP4 ADD SLT PUSH2 0x2C0 JUMPI PUSH2 0x2BF PUSH2 0x156 JUMP JUMPDEST JUMPDEST DUP2 CALLDATALOAD PUSH2 0x2D0 DUP5 DUP3 PUSH1 0x20 DUP7 ADD PUSH2 0x244 JUMP JUMPDEST SWAP2 POP POP SWAP3 SWAP2 POP POP JUMP JUMPDEST PUSH0 PUSH0 PUSH1 0x40 DUP4 DUP6 SUB SLT ISZERO PUSH2 0x2EF JUMPI PUSH2 0x2EE PUSH2 0x14E JUMP JUMPDEST JUMPDEST PUSH0 DUP4 ADD CALLDATALOAD PUSH8 0xFFFFFFFFFFFFFFFF DUP2 GT ISZERO PUSH2 0x30C JUMPI PUSH2 0x30B PUSH2 0x152 JUMP JUMPDEST JUMPDEST PUSH2 0x318 DUP6 DUP3 DUP7 ADD PUSH2 0x2AC JUMP JUMPDEST SWAP3 POP POP PUSH1 0x20 PUSH2 0x329 DUP6 DUP3 DUP7 ADD PUSH2 0x230 JUMP JUMPDEST SWAP2 POP POP SWAP3 POP SWAP3 SWAP1 POP JUMP JUMPDEST PUSH0 DUP2 SWAP1 POP SWAP2 SWAP1 POP JUMP JUMPDEST PUSH2 0x345 DUP2 PUSH2 0x333 JUMP JUMPDEST DUP3 MSTORE POP POP JUMP JUMPDEST PUSH0 PUSH1 0x20 DUP3 ADD SWAP1 POP PUSH2 0x35E PUSH0 DUP4 ADD DUP5 PUSH2 0x33C JUMP JUMPDEST SWAP3 SWAP2 POP POP JUMP JUMPDEST PUSH32 0x4E487B7100000000000000000000000000000000000000000000000000000000 PUSH0 MSTORE PUSH1 0x11 PUSH1 0x4 MSTORE PUSH1 0x24 PUSH0 REVERT JUMPDEST PUSH0 PUSH2 0x39B DUP3 PUSH2 0x333 JUMP JUMPDEST SWAP2 POP PUSH2 0x3A6 DUP4 PUSH2 0x333 JUMP JUMPDEST SWAP3 POP DUP3 DUP3 SUB SWAP1 POP DUP2 DUP2 SLT PUSH0 DUP5 SLT AND DUP3 DUP3 SGT PUSH0 DUP6 SLT ISZERO AND OR ISZERO PUSH2 0x3CB JUMPI PUSH2 0x3CA PUSH2 0x364 JUMP JUMPDEST JUMPDEST SWAP3 SWAP2 POP POP JUMP JUMPDEST PUSH32 0x4E487B7100000000000000000000000000000000000000000000000000000000 PUSH0 MSTORE PUSH1 0x12 PUSH1 0x4 MSTORE PUSH1 0x24 PUSH0 REVERT JUMPDEST PUSH0 PUSH2 0x408 DUP3 PUSH2 0x333 JUMP JUMPDEST SWAP2 POP PUSH2 0x413 DUP4 PUSH2 0x333 JUMP JUMPDEST SWAP3 POP DUP3 PUSH2 0x423 JUMPI PUSH2 0x422 PUSH2 0x3D1 JUMP JUMPDEST JUMPDEST PUSH1 0x1 PUSH0 SUB DUP4 EQ PUSH32 0x8000000000000000000000000000000000000000000000000000000000000000 DUP4 EQ AND ISZERO PUSH2 0x45B JUMPI PUSH2 0x45A PUSH2 0x364 JUMP JUMPDEST JUMPDEST DUP3 DUP3 SDIV SWAP1 POP SWAP3 SWAP2 POP POP JUMP JUMPDEST PUSH0 PUSH2 0x470 DUP3 PUSH2 0x333 JUMP JUMPDEST SWAP2 POP PUSH2 0x47B DUP4 PUSH2 0x333 JUMP JUMPDEST SWAP3 POP DUP3 DUP3 ADD SWAP1 POP DUP3 DUP2 SLT ISZERO PUSH0 DUP4 SLT AND DUP4 DUP3 SLT PUSH0 DUP5 SLT ISZERO AND OR ISZERO PUSH2 0x4A1 JUMPI PUSH2 0x4A0 PUSH2 0x364 JUMP JUMPDEST JUMPDEST SWAP3 SWAP2 POP POP JUMP JUMPDEST PUSH32 0x4E487B7100000000000000000000000000000000000000000000000000000000 PUSH0 MSTORE PUSH1 0x32 PUSH1 0x4 MSTORE PUSH1 0x24 PUSH0 REVERT INVALID LOG2 PUSH5 0x6970667358 0x22 SLT KECCAK256 SHL 0xDC SDIV 0x2B SWAP9 0x23 0x4B ORIGIN EXP DUP15 ADDRESS 0xC1 PUSH3 0x98E65F PUSH9 0x9A9E652A614752D51F 0x29 0xC3 0xD9 0xC2 ADDRESS 0xA5 PUSH5 0x736F6C6343 STOP ADDMOD 0x1E STOP CALLER "
				},
				"gasEstimates": {
					"creation": {
						"codeDepositCost": "258000",
						"executionCost": "298",
						"totalCost": "258298"
					},
					"external": {
						"binarySearch(uint256[],uint256)": "infinite"
					}
				},
				"methodIdentifiers": {
					"binarySearch(uint256[],uint256)": "b12601da"
				}
			},
			"storageLayout": {
				"storage": [],
				"types": null
			},
			"userdoc": {
				"kind": "user",
				"methods": {},
				"version": 1
			}
		}
	}
}