{
	"task1/RomanToInt.sol": {
		"RomanToInt": {
			"abi": [
				{
					"inputs": [
						{
							"internalType": "string",
							"name": "s",
							"type": "string"
						}
					],
					"name": "romanToInt",
					"outputs": [
						{
							"internalType": "uint256",
							"name": "",
							"type": "uint256"
						}
					],
					"stateMutability": "pure",
					"type": "function"
				}
			],
			"devdoc": {
				"kind": "dev",
				"methods": {},
				"version": 1
			},
			"evm": {
				"assembly": "    /* \"task1/RomanToInt.sol\":60:893  contract RomanToInt {... */\n  mstore(0x40, 0x80)\n  callvalue\n  dup1\n  iszero\n  tag_1\n  jumpi\n  revert(0x00, 0x00)\ntag_1:\n  pop\n  dataSize(sub_0)\n  dup1\n  dataOffset(sub_0)\n  0x00\n  codecopy\n  0x00\n  return\nstop\n\nsub_0: assembly {\n        /* \"task1/RomanToInt.sol\":60:893  contract RomanToInt {... */\n      mstore(0x40, 0x80)\n      callvalue\n      dup1\n      iszero\n      tag_1\n      jumpi\n      revert(0x00, 0x00)\n    tag_1:\n      pop\n      jumpi(tag_2, lt(calldatasize, 0x04))\n      shr(0xe0, calldataload(0x00))\n      dup1\n      0xcb159dfe\n      eq\n      tag_3\n      jumpi\n    tag_2:\n      revert(0x00, 0x00)\n        /* \"task1/RomanToInt.sol\":87:555  function romanToInt(string memory s) public pure returns (uint256) {... */\n    tag_3:\n      tag_4\n      0x04\n      dup1\n      calldatasize\n      sub\n      dup2\n      add\n      swap1\n      tag_5\n      swap2\n      swap1\n      tag_6\n      jump\t// in\n    tag_5:\n      tag_7\n      jump\t// in\n    tag_4:\n      mload(0x40)\n      tag_8\n      swap2\n      swap1\n      tag_9\n      jump\t// in\n    tag_8:\n      mload(0x40)\n      dup1\n      swap2\n      sub\n      swap1\n      return\n    tag_7:\n        /* \"task1/RomanToInt.sol\":145:152  uint256 */\n      0x00\n        /* \"task1/RomanToInt.sol\":165:181  bytes memory str */\n      0x00\n        /* \"task1/RomanToInt.sol\":190:191  s */\n      dup3\n        /* \"task1/RomanToInt.sol\":165:192  bytes memory str = bytes(s) */\n      swap1\n      pop\n        /* \"task1/RomanToInt.sol\":203:216  uint256 total */\n      0x00\n        /* \"task1/RomanToInt.sol\":219:220  0 */\n      0x00\n        /* \"task1/RomanToInt.sol\":203:220  uint256 total = 0 */\n      swap1\n      pop\n        /* \"task1/RomanToInt.sol\":231:243  uint256 prev */\n      0x00\n        /* \"task1/RomanToInt.sol\":246:247  0 */\n      0x00\n        /* \"task1/RomanToInt.sol\":231:247  uint256 prev = 0 */\n      swap1\n      pop\n        /* \"task1/RomanToInt.sol\":263:272  uint256 i */\n      0x00\n        /* \"task1/RomanToInt.sol\":275:278  str */\n      dup4\n        /* \"task1/RomanToInt.sol\":275:285  str.length */\n      mload\n        /* \"task1/RomanToInt.sol\":263:285  uint256 i = str.length */\n      swap1\n      pop\n        /* \"task1/RomanToInt.sol\":258:525  for (uint256 i = str.length; i > 0; i--) {... */\n    tag_11:\n        /* \"task1/RomanToInt.sol\":291:292  0 */\n      0x00\n        /* \"task1/RomanToInt.sol\":287:288  i */\n      dup2\n        /* \"task1/RomanToInt.sol\":287:292  i > 0 */\n      gt\n        /* \"task1/RomanToInt.sol\":258:525  for (uint256 i = str.length; i > 0; i--) {... */\n      iszero\n      tag_12\n      jumpi\n        /* \"task1/RomanToInt.sol\":314:327  uint256 value */\n      0x00\n        /* \"task1/RomanToInt.sol\":330:350  getValue(str[i - 1]) */\n      tag_14\n        /* \"task1/RomanToInt.sol\":339:342  str */\n      dup6\n        /* \"task1/RomanToInt.sol\":347:348  1 */\n      0x01\n        /* \"task1/RomanToInt.sol\":343:344  i */\n      dup5\n        /* \"task1/RomanToInt.sol\":343:348  i - 1 */\n      tag_15\n      swap2\n      swap1\n      tag_16\n      jump\t// in\n    tag_15:\n        /* \"task1/RomanToInt.sol\":339:349  str[i - 1] */\n      dup2\n      mload\n      dup2\n      lt\n      tag_17\n      jumpi\n      tag_18\n      tag_19\n      jump\t// in\n    tag_18:\n    tag_17:\n      0x20\n      add\n      add\n      mload\n      0xf8\n      shr\n      0xf8\n      shl\n        /* \"task1/RomanToInt.sol\":330:338  getValue */\n      tag_20\n        /* \"task1/RomanToInt.sol\":330:350  getValue(str[i - 1]) */\n      jump\t// in\n    tag_14:\n        /* \"task1/RomanToInt.sol\":314:350  uint256 value = getValue(str[i - 1]) */\n      swap1\n      pop\n        /* \"task1/RomanToInt.sol\":377:381  prev */\n      dup3\n        /* \"task1/RomanToInt.sol\":369:374  value */\n      dup2\n        /* \"task1/RomanToInt.sol\":369:381  value < prev */\n      lt\n        /* \"task1/RomanToInt.sol\":365:487  if (value < prev) {... */\n      iszero\n      tag_21\n      jumpi\n        /* \"task1/RomanToInt.sol\":411:416  value */\n      dup1\n        /* \"task1/RomanToInt.sol\":402:416  total -= value */\n      dup5\n      tag_22\n      swap2\n      swap1\n      tag_16\n      jump\t// in\n    tag_22:\n      swap4\n      pop\n        /* \"task1/RomanToInt.sol\":365:487  if (value < prev) {... */\n      jump(tag_23)\n    tag_21:\n        /* \"task1/RomanToInt.sol\":466:471  value */\n      dup1\n        /* \"task1/RomanToInt.sol\":457:471  total += value */\n      dup5\n      tag_24\n      swap2\n      swap1\n      tag_25\n      jump\t// in\n    tag_24:\n      swap4\n      pop\n        /* \"task1/RomanToInt.sol\":365:487  if (value < prev) {... */\n    tag_23:\n        /* \"task1/RomanToInt.sol\":508:513  value */\n      dup1\n        /* \"task1/RomanToInt.sol\":501:513  prev = value */\n      swap3\n      pop\n        /* \"task1/RomanToInt.sol\":299:525  {... */\n      pop\n        /* \"task1/RomanToInt.sol\":294:297  i-- */\n      dup1\n      dup1\n      tag_26\n      swap1\n      tag_27\n      jump\t// in\n    tag_26:\n      swap2\n      pop\n      pop\n        /* \"task1/RomanToInt.sol\":258:525  for (uint256 i = str.length; i > 0; i--) {... */\n      jump(tag_11)\n    tag_12:\n      pop\n        /* \"task1/RomanToInt.sol\":542:547  total */\n      dup2\n        /* \"task1/RomanToInt.sol\":535:547  return total */\n      swap4\n      pop\n      pop\n      pop\n      pop\n        /* \"task1/RomanToInt.sol\":87:555  function romanToInt(string memory s) public pure returns (uint256) {... */\n      swap2\n      swap1\n      pop\n      jump\t// out\n        /* \"task1/RomanToInt.sol\":563:890  function getValue(bytes1 c) internal pure returns (uint256) {... */\n    tag_20:\n        /* \"task1/RomanToInt.sol\":614:621  uint256 */\n      0x00\n        /* \"task1/RomanToInt.sol\":638:646  c == \"I\" */\n      0x4900000000000000000000000000000000000000000000000000000000000000\n        /* \"task1/RomanToInt.sol\":638:639  c */\n      dup3\n        /* \"task1/RomanToInt.sol\":638:646  c == \"I\" */\n      not(0xffffffffffffffffffffffffffffffffffffffffffffffffffffffffffffff)\n      and\n      sub\n        /* \"task1/RomanToInt.sol\":634:656  if (c == \"I\") return 1 */\n      tag_29\n      jumpi\n        /* \"task1/RomanToInt.sol\":655:656  1 */\n      0x01\n        /* \"task1/RomanToInt.sol\":648:656  return 1 */\n      swap1\n      pop\n      jump(tag_28)\n        /* \"task1/RomanToInt.sol\":634:656  if (c == \"I\") return 1 */\n    tag_29:\n        /* \"task1/RomanToInt.sol\":671:679  c == \"V\" */\n      0x5600000000000000000000000000000000000000000000000000000000000000\n        /* \"task1/RomanToInt.sol\":671:672  c */\n      dup3\n        /* \"task1/RomanToInt.sol\":671:679  c == \"V\" */\n      not(0xffffffffffffffffffffffffffffffffffffffffffffffffffffffffffffff)\n      and\n      sub\n        /* \"task1/RomanToInt.sol\":667:689  if (c == \"V\") return 5 */\n      tag_30\n      jumpi\n        /* \"task1/RomanToInt.sol\":688:689  5 */\n      0x05\n        /* \"task1/RomanToInt.sol\":681:689  return 5 */\n      swap1\n      pop\n      jump(tag_28)\n        /* \"task1/RomanToInt.sol\":667:689  if (c == \"V\") return 5 */\n    tag_30:\n        /* \"task1/RomanToInt.sol\":704:712  c == \"X\" */\n      0x5800000000000000000000000000000000000000000000000000000000000000\n        /* \"task1/RomanToInt.sol\":704:705  c */\n      dup3\n        /* \"task1/RomanToInt.sol\":704:712  c == \"X\" */\n      not(0xffffffffffffffffffffffffffffffffffffffffffffffffffffffffffffff)\n      and\n      sub\n        /* \"task1/RomanToInt.sol\":700:723  if (c == \"X\") return 10 */\n      tag_31\n      jumpi\n        /* \"task1/RomanToInt.sol\":721:723  10 */\n      0x0a\n        /* \"task1/RomanToInt.sol\":714:723  return 10 */\n      swap1\n      pop\n      jump(tag_28)\n        /* \"task1/RomanToInt.sol\":700:723  if (c == \"X\") return 10 */\n    tag_31:\n        /* \"task1/RomanToInt.sol\":738:746  c == \"L\" */\n      0x4c00000000000000000000000000000000000000000000000000000000000000\n        /* \"task1/RomanToInt.sol\":738:739  c */\n      dup3\n        /* \"task1/RomanToInt.sol\":738:746  c == \"L\" */\n      not(0xffffffffffffffffffffffffffffffffffffffffffffffffffffffffffffff)\n      and\n      sub\n        /* \"task1/RomanToInt.sol\":734:757  if (c == \"L\") return 50 */\n      tag_32\n      jumpi\n        /* \"task1/RomanToInt.sol\":755:757  50 */\n      0x32\n        /* \"task1/RomanToInt.sol\":748:757  return 50 */\n      swap1\n      pop\n      jump(tag_28)\n        /* \"task1/RomanToInt.sol\":734:757  if (c == \"L\") return 50 */\n    tag_32:\n        /* \"task1/RomanToInt.sol\":772:780  c == \"C\" */\n      0x4300000000000000000000000000000000000000000000000000000000000000\n        /* \"task1/RomanToInt.sol\":772:773  c */\n      dup3\n        /* \"task1/RomanToInt.sol\":772:780  c == \"C\" */\n      not(0xffffffffffffffffffffffffffffffffffffffffffffffffffffffffffffff)\n      and\n      sub\n        /* \"task1/RomanToInt.sol\":768:792  if (c == \"C\") return 100 */\n      tag_33\n      jumpi\n        /* \"task1/RomanToInt.sol\":789:792  100 */\n      0x64\n        /* \"task1/RomanToInt.sol\":782:792  return 100 */\n      swap1\n      pop\n      jump(tag_28)\n        /* \"task1/RomanToInt.sol\":768:792  if (c == \"C\") return 100 */\n    tag_33:\n        /* \"task1/RomanToInt.sol\":807:815  c == \"D\" */\n      0x4400000000000000000000000000000000000000000000000000000000000000\n        /* \"task1/RomanToInt.sol\":807:808  c */\n      dup3\n        /* \"task1/RomanToInt.sol\":807:815  c == \"D\" */\n      not(0xffffffffffffffffffffffffffffffffffffffffffffffffffffffffffffff)\n      and\n      sub\n        /* \"task1/RomanToInt.sol\":803:827  if (c == \"D\") return 500 */\n      tag_34\n      jumpi\n        /* \"task1/RomanToInt.sol\":824:827  500 */\n      0x01f4\n        /* \"task1/RomanToInt.sol\":817:827  return 500 */\n      swap1\n      pop\n      jump(tag_28)\n        /* \"task1/RomanToInt.sol\":803:827  if (c == \"D\") return 500 */\n    tag_34:\n        /* \"task1/RomanToInt.sol\":842:850  c == \"M\" */\n      0x4d00000000000000000000000000000000000000000000000000000000000000\n        /* \"task1/RomanToInt.sol\":842:843  c */\n      dup3\n        /* \"task1/RomanToInt.sol\":842:850  c == \"M\" */\n      not(0xffffffffffffffffffffffffffffffffffffffffffffffffffffffffffffff)\n      and\n      sub\n        /* \"task1/RomanToInt.sol\":838:863  if (c == \"M\") return 1000 */\n      tag_35\n      jumpi\n        /* \"task1/RomanToInt.sol\":859:863  1000 */\n      0x03e8\n        /* \"task1/RomanToInt.sol\":852:863  return 1000 */\n      swap1\n      pop\n      jump(tag_28)\n        /* \"task1/RomanToInt.sol\":838:863  if (c == \"M\") return 1000 */\n    tag_35:\n        /* \"task1/RomanToInt.sol\":881:882  0 */\n      0x00\n        /* \"task1/RomanToInt.sol\":874:882  return 0 */\n      swap1\n      pop\n        /* \"task1/RomanToInt.sol\":563:890  function getValue(bytes1 c) internal pure returns (uint256) {... */\n    tag_28:\n      swap2\n      swap1\n      pop\n      jump\t// out\n        /* \"#utility.yul\":7:82   */\n    tag_36:\n        /* \"#utility.yul\":40:46   */\n      0x00\n        /* \"#utility.yul\":73:75   */\n      0x40\n        /* \"#utility.yul\":67:76   */\n      mload\n        /* \"#utility.yul\":57:76   */\n      swap1\n      pop\n        /* \"#utility.yul\":7:82   */\n      swap1\n      jump\t// out\n        /* \"#utility.yul\":88:205   */\n    tag_37:\n        /* \"#utility.yul\":197:198   */\n      0x00\n        /* \"#utility.yul\":194:195   */\n      0x00\n        /* \"#utility.yul\":187:199   */\n      revert\n        /* \"#utility.yul\":211:328   */\n    tag_38:\n        /* \"#utility.yul\":320:321   */\n      0x00\n        /* \"#utility.yul\":317:318   */\n      0x00\n        /* \"#utility.yul\":310:322   */\n      revert\n        /* \"#utility.yul\":334:451   */\n    tag_39:\n        /* \"#utility.yul\":443:444   */\n      0x00\n        /* \"#utility.yul\":440:441   */\n      0x00\n        /* \"#utility.yul\":433:445   */\n      revert\n        /* \"#utility.yul\":457:574   */\n    tag_40:\n        /* \"#utility.yul\":566:567   */\n      0x00\n        /* \"#utility.yul\":563:564   */\n      0x00\n        /* \"#utility.yul\":556:568   */\n      revert\n        /* \"#utility.yul\":580:682   */\n    tag_41:\n        /* \"#utility.yul\":621:627   */\n      0x00\n        /* \"#utility.yul\":672:674   */\n      0x1f\n        /* \"#utility.yul\":668:675   */\n      not\n        /* \"#utility.yul\":663:665   */\n      0x1f\n        /* \"#utility.yul\":656:661   */\n      dup4\n        /* \"#utility.yul\":652:666   */\n      add\n        /* \"#utility.yul\":648:676   */\n      and\n        /* \"#utility.yul\":638:676   */\n      swap1\n      pop\n        /* \"#utility.yul\":580:682   */\n      swap2\n      swap1\n      pop\n      jump\t// out\n        /* \"#utility.yul\":688:868   */\n    tag_42:\n        /* \"#utility.yul\":736:813   */\n      0x4e487b7100000000000000000000000000000000000000000000000000000000\n        /* \"#utility.yul\":733:734   */\n      0x00\n        /* \"#utility.yul\":726:814   */\n      mstore\n        /* \"#utility.yul\":833:837   */\n      0x41\n        /* \"#utility.yul\":830:831   */\n      0x04\n        /* \"#utility.yul\":823:838   */\n      mstore\n        /* \"#utility.yul\":857:861   */\n      0x24\n        /* \"#utility.yul\":854:855   */\n      0x00\n        /* \"#utility.yul\":847:862   */\n      revert\n        /* \"#utility.yul\":874:1155   */\n    tag_43:\n        /* \"#utility.yul\":957:984   */\n      tag_61\n        /* \"#utility.yul\":979:983   */\n      dup3\n        /* \"#utility.yul\":957:984   */\n      tag_41\n      jump\t// in\n    tag_61:\n        /* \"#utility.yul\":949:955   */\n      dup2\n        /* \"#utility.yul\":945:985   */\n      add\n        /* \"#utility.yul\":1087:1093   */\n      dup2\n        /* \"#utility.yul\":1075:1085   */\n      dup2\n        /* \"#utility.yul\":1072:1094   */\n      lt\n        /* \"#utility.yul\":1051:1069   */\n      0xffffffffffffffff\n        /* \"#utility.yul\":1039:1049   */\n      dup3\n        /* \"#utility.yul\":1036:1070   */\n      gt\n        /* \"#utility.yul\":1033:1095   */\n      or\n        /* \"#utility.yul\":1030:1118   */\n      iszero\n      tag_62\n      jumpi\n        /* \"#utility.yul\":1098:1116   */\n      tag_63\n      tag_42\n      jump\t// in\n    tag_63:\n        /* \"#utility.yul\":1030:1118   */\n    tag_62:\n        /* \"#utility.yul\":1138:1148   */\n      dup1\n        /* \"#utility.yul\":1134:1136   */\n      0x40\n        /* \"#utility.yul\":1127:1149   */\n      mstore\n        /* \"#utility.yul\":917:1155   */\n      pop\n        /* \"#utility.yul\":874:1155   */\n      pop\n      pop\n      jump\t// out\n        /* \"#utility.yul\":1161:1290   */\n    tag_44:\n        /* \"#utility.yul\":1195:1201   */\n      0x00\n        /* \"#utility.yul\":1222:1242   */\n      tag_65\n      tag_36\n      jump\t// in\n    tag_65:\n        /* \"#utility.yul\":1212:1242   */\n      swap1\n      pop\n        /* \"#utility.yul\":1251:1284   */\n      tag_66\n        /* \"#utility.yul\":1279:1283   */\n      dup3\n        /* \"#utility.yul\":1271:1277   */\n      dup3\n        /* \"#utility.yul\":1251:1284   */\n      tag_43\n      jump\t// in\n    tag_66:\n        /* \"#utility.yul\":1161:1290   */\n      swap2\n      swap1\n      pop\n      jump\t// out\n        /* \"#utility.yul\":1296:1604   */\n    tag_45:\n        /* \"#utility.yul\":1358:1362   */\n      0x00\n        /* \"#utility.yul\":1448:1466   */\n      0xffffffffffffffff\n        /* \"#utility.yul\":1440:1446   */\n      dup3\n        /* \"#utility.yul\":1437:1467   */\n      gt\n        /* \"#utility.yul\":1434:1490   */\n      iszero\n      tag_68\n      jumpi\n        /* \"#utility.yul\":1470:1488   */\n      tag_69\n      tag_42\n      jump\t// in\n    tag_69:\n        /* \"#utility.yul\":1434:1490   */\n    tag_68:\n        /* \"#utility.yul\":1508:1537   */\n      tag_70\n        /* \"#utility.yul\":1530:1536   */\n      dup3\n        /* \"#utility.yul\":1508:1537   */\n      tag_41\n      jump\t// in\n    tag_70:\n        /* \"#utility.yul\":1500:1537   */\n      swap1\n      pop\n        /* \"#utility.yul\":1592:1596   */\n      0x20\n        /* \"#utility.yul\":1586:1590   */\n      dup2\n        /* \"#utility.yul\":1582:1597   */\n      add\n        /* \"#utility.yul\":1574:1597   */\n      swap1\n      pop\n        /* \"#utility.yul\":1296:1604   */\n      swap2\n      swap1\n      pop\n      jump\t// out\n        /* \"#utility.yul\":1610:1758   */\n    tag_46:\n        /* \"#utility.yul\":1708:1714   */\n      dup3\n        /* \"#utility.yul\":1703:1706   */\n      dup2\n        /* \"#utility.yul\":1698:1701   */\n      dup4\n        /* \"#utility.yul\":1685:1715   */\n      calldatacopy\n        /* \"#utility.yul\":1749:1750   */\n      0x00\n        /* \"#utility.yul\":1740:1746   */\n      dup4\n        /* \"#utility.yul\":1735:1738   */\n      dup4\n        /* \"#utility.yul\":1731:1747   */\n      add\n        /* \"#utility.yul\":1724:1751   */\n      mstore\n        /* \"#utility.yul\":1610:1758   */\n      pop\n      pop\n      pop\n      jump\t// out\n        /* \"#utility.yul\":1764:2189   */\n    tag_47:\n        /* \"#utility.yul\":1842:1847   */\n      0x00\n        /* \"#utility.yul\":1867:1933   */\n      tag_73\n        /* \"#utility.yul\":1883:1932   */\n      tag_74\n        /* \"#utility.yul\":1925:1931   */\n      dup5\n        /* \"#utility.yul\":1883:1932   */\n      tag_45\n      jump\t// in\n    tag_74:\n        /* \"#utility.yul\":1867:1933   */\n      tag_44\n      jump\t// in\n    tag_73:\n        /* \"#utility.yul\":1858:1933   */\n      swap1\n      pop\n        /* \"#utility.yul\":1956:1962   */\n      dup3\n        /* \"#utility.yul\":1949:1954   */\n      dup2\n        /* \"#utility.yul\":1942:1963   */\n      mstore\n        /* \"#utility.yul\":1994:1998   */\n      0x20\n        /* \"#utility.yul\":1987:1992   */\n      dup2\n        /* \"#utility.yul\":1983:1999   */\n      add\n        /* \"#utility.yul\":2032:2035   */\n      dup5\n        /* \"#utility.yul\":2023:2029   */\n      dup5\n        /* \"#utility.yul\":2018:2021   */\n      dup5\n        /* \"#utility.yul\":2014:2030   */\n      add\n        /* \"#utility.yul\":2011:2036   */\n      gt\n        /* \"#utility.yul\":2008:2120   */\n      iszero\n      tag_75\n      jumpi\n        /* \"#utility.yul\":2039:2118   */\n      tag_76\n      tag_40\n      jump\t// in\n    tag_76:\n        /* \"#utility.yul\":2008:2120   */\n    tag_75:\n        /* \"#utility.yul\":2129:2183   */\n      tag_77\n        /* \"#utility.yul\":2176:2182   */\n      dup5\n        /* \"#utility.yul\":2171:2174   */\n      dup3\n        /* \"#utility.yul\":2166:2169   */\n      dup6\n        /* \"#utility.yul\":2129:2183   */\n      tag_46\n      jump\t// in\n    tag_77:\n        /* \"#utility.yul\":1848:2189   */\n      pop\n        /* \"#utility.yul\":1764:2189   */\n      swap4\n      swap3\n      pop\n      pop\n      pop\n      jump\t// out\n        /* \"#utility.yul\":2209:2549   */\n    tag_48:\n        /* \"#utility.yul\":2265:2270   */\n      0x00\n        /* \"#utility.yul\":2314:2317   */\n      dup3\n        /* \"#utility.yul\":2307:2311   */\n      0x1f\n        /* \"#utility.yul\":2299:2305   */\n      dup4\n        /* \"#utility.yul\":2295:2312   */\n      add\n        /* \"#utility.yul\":2291:2318   */\n      slt\n        /* \"#utility.yul\":2281:2403   */\n      tag_79\n      jumpi\n        /* \"#utility.yul\":2322:2401   */\n      tag_80\n      tag_39\n      jump\t// in\n    tag_80:\n        /* \"#utility.yul\":2281:2403   */\n    tag_79:\n        /* \"#utility.yul\":2439:2445   */\n      dup2\n        /* \"#utility.yul\":2426:2446   */\n      calldataload\n        /* \"#utility.yul\":2464:2543   */\n      tag_81\n        /* \"#utility.yul\":2539:2542   */\n      dup5\n        /* \"#utility.yul\":2531:2537   */\n      dup3\n        /* \"#utility.yul\":2524:2528   */\n      0x20\n        /* \"#utility.yul\":2516:2522   */\n      dup7\n        /* \"#utility.yul\":2512:2529   */\n      add\n        /* \"#utility.yul\":2464:2543   */\n      tag_47\n      jump\t// in\n    tag_81:\n        /* \"#utility.yul\":2455:2543   */\n      swap2\n      pop\n        /* \"#utility.yul\":2271:2549   */\n      pop\n        /* \"#utility.yul\":2209:2549   */\n      swap3\n      swap2\n      pop\n      pop\n      jump\t// out\n        /* \"#utility.yul\":2555:3064   */\n    tag_6:\n        /* \"#utility.yul\":2624:2630   */\n      0x00\n        /* \"#utility.yul\":2673:2675   */\n      0x20\n        /* \"#utility.yul\":2661:2670   */\n      dup3\n        /* \"#utility.yul\":2652:2659   */\n      dup5\n        /* \"#utility.yul\":2648:2671   */\n      sub\n        /* \"#utility.yul\":2644:2676   */\n      slt\n        /* \"#utility.yul\":2641:2760   */\n      iszero\n      tag_83\n      jumpi\n        /* \"#utility.yul\":2679:2758   */\n      tag_84\n      tag_37\n      jump\t// in\n    tag_84:\n        /* \"#utility.yul\":2641:2760   */\n    tag_83:\n        /* \"#utility.yul\":2827:2828   */\n      0x00\n        /* \"#utility.yul\":2816:2825   */\n      dup3\n        /* \"#utility.yul\":2812:2829   */\n      add\n        /* \"#utility.yul\":2799:2830   */\n      calldataload\n        /* \"#utility.yul\":2857:2875   */\n      0xffffffffffffffff\n        /* \"#utility.yul\":2849:2855   */\n      dup2\n        /* \"#utility.yul\":2846:2876   */\n      gt\n        /* \"#utility.yul\":2843:2960   */\n      iszero\n      tag_85\n      jumpi\n        /* \"#utility.yul\":2879:2958   */\n      tag_86\n      tag_38\n      jump\t// in\n    tag_86:\n        /* \"#utility.yul\":2843:2960   */\n    tag_85:\n        /* \"#utility.yul\":2984:3047   */\n      tag_87\n        /* \"#utility.yul\":3039:3046   */\n      dup5\n        /* \"#utility.yul\":3030:3036   */\n      dup3\n        /* \"#utility.yul\":3019:3028   */\n      dup6\n        /* \"#utility.yul\":3015:3037   */\n      add\n        /* \"#utility.yul\":2984:3047   */\n      tag_48\n      jump\t// in\n    tag_87:\n        /* \"#utility.yul\":2974:3047   */\n      swap2\n      pop\n        /* \"#utility.yul\":2770:3057   */\n      pop\n        /* \"#utility.yul\":2555:3064   */\n      swap3\n      swap2\n      pop\n      pop\n      jump\t// out\n        /* \"#utility.yul\":3070:3147   */\n    tag_49:\n        /* \"#utility.yul\":3107:3114   */\n      0x00\n        /* \"#utility.yul\":3136:3141   */\n      dup2\n        /* \"#utility.yul\":3125:3141   */\n      swap1\n      pop\n        /* \"#utility.yul\":3070:3147   */\n      swap2\n      swap1\n      pop\n      jump\t// out\n        /* \"#utility.yul\":3153:3271   */\n    tag_50:\n        /* \"#utility.yul\":3240:3264   */\n      tag_90\n        /* \"#utility.yul\":3258:3263   */\n      dup2\n        /* \"#utility.yul\":3240:3264   */\n      tag_49\n      jump\t// in\n    tag_90:\n        /* \"#utility.yul\":3235:3238   */\n      dup3\n        /* \"#utility.yul\":3228:3265   */\n      mstore\n        /* \"#utility.yul\":3153:3271   */\n      pop\n      pop\n      jump\t// out\n        /* \"#utility.yul\":3277:3499   */\n    tag_9:\n        /* \"#utility.yul\":3370:3374   */\n      0x00\n        /* \"#utility.yul\":3408:3410   */\n      0x20\n        /* \"#utility.yul\":3397:3406   */\n      dup3\n        /* \"#utility.yul\":3393:3411   */\n      add\n        /* \"#utility.yul\":3385:3411   */\n      swap1\n      pop\n        /* \"#utility.yul\":3421:3492   */\n      tag_92\n        /* \"#utility.yul\":3489:3490   */\n      0x00\n        /* \"#utility.yul\":3478:3487   */\n      dup4\n        /* \"#utility.yul\":3474:3491   */\n      add\n        /* \"#utility.yul\":3465:3471   */\n      dup5\n        /* \"#utility.yul\":3421:3492   */\n      tag_50\n      jump\t// in\n    tag_92:\n        /* \"#utility.yul\":3277:3499   */\n      swap3\n      swap2\n      pop\n      pop\n      jump\t// out\n        /* \"#utility.yul\":3505:3685   */\n    tag_51:\n        /* \"#utility.yul\":3553:3630   */\n      0x4e487b7100000000000000000000000000000000000000000000000000000000\n        /* \"#utility.yul\":3550:3551   */\n      0x00\n        /* \"#utility.yul\":3543:3631   */\n      mstore\n        /* \"#utility.yul\":3650:3654   */\n      0x11\n        /* \"#utility.yul\":3647:3648   */\n      0x04\n        /* \"#utility.yul\":3640:3655   */\n      mstore\n        /* \"#utility.yul\":3674:3678   */\n      0x24\n        /* \"#utility.yul\":3671:3672   */\n      0x00\n        /* \"#utility.yul\":3664:3679   */\n      revert\n        /* \"#utility.yul\":3691:3885   */\n    tag_16:\n        /* \"#utility.yul\":3731:3735   */\n      0x00\n        /* \"#utility.yul\":3751:3771   */\n      tag_95\n        /* \"#utility.yul\":3769:3770   */\n      dup3\n        /* \"#utility.yul\":3751:3771   */\n      tag_49\n      jump\t// in\n    tag_95:\n        /* \"#utility.yul\":3746:3771   */\n      swap2\n      pop\n        /* \"#utility.yul\":3785:3805   */\n      tag_96\n        /* \"#utility.yul\":3803:3804   */\n      dup4\n        /* \"#utility.yul\":3785:3805   */\n      tag_49\n      jump\t// in\n    tag_96:\n        /* \"#utility.yul\":3780:3805   */\n      swap3\n      pop\n        /* \"#utility.yul\":3829:3830   */\n      dup3\n        /* \"#utility.yul\":3826:3827   */\n      dup3\n        /* \"#utility.yul\":3822:3831   */\n      sub\n        /* \"#utility.yul\":3814:3831   */\n      swap1\n      pop\n        /* \"#utility.yul\":3853:3854   */\n      dup2\n        /* \"#utility.yul\":3847:3851   */\n      dup2\n        /* \"#utility.yul\":3844:3855   */\n      gt\n        /* \"#utility.yul\":3841:3878   */\n      iszero\n      tag_97\n      jumpi\n        /* \"#utility.yul\":3858:3876   */\n      tag_98\n      tag_51\n      jump\t// in\n    tag_98:\n        /* \"#utility.yul\":3841:3878   */\n    tag_97:\n        /* \"#utility.yul\":3691:3885   */\n      swap3\n      swap2\n      pop\n      pop\n      jump\t// out\n        /* \"#utility.yul\":3891:4071   */\n    tag_19:\n        /* \"#utility.yul\":3939:4016   */\n      0x4e487b7100000000000000000000000000000000000000000000000000000000\n        /* \"#utility.yul\":3936:3937   */\n      0x00\n        /* \"#utility.yul\":3929:4017   */\n      mstore\n        /* \"#utility.yul\":4036:4040   */\n      0x32\n        /* \"#utility.yul\":4033:4034   */\n      0x04\n        /* \"#utility.yul\":4026:4041   */\n      mstore\n        /* \"#utility.yul\":4060:4064   */\n      0x24\n        /* \"#utility.yul\":4057:4058   */\n      0x00\n        /* \"#utility.yul\":4050:4065   */\n      revert\n        /* \"#utility.yul\":4077:4268   */\n    tag_25:\n        /* \"#utility.yul\":4117:4120   */\n      0x00\n        /* \"#utility.yul\":4136:4156   */\n      tag_101\n        /* \"#utility.yul\":4154:4155   */\n      dup3\n        /* \"#utility.yul\":4136:4156   */\n      tag_49\n      jump\t// in\n    tag_101:\n        /* \"#utility.yul\":4131:4156   */\n      swap2\n      pop\n        /* \"#utility.yul\":4170:4190   */\n      tag_102\n        /* \"#utility.yul\":4188:4189   */\n      dup4\n        /* \"#utility.yul\":4170:4190   */\n      tag_49\n      jump\t// in\n    tag_102:\n        /* \"#utility.yul\":4165:4190   */\n      swap3\n      pop\n        /* \"#utility.yul\":4213:4214   */\n      dup3\n        /* \"#utility.yul\":4210:4211   */\n      dup3\n        /* \"#utility.yul\":4206:4215   */\n      add\n        /* \"#utility.yul\":4199:4215   */\n      swap1\n      pop\n        /* \"#utility.yul\":4234:4237   */\n      dup1\n        /* \"#utility.yul\":4231:4232   */\n      dup3\n        /* \"#utility.yul\":4228:4238   */\n      gt\n        /* \"#utility.yul\":4225:4261   */\n      iszero\n      tag_103\n      jumpi\n        /* \"#utility.yul\":4241:4259   */\n      tag_104\n      tag_51\n      jump\t// in\n    tag_104:\n        /* \"#utility.yul\":4225:4261   */\n    tag_103:\n        /* \"#utility.yul\":4077:4268   */\n      swap3\n      swap2\n      pop\n      pop\n      jump\t// out\n        /* \"#utility.yul\":4274:4445   */\n    tag_27:\n        /* \"#utility.yul\":4313:4316   */\n      0x00\n        /* \"#utility.yul\":4336:4360   */\n      tag_106\n        /* \"#utility.yul\":4354:4359   */\n      dup3\n        /* \"#utility.yul\":4336:4360   */\n      tag_49\n      jump\t// in\n    tag_106:\n        /* \"#utility.yul\":4327:4360   */\n      swap2\n      pop\n        /* \"#utility.yul\":4382:4386   */\n      0x00\n        /* \"#utility.yul\":4375:4380   */\n      dup3\n        /* \"#utility.yul\":4372:4387   */\n      sub\n        /* \"#utility.yul\":4369:4410   */\n      tag_107\n      jumpi\n        /* \"#utility.yul\":4390:4408   */\n      tag_108\n      tag_51\n      jump\t// in\n    tag_108:\n        /* \"#utility.yul\":4369:4410   */\n    tag_107:\n        /* \"#utility.yul\":4437:4438   */\n      0x01\n        /* \"#utility.yul\":4430:4435   */\n      dup3\n        /* \"#utility.yul\":4426:4439   */\n      sub\n        /* \"#utility.yul\":4419:4439   */\n      swap1\n      pop\n        /* \"#utility.yul\":4274:4445   */\n      swap2\n      swap1\n      pop\n      jump\t// out\n\n    auxdata: 0xa2646970667358221220da039810d056cfea7af7925b7ddbbbc55d30b5a50e1c979a73db8373039b059064736f6c634300081e0033\n}\n",
				"bytecode": {
					"linkReferences": {},
					"object": "6080604052348015600e575f5ffd5b506106268061001c5f395ff3fe608060405234801561000f575f5ffd5b5060043610610029575f3560e01c8063cb159dfe1461002d575b5f5ffd5b61004760048036038101906100429190610491565b61005d565b60405161005491906104f0565b60405180910390f35b5f5f8290505f5f90505f5f90505f835190505b5f8111156100ee575f6100ab8560018461008a9190610536565b8151811061009b5761009a610569565b5b602001015160f81c60f81b6100fa565b9050828110156100c85780846100c19190610536565b93506100d7565b80846100d49190610596565b93505b8092505080806100e6906105c9565b915050610070565b50819350505050919050565b5f7f4900000000000000000000000000000000000000000000000000000000000000827effffffffffffffffffffffffffffffffffffffffffffffffffffffffffffff19160361014d576001905061033f565b7f5600000000000000000000000000000000000000000000000000000000000000827effffffffffffffffffffffffffffffffffffffffffffffffffffffffffffff19160361019f576005905061033f565b7f5800000000000000000000000000000000000000000000000000000000000000827effffffffffffffffffffffffffffffffffffffffffffffffffffffffffffff1916036101f157600a905061033f565b7f4c00000000000000000000000000000000000000000000000000000000000000827effffffffffffffffffffffffffffffffffffffffffffffffffffffffffffff191603610243576032905061033f565b7f4300000000000000000000000000000000000000000000000000000000000000827effffffffffffffffffffffffffffffffffffffffffffffffffffffffffffff191603610295576064905061033f565b7f4400000000000000000000000000000000000000000000000000000000000000827effffffffffffffffffffffffffffffffffffffffffffffffffffffffffffff1916036102e8576101f4905061033f565b7f4d00000000000000000000000000000000000000000000000000000000000000827effffffffffffffffffffffffffffffffffffffffffffffffffffffffffffff19160361033b576103e8905061033f565b5f90505b919050565b5f604051905090565b5f5ffd5b5f5ffd5b5f5ffd5b5f5ffd5b5f601f19601f8301169050919050565b7f4e487b71000000000000000000000000000000000000000000000000000000005f52604160045260245ffd5b6103a38261035d565b810181811067ffffffffffffffff821117156103c2576103c161036d565b5b80604052505050565b5f6103d4610344565b90506103e0828261039a565b919050565b5f67ffffffffffffffff8211156103ff576103fe61036d565b5b6104088261035d565b9050602081019050919050565b828183375f83830152505050565b5f610435610430846103e5565b6103cb565b90508281526020810184848401111561045157610450610359565b5b61045c848285610415565b509392505050565b5f82601f83011261047857610477610355565b5b8135610488848260208601610423565b91505092915050565b5f602082840312156104a6576104a561034d565b5b5f82013567ffffffffffffffff8111156104c3576104c2610351565b5b6104cf84828501610464565b91505092915050565b5f819050919050565b6104ea816104d8565b82525050565b5f6020820190506105035f8301846104e1565b92915050565b7f4e487b71000000000000000000000000000000000000000000000000000000005f52601160045260245ffd5b5f610540826104d8565b915061054b836104d8565b925082820390508181111561056357610562610509565b5b92915050565b7f4e487b71000000000000000000000000000000000000000000000000000000005f52603260045260245ffd5b5f6105a0826104d8565b91506105ab836104d8565b92508282019050808211156105c3576105c2610509565b5b92915050565b5f6105d3826104d8565b91505f82036105e5576105e4610509565b5b60018203905091905056fea2646970667358221220da039810d056cfea7af7925b7ddbbbc55d30b5a50e1c979a73db8373039b059064736f6c634300081e0033",
					"opcodes": "PUSH1 0x80 PUSH1 0x40 MSTORE CALLVALUE DUP1 ISZERO PUSH1 0xE JUMPI PUSH0 PUSH0 REVERT JUMPDEST POP PUSH2 0x626 DUP1 PUSH2 0x1C PUSH0 CODECOPY PUSH0 RETURN INVALID PUSH1 0x80 PUSH1 0x40 MSTORE CALLVALUE DUP1 ISZERO PUSH2 0xF JUMPI PUSH0 PUSH0 REVERT JUMPDEST POP PUSH1 0x4 CALLDATASIZE LT PUSH2 0x29 JUMPI PUSH0 CALLDATALOAD PUSH1 0xE0 SHR DUP1 PUSH4 0xCB159DFE EQ PUSH2 0x2D JUMPI JUMPDEST PUSH0 PUSH0 REVERT JUMPDEST PUSH2 0x47 PUSH1 0x4 DUP1 CALLDATASIZE SUB DUP2 ADD SWAP1 PUSH2 0x42 SWAP2 SWAP1 PUSH2 0x491 JUMP JUMPDEST PUSH2 0x5D JUMP JUMPDEST PUSH1 0x40 MLOAD PUSH2 0x54 SWAP2 SWAP1 PUSH2 0x4F0 JUMP JUMPDEST PUSH1 0x40 MLOAD DUP1 SWAP2 SUB SWAP1 RETURN JUMPDEST PUSH0 PUSH0 DUP3 SWAP1 POP PUSH0 PUSH0 SWAP1 POP PUSH0 PUSH0 SWAP1 POP PUSH0 DUP4 MLOAD SWAP1 POP JUMPDEST PUSH0 DUP2 GT ISZERO PUSH2 0xEE JUMPI PUSH0 PUSH2 0xAB DUP6 PUSH1 0x1 DUP5 PUSH2 0x8A SWAP2 SWAP1 PUSH2 0x536 JUMP JUMPDEST DUP2 MLOAD DUP2 LT PUSH2 0x9B JUMPI PUSH2 0x9A PUSH2 0x569 JUMP JUMPDEST JUMPDEST PUSH1 0x20 ADD ADD MLOAD PUSH1 0xF8 SHR PUSH1 0xF8 SHL PUSH2 0xFA JUMP JUMPDEST SWAP1 POP DUP3 DUP2 LT ISZERO PUSH2 0xC8 JUMPI DUP1 DUP5 PUSH2 0xC1 SWAP2 SWAP1 PUSH2 0x536 JUMP JUMPDEST SWAP4 POP PUSH2 0xD7 JUMP JUMPDEST DUP1 DUP5 PUSH2 0xD4 SWAP2 SWAP1 PUSH2 0x596 JUMP JUMPDEST SWAP4 POP JUMPDEST DUP1 SWAP3 POP POP DUP1 DUP1 PUSH2 0xE6 SWAP1 PUSH2 0x5C9 JUMP JUMPDEST SWAP2 POP POP PUSH2 0x70 JUMP JUMPDEST POP DUP2 SWAP4 POP POP POP POP SWAP2 SWAP1 POP JUMP JUMPDEST PUSH0 PUSH32 0x4900000000000000000000000000000000000000000000000000000000000000 DUP3 PUSH31 0xFFFFFFFFFFFFFFFFFFFFFFFFFFFFFFFFFFFFFFFFFFFFFFFFFFFFFFFFFFFFFF NOT AND SUB PUSH2 0x14D JUMPI PUSH1 0x1 SWAP1 POP PUSH2 0x33F JUMP JUMPDEST PUSH32 0x5600000000000000000000000000000000000000000000000000000000000000 DUP3 PUSH31 0xFFFFFFFFFFFFFFFFFFFFFFFFFFFFFFFFFFFFFFFFFFFFFFFFFFFFFFFFFFFFFF NOT AND SUB PUSH2 0x19F JUMPI PUSH1 0x5 SWAP1 POP PUSH2 0x33F JUMP JUMPDEST PUSH32 0x5800000000000000000000000000000000000000000000000000000000000000 DUP3 PUSH31 0xFFFFFFFFFFFFFFFFFFFFFFFFFFFFFFFFFFFFFFFFFFFFFFFFFFFFFFFFFFFFFF NOT AND SUB PUSH2 0x1F1 JUMPI PUSH1 0xA SWAP1 POP PUSH2 0x33F JUMP JUMPDEST PUSH32 0x4C00000000000000000000000000000000000000000000000000000000000000 DUP3 PUSH31 0xFFFFFFFFFFFFFFFFFFFFFFFFFFFFFFFFFFFFFFFFFFFFFFFFFFFFFFFFFFFFFF NOT AND SUB PUSH2 0x243 JUMPI PUSH1 0x32 SWAP1 POP PUSH2 0x33F JUMP JUMPDEST PUSH32 0x4300000000000000000000000000000000000000000000000000000000000000 DUP3 PUSH31 0xFFFFFFFFFFFFFFFFFFFFFFFFFFFFFFFFFFFFFFFFFFFFFFFFFFFFFFFFFFFFFF NOT AND SUB PUSH2 0x295 JUMPI PUSH1 0x64 SWAP1 POP PUSH2 0x33F JUMP JUMPDEST PUSH32 0x4400000000000000000000000000000000000000000000000000000000000000 DUP3 PUSH31 0xFFFFFFFFFFFFFFFFFFFFFFFFFFFFFFFFFFFFFFFFFFFFFFFFFFFFFFFFFFFFFF NOT AND SUB PUSH2 0x2E8 JUMPI PUSH2 0x1F4 SWAP1 POP PUSH2 0x33F JUMP JUMPDEST PUSH32 0x4D00000000000000000000000000000000000000000000000000000000000000 DUP3 PUSH31 0xFFFFFFFFFFFFFFFFFFFFFFFFFFFFFFFFFFFFFFFFFFFFFFFFFFFFFFFFFFFFFF NOT AND SUB PUSH2 0x33B JUMPI PUSH2 0x3E8 SWAP1 POP PUSH2 0x33F JUMP JUMPDEST PUSH0 SWAP1 POP JUMPDEST SWAP2 SWAP1 POP JUMP JUMPDEST PUSH0 PUSH1 0x40 MLOAD SWAP1 POP SWAP1 JUMP JUMPDEST PUSH0 PUSH0 REVERT JUMPDEST PUSH0 PUSH0 REVERT JUMPDEST PUSH0 PUSH0 REVERT JUMPDEST PUSH0 PUSH0 REVERT JUMPDEST PUSH0 PUSH1 0x1F NOT PUSH1 0x1F DUP4 ADD AND SWAP1 POP SWAP2 SWAP1 POP JUMP JUMPDEST PUSH32 0x4E487B7100000000000000000000000000000000000000000000000000000000 PUSH0 MSTORE PUSH1 0x41 PUSH1 0x4 MSTORE PUSH1 0x24 PUSH0 REVERT JUMPDEST PUSH2 0x3A3 DUP3 PUSH2 0x35D JUMP JUMPDEST DUP2 ADD DUP2 DUP2 LT PUSH8 0xFFFFFFFFFFFFFFFF DUP3 GT OR ISZERO PUSH2 0x3C2 JUMPI PUSH2 0x3C1 PUSH2 0x36D JUMP JUMPDEST JUMPDEST DUP1 PUSH1 0x40 MSTORE POP POP POP JUMP JUMPDEST PUSH0 PUSH2 0x3D4 PUSH2 0x344 JUMP JUMPDEST SWAP1 POP PUSH2 0x3E0 DUP3 DUP3 PUSH2 0x39A JUMP JUMPDEST SWAP2 SWAP1 POP JUMP JUMPDEST PUSH0 PUSH8 0xFFFFFFFFFFFFFFFF DUP3 GT ISZERO PUSH2 0x3FF JUMPI PUSH2 0x3FE PUSH2 0x36D JUMP JUMPDEST JUMPDEST PUSH2 0x408 DUP3 PUSH2 0x35D JUMP JUMPDEST SWAP1 POP PUSH1 0x20 DUP2 ADD SWAP1 POP SWAP2 SWAP1 POP JUMP JUMPDEST DUP3 DUP2 DUP4 CALLDATACOPY PUSH0 DUP4 DUP4 ADD MSTORE POP POP POP JUMP JUMPDEST PUSH0 PUSH2 0x435 PUSH2 0x430 DUP5 PUSH2 0x3E5 JUMP JUMPDEST PUSH2 0x3CB JUMP JUMPDEST SWAP1 POP DUP3 DUP2 MSTORE PUSH1 0x20 DUP2 ADD DUP5 DUP5 DUP5 ADD GT ISZERO PUSH2 0x451 JUMPI PUSH2 0x450 PUSH2 0x359 JUMP JUMPDEST JUMPDEST PUSH2 0x45C DUP5 DUP3 DUP6 PUSH2 0x415 JUMP JUMPDEST POP SWAP4 SWAP3 POP POP POP JUMP JUMPDEST PUSH0 DUP3 PUSH1 0x1F DUP4 ADD SLT PUSH2 0x478 JUMPI PUSH2 0x477 PUSH2 0x355 JUMP JUMPDEST JUMPDEST DUP2 CALLDATALOAD PUSH2 0x488 DUP5 DUP3 PUSH1 0x20 DUP7 ADD PUSH2 0x423 JUMP JUMPDEST SWAP2 POP POP SWAP3 SWAP2 POP POP JUMP JUMPDEST PUSH0 PUSH1 0x20 DUP3 DUP5 SUB SLT ISZERO PUSH2 0x4A6 JUMPI PUSH2 0x4A5 PUSH2 0x34D JUMP JUMPDEST JUMPDEST PUSH0 DUP3 ADD CALLDATALOAD PUSH8 0xFFFFFFFFFFFFFFFF DUP2 GT ISZERO PUSH2 0x4C3 JUMPI PUSH2 0x4C2 PUSH2 0x351 JUMP JUMPDEST JUMPDEST PUSH2 0x4CF DUP5 DUP3 DUP6 ADD PUSH2 0x464 JUMP JUMPDEST SWAP2 POP POP SWAP3 SWAP2 POP POP JUMP JUMPDEST PUSH0 DUP2 SWAP1 POP SWAP2 SWAP1 POP JUMP JUMPDEST PUSH2 0x4EA DUP2 PUSH2 0x4D8 JUMP JUMPDEST DUP3 MSTORE POP POP JUMP JUMPDEST PUSH0 PUSH1 0x20 DUP3 ADD SWAP1 POP PUSH2 0x503 PUSH0 DUP4 ADD DUP5 PUSH2 0x4E1 JUMP JUMPDEST SWAP3 SWAP2 POP POP JUMP JUMPDEST PUSH32 0x4E487B7100000000000000000000000000000000000000000000000000000000 PUSH0 MSTORE PUSH1 0x11 PUSH1 0x4 MSTORE PUSH1 0x24 PUSH0 REVERT JUMPDEST PUSH0 PUSH2 0x540 DUP3 PUSH2 0x4D8 JUMP JUMPDEST SWAP2 POP PUSH2 0x54B DUP4 PUSH2 0x4D8 JUMP JUMPDEST SWAP3 POP DUP3 DUP3 SUB SWAP1 POP DUP2 DUP2 GT ISZERO PUSH2 0x563 JUMPI PUSH2 0x562 PUSH2 0x509 JUMP JUMPDEST JUMPDEST SWAP3 SWAP2 POP POP JUMP JUMPDEST PUSH32 0x4E487B7100000000000000000000000000000000000000000000000000000000 PUSH0 MSTORE PUSH1 0x32 PUSH1 0x4 MSTORE PUSH1 0x24 PUSH0 REVERT JUMPDEST PUSH0 PUSH2 0x5A0 DUP3 PUSH2 0x4D8 JUMP JUMPDEST SWAP2 POP PUSH2 0x5AB DUP4 PUSH2 0x4D8 JUMP JUMPDEST SWAP3 POP DUP3 DUP3 ADD SWAP1 POP DUP1 DUP3 GT ISZERO PUSH2 0x5C3 JUMPI PUSH2 0x5C2 PUSH2 0x509 JUMP JUMPDEST JUMPDEST SWAP3 SWAP2 POP POP JUMP JUMPDEST PUSH0 PUSH2 0x5D3 DUP3 PUSH2 0x4D8 JUMP JUMPDEST SWAP2 POP PUSH0 DUP3 SUB PUSH2 0x5E5 JUMPI PUSH2 0x5E4 PUSH2 0x509 JUMP JUMPDEST JUMPDEST PUSH1 0x1 DUP3 SUB SWAP1 POP SWAP2 SWAP1 POP JUMP INVALID LOG2 PUSH5 0x6970667358 0x22 SLT KECCAK256 0xDA SUB SWAP9 LT 0xD0 JUMP 0xCF 0xEA PUSH27 0xF7925B7DDBBBC55D30B5A50E1C979A73DB8373039B059064736F6C PUSH4 0x4300081E STOP CALLER "
				},
				"gasEstimates": {
					"creation": {
						"codeDepositCost": "314800",
						"executionCost": "353",
						"totalCost": "315153"
					},
					"external": {
						"romanToInt(string)": "infinite"
					},
					"internal": {
						"getValue(bytes1)": "262"
					}
				},
				"methodIdentifiers": {
					"romanToInt(string)": "cb159dfe"
				}
			},
			"storageLayout": {
				"storage": [],
				"types": null
			},
			"userdoc": {
				"kind": "user",
				"methods": {},
				"version": 1
			}
		}
	}
}