{
	"task2/BeggingContract.sol": {
		"BeggingContract": {
			"abi": [
				{
					"inputs": [],
					"stateMutability": "nonpayable",
					"type": "constructor"
				},
				{
					"anonymous": false,
					"inputs": [
						{
							"indexed": true,
							"internalType": "address",
							"name": "donor",
							"type": "address"
						},
						{
							"indexed": false,
							"internalType": "uint256",
							"name": "amount",
							"type": "uint256"
						}
					],
					"name": "Donation",
					"type": "event"
				},
				{
					"inputs": [],
					"name": "donate",
					"outputs": [],
					"stateMutability": "payable",
					"type": "function"
				},
				{
					"inputs": [
						{
							"internalType": "address",
							"name": "",
							"type": "address"
						}
					],
					"name": "donations",
					"outputs": [
						{
							"internalType": "uint256",
							"name": "",
							"type": "uint256"
						}
					],
					"stateMutability": "view",
					"type": "function"
				},
				{
					"inputs": [
						{
							"internalType": "uint256",
							"name": "",
							"type": "uint256"
						}
					],
					"name": "donors",
					"outputs": [
						{
							"internalType": "address",
							"name": "",
							"type": "address"
						}
					],
					"stateMutability": "view",
					"type": "function"
				},
				{
					"inputs": [],
					"name": "endTime",
					"outputs": [
						{
							"internalType": "uint256",
							"name": "",
							"type": "uint256"
						}
					],
					"stateMutability": "view",
					"type": "function"
				},
				{
					"inputs": [],
					"name": "getBalance",
					"outputs": [
						{
							"internalType": "uint256",
							"name": "",
							"type": "uint256"
						}
					],
					"stateMutability": "view",
					"type": "function"
				},
				{
					"inputs": [
						{
							"internalType": "address",
							"name": "_donor",
							"type": "address"
						}
					],
					"name": "getDonation",
					"outputs": [
						{
							"internalType": "uint256",
							"name": "",
							"type": "uint256"
						}
					],
					"stateMutability": "view",
					"type": "function"
				},
				{
					"inputs": [],
					"name": "getTop3Donors",
					"outputs": [
						{
							"internalType": "address[3]",
							"name": "topDonors",
							"type": "address[3]"
						},
						{
							"internalType": "uint256[3]",
							"name": "topAmounts",
							"type": "uint256[3]"
						}
					],
					"stateMutability": "view",
					"type": "function"
				},
				{
					"inputs": [],
					"name": "owner",
					"outputs": [
						{
							"internalType": "address",
							"name": "",
							"type": "address"
						}
					],
					"stateMutability": "view",
					"type": "function"
				},
				{
					"inputs": [],
					"name": "startTime",
					"outputs": [
						{
							"internalType": "uint256",
							"name": "",
							"type": "uint256"
						}
					],
					"stateMutability": "view",
					"type": "function"
				},
				{
					"inputs": [],
					"name": "withdraw",
					"outputs": [],
					"stateMutability": "nonpayable",
					"type": "function"
				}
			],
			"devdoc": {
				"kind": "dev",
				"methods": {},
				"version": 1
			},
			"evm": {
				"assembly": "    /* \"task2/BeggingContract.sol\":60:3006  contract BeggingContract{... */\n  mstore(0x40, 0x80)\n    /* \"task2/BeggingContract.sol\":839:974  constructor() {... */\n  callvalue\n  dup1\n  iszero\n  tag_1\n  jumpi\n  revert(0x00, 0x00)\ntag_1:\n  pop\n    /* \"task2/BeggingContract.sol\":872:882  msg.sender */\n  caller\n    /* \"task2/BeggingContract.sol\":864:869  owner */\n  0x00\n  0x00\n    /* \"task2/BeggingContract.sol\":864:882  owner = msg.sender */\n  0x0100\n  exp\n  dup2\n  sload\n  dup2\n  0xffffffffffffffffffffffffffffffffffffffff\n  mul\n  not\n  and\n  swap1\n  dup4\n  0xffffffffffffffffffffffffffffffffffffffff\n  and\n  mul\n  or\n  swap1\n  sstore\n  pop\n    /* \"task2/BeggingContract.sol\":905:920  block.timestamp */\n  timestamp\n    /* \"task2/BeggingContract.sol\":893:902  startTime */\n  0x01\n    /* \"task2/BeggingContract.sol\":893:920  startTime = block.timestamp */\n  dup2\n  swap1\n  sstore\n  pop\n    /* \"task2/BeggingContract.sol\":959:966  60 days */\n  0x4f1a00\n    /* \"task2/BeggingContract.sol\":941:956  block.timestamp */\n  timestamp\n    /* \"task2/BeggingContract.sol\":941:966  block.timestamp + 60 days */\n  tag_4\n  swap2\n  swap1\n  tag_5\n  jump\t// in\ntag_4:\n    /* \"task2/BeggingContract.sol\":931:938  endTime */\n  0x02\n    /* \"task2/BeggingContract.sol\":931:966  endTime = block.timestamp + 60 days */\n  dup2\n  swap1\n  sstore\n  pop\n    /* \"task2/BeggingContract.sol\":60:3006  contract BeggingContract{... */\n  jump(tag_6)\n    /* \"#utility.yul\":7:84   */\ntag_7:\n    /* \"#utility.yul\":44:51   */\n  0x00\n    /* \"#utility.yul\":73:78   */\n  dup2\n    /* \"#utility.yul\":62:78   */\n  swap1\n  pop\n    /* \"#utility.yul\":7:84   */\n  swap2\n  swap1\n  pop\n  jump\t// out\n    /* \"#utility.yul\":90:270   */\ntag_8:\n    /* \"#utility.yul\":138:215   */\n  0x4e487b7100000000000000000000000000000000000000000000000000000000\n    /* \"#utility.yul\":135:136   */\n  0x00\n    /* \"#utility.yul\":128:216   */\n  mstore\n    /* \"#utility.yul\":235:239   */\n  0x11\n    /* \"#utility.yul\":232:233   */\n  0x04\n    /* \"#utility.yul\":225:240   */\n  mstore\n    /* \"#utility.yul\":259:263   */\n  0x24\n    /* \"#utility.yul\":256:257   */\n  0x00\n    /* \"#utility.yul\":249:264   */\n  revert\n    /* \"#utility.yul\":276:467   */\ntag_5:\n    /* \"#utility.yul\":316:319   */\n  0x00\n    /* \"#utility.yul\":335:355   */\n  tag_13\n    /* \"#utility.yul\":353:354   */\n  dup3\n    /* \"#utility.yul\":335:355   */\n  tag_7\n  jump\t// in\ntag_13:\n    /* \"#utility.yul\":330:355   */\n  swap2\n  pop\n    /* \"#utility.yul\":369:389   */\n  tag_14\n    /* \"#utility.yul\":387:388   */\n  dup4\n    /* \"#utility.yul\":369:389   */\n  tag_7\n  jump\t// in\ntag_14:\n    /* \"#utility.yul\":364:389   */\n  swap3\n  pop\n    /* \"#utility.yul\":412:413   */\n  dup3\n    /* \"#utility.yul\":409:410   */\n  dup3\n    /* \"#utility.yul\":405:414   */\n  add\n    /* \"#utility.yul\":398:414   */\n  swap1\n  pop\n    /* \"#utility.yul\":433:436   */\n  dup1\n    /* \"#utility.yul\":430:431   */\n  dup3\n    /* \"#utility.yul\":427:437   */\n  gt\n    /* \"#utility.yul\":424:460   */\n  iszero\n  tag_15\n  jumpi\n    /* \"#utility.yul\":440:458   */\n  tag_16\n  tag_8\n  jump\t// in\ntag_16:\n    /* \"#utility.yul\":424:460   */\ntag_15:\n    /* \"#utility.yul\":276:467   */\n  swap3\n  swap2\n  pop\n  pop\n  jump\t// out\n    /* \"task2/BeggingContract.sol\":60:3006  contract BeggingContract{... */\ntag_6:\n  dataSize(sub_0)\n  dup1\n  dataOffset(sub_0)\n  0x00\n  codecopy\n  0x00\n  return\nstop\n\nsub_0: assembly {\n        /* \"task2/BeggingContract.sol\":60:3006  contract BeggingContract{... */\n      mstore(0x40, 0x80)\n      jumpi(tag_1, lt(calldatasize, 0x04))\n      shr(0xe0, calldataload(0x00))\n      dup1\n      0x4abfa163\n      gt\n      tag_12\n      jumpi\n      dup1\n      0x4abfa163\n      eq\n      tag_7\n      jumpi\n      dup1\n      0x78e97925\n      eq\n      tag_8\n      jumpi\n      dup1\n      0x8da5cb5b\n      eq\n      tag_9\n      jumpi\n      dup1\n      0xcc6cb19a\n      eq\n      tag_10\n      jumpi\n      dup1\n      0xed88c68e\n      eq\n      tag_11\n      jumpi\n      jump(tag_1)\n    tag_12:\n      dup1\n      0x12065fe0\n      eq\n      tag_2\n      jumpi\n      dup1\n      0x2d1e2518\n      eq\n      tag_3\n      jumpi\n      dup1\n      0x3197cbb6\n      eq\n      tag_4\n      jumpi\n      dup1\n      0x3ccfd60b\n      eq\n      tag_5\n      jumpi\n      dup1\n      0x410a1d32\n      eq\n      tag_6\n      jumpi\n    tag_1:\n      revert(0x00, 0x00)\n        /* \"task2/BeggingContract.sol\":2900:3001  function getBalance() external view returns (uint256) {... */\n    tag_2:\n      callvalue\n      dup1\n      iszero\n      tag_13\n      jumpi\n      revert(0x00, 0x00)\n    tag_13:\n      pop\n      tag_14\n      tag_15\n      jump\t// in\n    tag_14:\n      mload(0x40)\n      tag_16\n      swap2\n      swap1\n      tag_17\n      jump\t// in\n    tag_16:\n      mload(0x40)\n      dup1\n      swap2\n      sub\n      swap1\n      return\n        /* \"task2/BeggingContract.sol\":1879:2865  function getTop3Donors() external view returns (address[3] memory topDonors, uint256[3] memory topAmounts) {... */\n    tag_3:\n      callvalue\n      dup1\n      iszero\n      tag_18\n      jumpi\n      revert(0x00, 0x00)\n    tag_18:\n      pop\n      tag_19\n      tag_20\n      jump\t// in\n    tag_19:\n      mload(0x40)\n      tag_21\n      swap3\n      swap2\n      swap1\n      tag_22\n      jump\t// in\n    tag_21:\n      mload(0x40)\n      dup1\n      swap2\n      sub\n      swap1\n      return\n        /* \"task2/BeggingContract.sol\":149:171  uint256 public endTime */\n    tag_4:\n      callvalue\n      dup1\n      iszero\n      tag_23\n      jumpi\n      revert(0x00, 0x00)\n    tag_23:\n      pop\n      tag_24\n      tag_25\n      jump\t// in\n    tag_24:\n      mload(0x40)\n      tag_26\n      swap2\n      swap1\n      tag_17\n      jump\t// in\n    tag_26:\n      mload(0x40)\n      dup1\n      swap2\n      sub\n      swap1\n      return\n        /* \"task2/BeggingContract.sol\":1476:1671  function withdraw() external onlyOwner {... */\n    tag_5:\n      callvalue\n      dup1\n      iszero\n      tag_27\n      jumpi\n      revert(0x00, 0x00)\n    tag_27:\n      pop\n      tag_28\n      tag_29\n      jump\t// in\n    tag_28:\n      stop\n        /* \"task2/BeggingContract.sol\":1721:1833  function getDonation(address _donor) external view returns (uint256) {... */\n    tag_6:\n      callvalue\n      dup1\n      iszero\n      tag_30\n      jumpi\n      revert(0x00, 0x00)\n    tag_30:\n      pop\n      tag_31\n      0x04\n      dup1\n      calldatasize\n      sub\n      dup2\n      add\n      swap1\n      tag_32\n      swap2\n      swap1\n      tag_33\n      jump\t// in\n    tag_32:\n      tag_34\n      jump\t// in\n    tag_31:\n      mload(0x40)\n      tag_35\n      swap2\n      swap1\n      tag_17\n      jump\t// in\n    tag_35:\n      mload(0x40)\n      dup1\n      swap2\n      sub\n      swap1\n      return\n        /* \"task2/BeggingContract.sol\":324:347  address[] public donors */\n    tag_7:\n      callvalue\n      dup1\n      iszero\n      tag_36\n      jumpi\n      revert(0x00, 0x00)\n    tag_36:\n      pop\n      tag_37\n      0x04\n      dup1\n      calldatasize\n      sub\n      dup2\n      add\n      swap1\n      tag_38\n      swap2\n      swap1\n      tag_39\n      jump\t// in\n    tag_38:\n      tag_40\n      jump\t// in\n    tag_37:\n      mload(0x40)\n      tag_41\n      swap2\n      swap1\n      tag_42\n      jump\t// in\n    tag_41:\n      mload(0x40)\n      dup1\n      swap2\n      sub\n      swap1\n      return\n        /* \"task2/BeggingContract.sol\":118:142  uint256 public startTime */\n    tag_8:\n      callvalue\n      dup1\n      iszero\n      tag_43\n      jumpi\n      revert(0x00, 0x00)\n    tag_43:\n      pop\n      tag_44\n      tag_45\n      jump\t// in\n    tag_44:\n      mload(0x40)\n      tag_46\n      swap2\n      swap1\n      tag_17\n      jump\t// in\n    tag_46:\n      mload(0x40)\n      dup1\n      swap2\n      sub\n      swap1\n      return\n        /* \"task2/BeggingContract.sol\":91:111  address public owner */\n    tag_9:\n      callvalue\n      dup1\n      iszero\n      tag_47\n      jumpi\n      revert(0x00, 0x00)\n    tag_47:\n      pop\n      tag_48\n      tag_49\n      jump\t// in\n    tag_48:\n      mload(0x40)\n      tag_50\n      swap2\n      swap1\n      tag_42\n      jump\t// in\n    tag_50:\n      mload(0x40)\n      dup1\n      swap2\n      sub\n      swap1\n      return\n        /* \"task2/BeggingContract.sol\":223:267  mapping(address => uint256) public donations */\n    tag_10:\n      callvalue\n      dup1\n      iszero\n      tag_51\n      jumpi\n      revert(0x00, 0x00)\n    tag_51:\n      pop\n      tag_52\n      0x04\n      dup1\n      calldatasize\n      sub\n      dup2\n      add\n      swap1\n      tag_53\n      swap2\n      swap1\n      tag_33\n      jump\t// in\n    tag_53:\n      tag_54\n      jump\t// in\n    tag_52:\n      mload(0x40)\n      tag_55\n      swap2\n      swap1\n      tag_17\n      jump\t// in\n    tag_55:\n      mload(0x40)\n      dup1\n      swap2\n      sub\n      swap1\n      return\n        /* \"task2/BeggingContract.sol\":1002:1415  function donate() external payable onlyDuringDonationTime {... */\n    tag_11:\n      tag_56\n      tag_57\n      jump\t// in\n    tag_56:\n      stop\n        /* \"task2/BeggingContract.sol\":2900:3001  function getBalance() external view returns (uint256) {... */\n    tag_15:\n        /* \"task2/BeggingContract.sol\":2945:2952  uint256 */\n      0x00\n        /* \"task2/BeggingContract.sol\":2972:2993  address(this).balance */\n      selfbalance\n        /* \"task2/BeggingContract.sol\":2965:2993  return address(this).balance */\n      swap1\n      pop\n        /* \"task2/BeggingContract.sol\":2900:3001  function getBalance() external view returns (uint256) {... */\n      swap1\n      jump\t// out\n        /* \"task2/BeggingContract.sol\":1879:2865  function getTop3Donors() external view returns (address[3] memory topDonors, uint256[3] memory topAmounts) {... */\n    tag_20:\n        /* \"task2/BeggingContract.sol\":1927:1954  address[3] memory topDonors */\n      tag_59\n      tag_60\n      jump\t// in\n    tag_59:\n        /* \"task2/BeggingContract.sol\":1956:1984  uint256[3] memory topAmounts */\n      tag_61\n      tag_62\n      jump\t// in\n    tag_61:\n        /* \"task2/BeggingContract.sol\":1997:2022  uint256[3] memory amounts */\n      tag_64\n      tag_62\n      jump\t// in\n    tag_64:\n        /* \"task2/BeggingContract.sol\":2033:2056  address[3] memory addrs */\n      tag_65\n      tag_60\n      jump\t// in\n    tag_65:\n        /* \"task2/BeggingContract.sol\":2074:2083  uint256 i */\n      0x00\n        /* \"task2/BeggingContract.sol\":2086:2087  0 */\n      0x00\n        /* \"task2/BeggingContract.sol\":2074:2087  uint256 i = 0 */\n      swap1\n      pop\n        /* \"task2/BeggingContract.sol\":2069:2824  for (uint256 i = 0; i < donors.length; i++) {... */\n    tag_66:\n        /* \"task2/BeggingContract.sol\":2093:2099  donors */\n      0x04\n        /* \"task2/BeggingContract.sol\":2093:2106  donors.length */\n      dup1\n      sload\n      swap1\n      pop\n        /* \"task2/BeggingContract.sol\":2089:2090  i */\n      dup2\n        /* \"task2/BeggingContract.sol\":2089:2106  i < donors.length */\n      lt\n        /* \"task2/BeggingContract.sol\":2069:2824  for (uint256 i = 0; i < donors.length; i++) {... */\n      iszero\n      tag_67\n      jumpi\n        /* \"task2/BeggingContract.sol\":2128:2142  uint256 amount */\n      0x00\n        /* \"task2/BeggingContract.sol\":2145:2154  donations */\n      0x03\n        /* \"task2/BeggingContract.sol\":2145:2165  donations[donors[i]] */\n      0x00\n        /* \"task2/BeggingContract.sol\":2155:2161  donors */\n      0x04\n        /* \"task2/BeggingContract.sol\":2162:2163  i */\n      dup5\n        /* \"task2/BeggingContract.sol\":2155:2164  donors[i] */\n      dup2\n      sload\n      dup2\n      lt\n      tag_69\n      jumpi\n      tag_70\n      tag_71\n      jump\t// in\n    tag_70:\n    tag_69:\n      swap1\n      0x00\n      mstore\n      keccak256(0x00, 0x20)\n      add\n      0x00\n      swap1\n      sload\n      swap1\n      0x0100\n      exp\n      swap1\n      div\n      0xffffffffffffffffffffffffffffffffffffffff\n      and\n        /* \"task2/BeggingContract.sol\":2145:2165  donations[donors[i]] */\n      0xffffffffffffffffffffffffffffffffffffffff\n      and\n      0xffffffffffffffffffffffffffffffffffffffff\n      and\n      dup2\n      mstore\n      0x20\n      add\n      swap1\n      dup2\n      mstore\n      0x20\n      add\n      0x00\n      keccak256\n      sload\n        /* \"task2/BeggingContract.sol\":2128:2165  uint256 amount = donations[donors[i]] */\n      swap1\n      pop\n        /* \"task2/BeggingContract.sol\":2193:2200  amounts */\n      dup4\n        /* \"task2/BeggingContract.sol\":2201:2202  0 */\n      0x00\n        /* \"task2/BeggingContract.sol\":2193:2203  amounts[0] */\n      0x03\n      dup2\n      lt\n      tag_73\n      jumpi\n      tag_74\n      tag_71\n      jump\t// in\n    tag_74:\n    tag_73:\n      0x20\n      mul\n      add\n      mload\n        /* \"task2/BeggingContract.sol\":2184:2190  amount */\n      dup2\n        /* \"task2/BeggingContract.sol\":2184:2203  amount > amounts[0] */\n      gt\n        /* \"task2/BeggingContract.sol\":2180:2813  if (amount > amounts[0]) {... */\n      iszero\n      tag_75\n      jumpi\n        /* \"task2/BeggingContract.sol\":2264:2271  amounts */\n      dup4\n        /* \"task2/BeggingContract.sol\":2272:2273  1 */\n      0x01\n        /* \"task2/BeggingContract.sol\":2264:2274  amounts[1] */\n      0x03\n      dup2\n      lt\n      tag_76\n      jumpi\n      tag_77\n      tag_71\n      jump\t// in\n    tag_77:\n    tag_76:\n      0x20\n      mul\n      add\n      mload\n        /* \"task2/BeggingContract.sol\":2251:2258  amounts */\n      dup5\n        /* \"task2/BeggingContract.sol\":2259:2260  2 */\n      0x02\n        /* \"task2/BeggingContract.sol\":2251:2261  amounts[2] */\n      0x03\n      dup2\n      lt\n      tag_78\n      jumpi\n      tag_79\n      tag_71\n      jump\t// in\n    tag_79:\n    tag_78:\n      0x20\n      mul\n      add\n        /* \"task2/BeggingContract.sol\":2251:2274  amounts[2] = amounts[1] */\n      dup2\n      dup2\n      mstore\n      pop\n      pop\n        /* \"task2/BeggingContract.sol\":2304:2309  addrs */\n      dup3\n        /* \"task2/BeggingContract.sol\":2310:2311  1 */\n      0x01\n        /* \"task2/BeggingContract.sol\":2304:2312  addrs[1] */\n      0x03\n      dup2\n      lt\n      tag_80\n      jumpi\n      tag_81\n      tag_71\n      jump\t// in\n    tag_81:\n    tag_80:\n      0x20\n      mul\n      add\n      mload\n        /* \"task2/BeggingContract.sol\":2293:2298  addrs */\n      dup4\n        /* \"task2/BeggingContract.sol\":2299:2300  2 */\n      0x02\n        /* \"task2/BeggingContract.sol\":2293:2301  addrs[2] */\n      0x03\n      dup2\n      lt\n      tag_82\n      jumpi\n      tag_83\n      tag_71\n      jump\t// in\n    tag_83:\n    tag_82:\n      0x20\n      mul\n      add\n        /* \"task2/BeggingContract.sol\":2293:2312  addrs[2] = addrs[1] */\n      swap1\n      0xffffffffffffffffffffffffffffffffffffffff\n      and\n      swap1\n      dup2\n      0xffffffffffffffffffffffffffffffffffffffff\n      and\n      dup2\n      mstore\n      pop\n      pop\n        /* \"task2/BeggingContract.sol\":2344:2351  amounts */\n      dup4\n        /* \"task2/BeggingContract.sol\":2352:2353  0 */\n      0x00\n        /* \"task2/BeggingContract.sol\":2344:2354  amounts[0] */\n      0x03\n      dup2\n      lt\n      tag_84\n      jumpi\n      tag_85\n      tag_71\n      jump\t// in\n    tag_85:\n    tag_84:\n      0x20\n      mul\n      add\n      mload\n        /* \"task2/BeggingContract.sol\":2331:2338  amounts */\n      dup5\n        /* \"task2/BeggingContract.sol\":2339:2340  1 */\n      0x01\n        /* \"task2/BeggingContract.sol\":2331:2341  amounts[1] */\n      0x03\n      dup2\n      lt\n      tag_86\n      jumpi\n      tag_87\n      tag_71\n      jump\t// in\n    tag_87:\n    tag_86:\n      0x20\n      mul\n      add\n        /* \"task2/BeggingContract.sol\":2331:2354  amounts[1] = amounts[0] */\n      dup2\n      dup2\n      mstore\n      pop\n      pop\n        /* \"task2/BeggingContract.sol\":2384:2389  addrs */\n      dup3\n        /* \"task2/BeggingContract.sol\":2390:2391  0 */\n      0x00\n        /* \"task2/BeggingContract.sol\":2384:2392  addrs[0] */\n      0x03\n      dup2\n      lt\n      tag_88\n      jumpi\n      tag_89\n      tag_71\n      jump\t// in\n    tag_89:\n    tag_88:\n      0x20\n      mul\n      add\n      mload\n        /* \"task2/BeggingContract.sol\":2373:2378  addrs */\n      dup4\n        /* \"task2/BeggingContract.sol\":2379:2380  1 */\n      0x01\n        /* \"task2/BeggingContract.sol\":2373:2381  addrs[1] */\n      0x03\n      dup2\n      lt\n      tag_90\n      jumpi\n      tag_91\n      tag_71\n      jump\t// in\n    tag_91:\n    tag_90:\n      0x20\n      mul\n      add\n        /* \"task2/BeggingContract.sol\":2373:2392  addrs[1] = addrs[0] */\n      swap1\n      0xffffffffffffffffffffffffffffffffffffffff\n      and\n      swap1\n      dup2\n      0xffffffffffffffffffffffffffffffffffffffff\n      and\n      dup2\n      mstore\n      pop\n      pop\n        /* \"task2/BeggingContract.sol\":2424:2430  amount */\n      dup1\n        /* \"task2/BeggingContract.sol\":2411:2418  amounts */\n      dup5\n        /* \"task2/BeggingContract.sol\":2419:2420  0 */\n      0x00\n        /* \"task2/BeggingContract.sol\":2411:2421  amounts[0] */\n      0x03\n      dup2\n      lt\n      tag_92\n      jumpi\n      tag_93\n      tag_71\n      jump\t// in\n    tag_93:\n    tag_92:\n      0x20\n      mul\n      add\n        /* \"task2/BeggingContract.sol\":2411:2430  amounts[0] = amount */\n      dup2\n      dup2\n      mstore\n      pop\n      pop\n        /* \"task2/BeggingContract.sol\":2460:2466  donors */\n      0x04\n        /* \"task2/BeggingContract.sol\":2467:2468  i */\n      dup3\n        /* \"task2/BeggingContract.sol\":2460:2469  donors[i] */\n      dup2\n      sload\n      dup2\n      lt\n      tag_94\n      jumpi\n      tag_95\n      tag_71\n      jump\t// in\n    tag_95:\n    tag_94:\n      swap1\n      0x00\n      mstore\n      keccak256(0x00, 0x20)\n      add\n      0x00\n      swap1\n      sload\n      swap1\n      0x0100\n      exp\n      swap1\n      div\n      0xffffffffffffffffffffffffffffffffffffffff\n      and\n        /* \"task2/BeggingContract.sol\":2449:2454  addrs */\n      dup4\n        /* \"task2/BeggingContract.sol\":2455:2456  0 */\n      0x00\n        /* \"task2/BeggingContract.sol\":2449:2457  addrs[0] */\n      0x03\n      dup2\n      lt\n      tag_97\n      jumpi\n      tag_98\n      tag_71\n      jump\t// in\n    tag_98:\n    tag_97:\n      0x20\n      mul\n      add\n        /* \"task2/BeggingContract.sol\":2449:2469  addrs[0] = donors[i] */\n      swap1\n      0xffffffffffffffffffffffffffffffffffffffff\n      and\n      swap1\n      dup2\n      0xffffffffffffffffffffffffffffffffffffffff\n      and\n      dup2\n      mstore\n      pop\n      pop\n        /* \"task2/BeggingContract.sol\":2180:2813  if (amount > amounts[0]) {... */\n      jump(tag_99)\n    tag_75:\n        /* \"task2/BeggingContract.sol\":2504:2511  amounts */\n      dup4\n        /* \"task2/BeggingContract.sol\":2512:2513  1 */\n      0x01\n        /* \"task2/BeggingContract.sol\":2504:2514  amounts[1] */\n      0x03\n      dup2\n      lt\n      tag_100\n      jumpi\n      tag_101\n      tag_71\n      jump\t// in\n    tag_101:\n    tag_100:\n      0x20\n      mul\n      add\n      mload\n        /* \"task2/BeggingContract.sol\":2495:2501  amount */\n      dup2\n        /* \"task2/BeggingContract.sol\":2495:2514  amount > amounts[1] */\n      gt\n        /* \"task2/BeggingContract.sol\":2491:2813  if (amount > amounts[1]) {... */\n      iszero\n      tag_102\n      jumpi\n        /* \"task2/BeggingContract.sol\":2548:2555  amounts */\n      dup4\n        /* \"task2/BeggingContract.sol\":2556:2557  1 */\n      0x01\n        /* \"task2/BeggingContract.sol\":2548:2558  amounts[1] */\n      0x03\n      dup2\n      lt\n      tag_103\n      jumpi\n      tag_104\n      tag_71\n      jump\t// in\n    tag_104:\n    tag_103:\n      0x20\n      mul\n      add\n      mload\n        /* \"task2/BeggingContract.sol\":2535:2542  amounts */\n      dup5\n        /* \"task2/BeggingContract.sol\":2543:2544  2 */\n      0x02\n        /* \"task2/BeggingContract.sol\":2535:2545  amounts[2] */\n      0x03\n      dup2\n      lt\n      tag_105\n      jumpi\n      tag_106\n      tag_71\n      jump\t// in\n    tag_106:\n    tag_105:\n      0x20\n      mul\n      add\n        /* \"task2/BeggingContract.sol\":2535:2558  amounts[2] = amounts[1] */\n      dup2\n      dup2\n      mstore\n      pop\n      pop\n        /* \"task2/BeggingContract.sol\":2588:2593  addrs */\n      dup3\n        /* \"task2/BeggingContract.sol\":2594:2595  1 */\n      0x01\n        /* \"task2/BeggingContract.sol\":2588:2596  addrs[1] */\n      0x03\n      dup2\n      lt\n      tag_107\n      jumpi\n      tag_108\n      tag_71\n      jump\t// in\n    tag_108:\n    tag_107:\n      0x20\n      mul\n      add\n      mload\n        /* \"task2/BeggingContract.sol\":2577:2582  addrs */\n      dup4\n        /* \"task2/BeggingContract.sol\":2583:2584  2 */\n      0x02\n        /* \"task2/BeggingContract.sol\":2577:2585  addrs[2] */\n      0x03\n      dup2\n      lt\n      tag_109\n      jumpi\n      tag_110\n      tag_71\n      jump\t// in\n    tag_110:\n    tag_109:\n      0x20\n      mul\n      add\n        /* \"task2/BeggingContract.sol\":2577:2596  addrs[2] = addrs[1] */\n      swap1\n      0xffffffffffffffffffffffffffffffffffffffff\n      and\n      swap1\n      dup2\n      0xffffffffffffffffffffffffffffffffffffffff\n      and\n      dup2\n      mstore\n      pop\n      pop\n        /* \"task2/BeggingContract.sol\":2628:2634  amount */\n      dup1\n        /* \"task2/BeggingContract.sol\":2615:2622  amounts */\n      dup5\n        /* \"task2/BeggingContract.sol\":2623:2624  1 */\n      0x01\n        /* \"task2/BeggingContract.sol\":2615:2625  amounts[1] */\n      0x03\n      dup2\n      lt\n      tag_111\n      jumpi\n      tag_112\n      tag_71\n      jump\t// in\n    tag_112:\n    tag_111:\n      0x20\n      mul\n      add\n        /* \"task2/BeggingContract.sol\":2615:2634  amounts[1] = amount */\n      dup2\n      dup2\n      mstore\n      pop\n      pop\n        /* \"task2/BeggingContract.sol\":2664:2670  donors */\n      0x04\n        /* \"task2/BeggingContract.sol\":2671:2672  i */\n      dup3\n        /* \"task2/BeggingContract.sol\":2664:2673  donors[i] */\n      dup2\n      sload\n      dup2\n      lt\n      tag_113\n      jumpi\n      tag_114\n      tag_71\n      jump\t// in\n    tag_114:\n    tag_113:\n      swap1\n      0x00\n      mstore\n      keccak256(0x00, 0x20)\n      add\n      0x00\n      swap1\n      sload\n      swap1\n      0x0100\n      exp\n      swap1\n      div\n      0xffffffffffffffffffffffffffffffffffffffff\n      and\n        /* \"task2/BeggingContract.sol\":2653:2658  addrs */\n      dup4\n        /* \"task2/BeggingContract.sol\":2659:2660  1 */\n      0x01\n        /* \"task2/BeggingContract.sol\":2653:2661  addrs[1] */\n      0x03\n      dup2\n      lt\n      tag_116\n      jumpi\n      tag_117\n      tag_71\n      jump\t// in\n    tag_117:\n    tag_116:\n      0x20\n      mul\n      add\n        /* \"task2/BeggingContract.sol\":2653:2673  addrs[1] = donors[i] */\n      swap1\n      0xffffffffffffffffffffffffffffffffffffffff\n      and\n      swap1\n      dup2\n      0xffffffffffffffffffffffffffffffffffffffff\n      and\n      dup2\n      mstore\n      pop\n      pop\n        /* \"task2/BeggingContract.sol\":2491:2813  if (amount > amounts[1]) {... */\n      jump(tag_118)\n    tag_102:\n        /* \"task2/BeggingContract.sol\":2708:2715  amounts */\n      dup4\n        /* \"task2/BeggingContract.sol\":2716:2717  2 */\n      0x02\n        /* \"task2/BeggingContract.sol\":2708:2718  amounts[2] */\n      0x03\n      dup2\n      lt\n      tag_119\n      jumpi\n      tag_120\n      tag_71\n      jump\t// in\n    tag_120:\n    tag_119:\n      0x20\n      mul\n      add\n      mload\n        /* \"task2/BeggingContract.sol\":2699:2705  amount */\n      dup2\n        /* \"task2/BeggingContract.sol\":2699:2718  amount > amounts[2] */\n      gt\n        /* \"task2/BeggingContract.sol\":2695:2813  if (amount > amounts[2]) {... */\n      iszero\n      tag_121\n      jumpi\n        /* \"task2/BeggingContract.sol\":2752:2758  amount */\n      dup1\n        /* \"task2/BeggingContract.sol\":2739:2746  amounts */\n      dup5\n        /* \"task2/BeggingContract.sol\":2747:2748  2 */\n      0x02\n        /* \"task2/BeggingContract.sol\":2739:2749  amounts[2] */\n      0x03\n      dup2\n      lt\n      tag_122\n      jumpi\n      tag_123\n      tag_71\n      jump\t// in\n    tag_123:\n    tag_122:\n      0x20\n      mul\n      add\n        /* \"task2/BeggingContract.sol\":2739:2758  amounts[2] = amount */\n      dup2\n      dup2\n      mstore\n      pop\n      pop\n        /* \"task2/BeggingContract.sol\":2788:2794  donors */\n      0x04\n        /* \"task2/BeggingContract.sol\":2795:2796  i */\n      dup3\n        /* \"task2/BeggingContract.sol\":2788:2797  donors[i] */\n      dup2\n      sload\n      dup2\n      lt\n      tag_124\n      jumpi\n      tag_125\n      tag_71\n      jump\t// in\n    tag_125:\n    tag_124:\n      swap1\n      0x00\n      mstore\n      keccak256(0x00, 0x20)\n      add\n      0x00\n      swap1\n      sload\n      swap1\n      0x0100\n      exp\n      swap1\n      div\n      0xffffffffffffffffffffffffffffffffffffffff\n      and\n        /* \"task2/BeggingContract.sol\":2777:2782  addrs */\n      dup4\n        /* \"task2/BeggingContract.sol\":2783:2784  2 */\n      0x02\n        /* \"task2/BeggingContract.sol\":2777:2785  addrs[2] */\n      0x03\n      dup2\n      lt\n      tag_127\n      jumpi\n      tag_128\n      tag_71\n      jump\t// in\n    tag_128:\n    tag_127:\n      0x20\n      mul\n      add\n        /* \"task2/BeggingContract.sol\":2777:2797  addrs[2] = donors[i] */\n      swap1\n      0xffffffffffffffffffffffffffffffffffffffff\n      and\n      swap1\n      dup2\n      0xffffffffffffffffffffffffffffffffffffffff\n      and\n      dup2\n      mstore\n      pop\n      pop\n        /* \"task2/BeggingContract.sol\":2695:2813  if (amount > amounts[2]) {... */\n    tag_121:\n        /* \"task2/BeggingContract.sol\":2491:2813  if (amount > amounts[1]) {... */\n    tag_118:\n        /* \"task2/BeggingContract.sol\":2180:2813  if (amount > amounts[0]) {... */\n    tag_99:\n        /* \"task2/BeggingContract.sol\":2113:2824  {... */\n      pop\n        /* \"task2/BeggingContract.sol\":2108:2111  i++ */\n      dup1\n      dup1\n      0x01\n      add\n      swap2\n      pop\n      pop\n        /* \"task2/BeggingContract.sol\":2069:2824  for (uint256 i = 0; i < donors.length; i++) {... */\n      jump(tag_66)\n    tag_67:\n      pop\n        /* \"task2/BeggingContract.sol\":2842:2847  addrs */\n      dup1\n        /* \"task2/BeggingContract.sol\":2849:2856  amounts */\n      dup3\n        /* \"task2/BeggingContract.sol\":2834:2857  return (addrs, amounts) */\n      swap4\n      pop\n      swap4\n      pop\n      pop\n      pop\n        /* \"task2/BeggingContract.sol\":1879:2865  function getTop3Donors() external view returns (address[3] memory topDonors, uint256[3] memory topAmounts) {... */\n      swap1\n      swap2\n      jump\t// out\n        /* \"task2/BeggingContract.sol\":149:171  uint256 public endTime */\n    tag_25:\n      sload(0x02)\n      dup2\n      jump\t// out\n        /* \"task2/BeggingContract.sol\":1476:1671  function withdraw() external onlyOwner {... */\n    tag_29:\n        /* \"task2/BeggingContract.sol\":546:551  owner */\n      0x00\n      0x00\n      swap1\n      sload\n      swap1\n      0x0100\n      exp\n      swap1\n      div\n      0xffffffffffffffffffffffffffffffffffffffff\n      and\n        /* \"task2/BeggingContract.sol\":532:551  msg.sender == owner */\n      0xffffffffffffffffffffffffffffffffffffffff\n      and\n        /* \"task2/BeggingContract.sol\":532:542  msg.sender */\n      caller\n        /* \"task2/BeggingContract.sol\":532:551  msg.sender == owner */\n      0xffffffffffffffffffffffffffffffffffffffff\n      and\n      eq\n        /* \"task2/BeggingContract.sol\":524:589  require(msg.sender == owner, \"Only owner can call this function\") */\n      tag_130\n      jumpi\n      mload(0x40)\n      0x08c379a000000000000000000000000000000000000000000000000000000000\n      dup2\n      mstore\n      0x04\n      add\n      tag_131\n      swap1\n      tag_132\n      jump\t// in\n    tag_131:\n      mload(0x40)\n      dup1\n      swap2\n      sub\n      swap1\n      revert\n    tag_130:\n        /* \"task2/BeggingContract.sol\":1526:1541  uint256 balance */\n      0x00\n        /* \"task2/BeggingContract.sol\":1544:1565  address(this).balance */\n      selfbalance\n        /* \"task2/BeggingContract.sol\":1526:1565  uint256 balance = address(this).balance */\n      swap1\n      pop\n        /* \"task2/BeggingContract.sol\":1594:1595  0 */\n      0x00\n        /* \"task2/BeggingContract.sol\":1584:1591  balance */\n      dup2\n        /* \"task2/BeggingContract.sol\":1584:1595  balance > 0 */\n      gt\n        /* \"task2/BeggingContract.sol\":1576:1620  require(balance > 0, \"No funds to withdraw\") */\n      tag_134\n      jumpi\n      mload(0x40)\n      0x08c379a000000000000000000000000000000000000000000000000000000000\n      dup2\n      mstore\n      0x04\n      add\n      tag_135\n      swap1\n      tag_136\n      jump\t// in\n    tag_135:\n      mload(0x40)\n      dup1\n      swap2\n      sub\n      swap1\n      revert\n    tag_134:\n        /* \"task2/BeggingContract.sol\":1639:1644  owner */\n      0x00\n      0x00\n      swap1\n      sload\n      swap1\n      0x0100\n      exp\n      swap1\n      div\n      0xffffffffffffffffffffffffffffffffffffffff\n      and\n        /* \"task2/BeggingContract.sol\":1631:1654  payable(owner).transfer */\n      0xffffffffffffffffffffffffffffffffffffffff\n      and\n        /* \"task2/BeggingContract.sol\":1631:1663  payable(owner).transfer(balance) */\n      0x08fc\n        /* \"task2/BeggingContract.sol\":1655:1662  balance */\n      dup3\n        /* \"task2/BeggingContract.sol\":1631:1663  payable(owner).transfer(balance) */\n      swap1\n      dup2\n      iszero\n      mul\n      swap1\n      mload(0x40)\n      0x00\n      mload(0x40)\n      dup1\n      dup4\n      sub\n      dup2\n      dup6\n      dup9\n      dup9\n      call\n      swap4\n      pop\n      pop\n      pop\n      pop\n      iszero\n      dup1\n      iszero\n      tag_138\n      jumpi\n      returndatacopy(0x00, 0x00, returndatasize)\n      revert(0x00, returndatasize)\n    tag_138:\n      pop\n        /* \"task2/BeggingContract.sol\":1515:1671  {... */\n      pop\n        /* \"task2/BeggingContract.sol\":1476:1671  function withdraw() external onlyOwner {... */\n      jump\t// out\n        /* \"task2/BeggingContract.sol\":1721:1833  function getDonation(address _donor) external view returns (uint256) {... */\n    tag_34:\n        /* \"task2/BeggingContract.sol\":1781:1788  uint256 */\n      0x00\n        /* \"task2/BeggingContract.sol\":1808:1817  donations */\n      0x03\n        /* \"task2/BeggingContract.sol\":1808:1825  donations[_donor] */\n      0x00\n        /* \"task2/BeggingContract.sol\":1818:1824  _donor */\n      dup4\n        /* \"task2/BeggingContract.sol\":1808:1825  donations[_donor] */\n      0xffffffffffffffffffffffffffffffffffffffff\n      and\n      0xffffffffffffffffffffffffffffffffffffffff\n      and\n      dup2\n      mstore\n      0x20\n      add\n      swap1\n      dup2\n      mstore\n      0x20\n      add\n      0x00\n      keccak256\n      sload\n        /* \"task2/BeggingContract.sol\":1801:1825  return donations[_donor] */\n      swap1\n      pop\n        /* \"task2/BeggingContract.sol\":1721:1833  function getDonation(address _donor) external view returns (uint256) {... */\n      swap2\n      swap1\n      pop\n      jump\t// out\n        /* \"task2/BeggingContract.sol\":324:347  address[] public donors */\n    tag_40:\n      0x04\n      dup2\n      dup2\n      sload\n      dup2\n      lt\n      tag_140\n      jumpi\n      0x00\n      dup1\n      revert\n    tag_140:\n      swap1\n      0x00\n      mstore\n      keccak256(0x00, 0x20)\n      add\n      0x00\n      swap2\n      pop\n      sload\n      swap1\n      0x0100\n      exp\n      swap1\n      div\n      0xffffffffffffffffffffffffffffffffffffffff\n      and\n      dup2\n      jump\t// out\n        /* \"task2/BeggingContract.sol\":118:142  uint256 public startTime */\n    tag_45:\n      sload(0x01)\n      dup2\n      jump\t// out\n        /* \"task2/BeggingContract.sol\":91:111  address public owner */\n    tag_49:\n      0x00\n      0x00\n      swap1\n      sload\n      swap1\n      0x0100\n      exp\n      swap1\n      div\n      0xffffffffffffffffffffffffffffffffffffffff\n      and\n      dup2\n      jump\t// out\n        /* \"task2/BeggingContract.sol\":223:267  mapping(address => uint256) public donations */\n    tag_54:\n      mstore(0x20, 0x03)\n      dup1\n      0x00\n      mstore\n      keccak256(0x00, 0x40)\n      0x00\n      swap2\n      pop\n      swap1\n      pop\n      sload\n      dup2\n      jump\t// out\n        /* \"task2/BeggingContract.sol\":1002:1415  function donate() external payable onlyDuringDonationTime {... */\n    tag_57:\n        /* \"task2/BeggingContract.sol\":733:742  startTime */\n      sload(0x01)\n        /* \"task2/BeggingContract.sol\":714:729  block.timestamp */\n      timestamp\n        /* \"task2/BeggingContract.sol\":714:742  block.timestamp >= startTime */\n      lt\n      iszero\n        /* \"task2/BeggingContract.sol\":714:772  block.timestamp >= startTime && block.timestamp <= endTime */\n      dup1\n      iszero\n      tag_143\n      jumpi\n      pop\n        /* \"task2/BeggingContract.sol\":765:772  endTime */\n      sload(0x02)\n        /* \"task2/BeggingContract.sol\":746:761  block.timestamp */\n      timestamp\n        /* \"task2/BeggingContract.sol\":746:772  block.timestamp <= endTime */\n      gt\n      iszero\n        /* \"task2/BeggingContract.sol\":714:772  block.timestamp >= startTime && block.timestamp <= endTime */\n    tag_143:\n        /* \"task2/BeggingContract.sol\":706:811  require(block.timestamp >= startTime && block.timestamp <= endTime, \"Not within the donation time frame\") */\n      tag_144\n      jumpi\n      mload(0x40)\n      0x08c379a000000000000000000000000000000000000000000000000000000000\n      dup2\n      mstore\n      0x04\n      add\n      tag_145\n      swap1\n      tag_146\n      jump\t// in\n    tag_145:\n      mload(0x40)\n      dup1\n      swap2\n      sub\n      swap1\n      revert\n    tag_144:\n        /* \"task2/BeggingContract.sol\":1091:1092  0 */\n      0x00\n        /* \"task2/BeggingContract.sol\":1079:1088  msg.value */\n      callvalue\n        /* \"task2/BeggingContract.sol\":1079:1092  msg.value > 0 */\n      gt\n        /* \"task2/BeggingContract.sol\":1071:1135  require(msg.value > 0, \"Donation amount must be greater than 0\") */\n      tag_148\n      jumpi\n      mload(0x40)\n      0x08c379a000000000000000000000000000000000000000000000000000000000\n      dup2\n      mstore\n      0x04\n      add\n      tag_149\n      swap1\n      tag_150\n      jump\t// in\n    tag_149:\n      mload(0x40)\n      dup1\n      swap2\n      sub\n      swap1\n      revert\n    tag_148:\n        /* \"task2/BeggingContract.sol\":1263:1264  0 */\n      0x00\n        /* \"task2/BeggingContract.sol\":1238:1247  donations */\n      0x03\n        /* \"task2/BeggingContract.sol\":1238:1259  donations[msg.sender] */\n      0x00\n        /* \"task2/BeggingContract.sol\":1248:1258  msg.sender */\n      caller\n        /* \"task2/BeggingContract.sol\":1238:1259  donations[msg.sender] */\n      0xffffffffffffffffffffffffffffffffffffffff\n      and\n      0xffffffffffffffffffffffffffffffffffffffff\n      and\n      dup2\n      mstore\n      0x20\n      add\n      swap1\n      dup2\n      mstore\n      0x20\n      add\n      0x00\n      keccak256\n      sload\n        /* \"task2/BeggingContract.sol\":1238:1264  donations[msg.sender] == 0 */\n      sub\n        /* \"task2/BeggingContract.sol\":1234:1316  if (donations[msg.sender] == 0) {... */\n      tag_151\n      jumpi\n        /* \"task2/BeggingContract.sol\":1281:1287  donors */\n      0x04\n        /* \"task2/BeggingContract.sol\":1293:1303  msg.sender */\n      caller\n        /* \"task2/BeggingContract.sol\":1281:1304  donors.push(msg.sender) */\n      swap1\n      dup1\n      0x01\n      dup2\n      sload\n      add\n      dup1\n      dup3\n      sstore\n      dup1\n      swap2\n      pop\n      pop\n      0x01\n      swap1\n      sub\n      swap1\n      0x00\n      mstore\n      keccak256(0x00, 0x20)\n      add\n      0x00\n      swap1\n      swap2\n      swap1\n      swap2\n      swap1\n      swap2\n      0x0100\n      exp\n      dup2\n      sload\n      dup2\n      0xffffffffffffffffffffffffffffffffffffffff\n      mul\n      not\n      and\n      swap1\n      dup4\n      0xffffffffffffffffffffffffffffffffffffffff\n      and\n      mul\n      or\n      swap1\n      sstore\n      pop\n        /* \"task2/BeggingContract.sol\":1234:1316  if (donations[msg.sender] == 0) {... */\n    tag_151:\n        /* \"task2/BeggingContract.sol\":1351:1360  msg.value */\n      callvalue\n        /* \"task2/BeggingContract.sol\":1326:1335  donations */\n      0x03\n        /* \"task2/BeggingContract.sol\":1326:1347  donations[msg.sender] */\n      0x00\n        /* \"task2/BeggingContract.sol\":1336:1346  msg.sender */\n      caller\n        /* \"task2/BeggingContract.sol\":1326:1347  donations[msg.sender] */\n      0xffffffffffffffffffffffffffffffffffffffff\n      and\n      0xffffffffffffffffffffffffffffffffffffffff\n      and\n      dup2\n      mstore\n      0x20\n      add\n      swap1\n      dup2\n      mstore\n      0x20\n      add\n      0x00\n      keccak256\n      0x00\n        /* \"task2/BeggingContract.sol\":1326:1360  donations[msg.sender] += msg.value */\n      dup3\n      dup3\n      sload\n      tag_153\n      swap2\n      swap1\n      tag_154\n      jump\t// in\n    tag_153:\n      swap3\n      pop\n      pop\n      dup2\n      swap1\n      sstore\n      pop\n        /* \"task2/BeggingContract.sol\":1385:1395  msg.sender */\n      caller\n        /* \"task2/BeggingContract.sol\":1376:1407  Donation(msg.sender, msg.value) */\n      0xffffffffffffffffffffffffffffffffffffffff\n      and\n      0x5d8bc849764969eb1bcc6d0a2f55999d0167c1ccec240a4f39cf664ca9c4148e\n        /* \"task2/BeggingContract.sol\":1397:1406  msg.value */\n      callvalue\n        /* \"task2/BeggingContract.sol\":1376:1407  Donation(msg.sender, msg.value) */\n      mload(0x40)\n      tag_155\n      swap2\n      swap1\n      tag_17\n      jump\t// in\n    tag_155:\n      mload(0x40)\n      dup1\n      swap2\n      sub\n      swap1\n      log2\n        /* \"task2/BeggingContract.sol\":1002:1415  function donate() external payable onlyDuringDonationTime {... */\n      jump\t// out\n    tag_60:\n      mload(0x40)\n      dup1\n      0x60\n      add\n      0x40\n      mstore\n      dup1\n      0x03\n      swap1\n      0x20\n      dup3\n      mul\n      dup1\n      calldatasize\n      dup4\n      calldatacopy\n      dup1\n      dup3\n      add\n      swap2\n      pop\n      pop\n      swap1\n      pop\n      pop\n      swap1\n      jump\t// out\n    tag_62:\n      mload(0x40)\n      dup1\n      0x60\n      add\n      0x40\n      mstore\n      dup1\n      0x03\n      swap1\n      0x20\n      dup3\n      mul\n      dup1\n      calldatasize\n      dup4\n      calldatacopy\n      dup1\n      dup3\n      add\n      swap2\n      pop\n      pop\n      swap1\n      pop\n      pop\n      swap1\n      jump\t// out\n        /* \"#utility.yul\":7:84   */\n    tag_156:\n        /* \"#utility.yul\":44:51   */\n      0x00\n        /* \"#utility.yul\":73:78   */\n      dup2\n        /* \"#utility.yul\":62:78   */\n      swap1\n      pop\n        /* \"#utility.yul\":7:84   */\n      swap2\n      swap1\n      pop\n      jump\t// out\n        /* \"#utility.yul\":90:208   */\n    tag_157:\n        /* \"#utility.yul\":177:201   */\n      tag_195\n        /* \"#utility.yul\":195:200   */\n      dup2\n        /* \"#utility.yul\":177:201   */\n      tag_156\n      jump\t// in\n    tag_195:\n        /* \"#utility.yul\":172:175   */\n      dup3\n        /* \"#utility.yul\":165:202   */\n      mstore\n        /* \"#utility.yul\":90:208   */\n      pop\n      pop\n      jump\t// out\n        /* \"#utility.yul\":214:436   */\n    tag_17:\n        /* \"#utility.yul\":307:311   */\n      0x00\n        /* \"#utility.yul\":345:347   */\n      0x20\n        /* \"#utility.yul\":334:343   */\n      dup3\n        /* \"#utility.yul\":330:348   */\n      add\n        /* \"#utility.yul\":322:348   */\n      swap1\n      pop\n        /* \"#utility.yul\":358:429   */\n      tag_197\n        /* \"#utility.yul\":426:427   */\n      0x00\n        /* \"#utility.yul\":415:424   */\n      dup4\n        /* \"#utility.yul\":411:428   */\n      add\n        /* \"#utility.yul\":402:408   */\n      dup5\n        /* \"#utility.yul\":358:429   */\n      tag_157\n      jump\t// in\n    tag_197:\n        /* \"#utility.yul\":214:436   */\n      swap3\n      swap2\n      pop\n      pop\n      jump\t// out\n        /* \"#utility.yul\":442:546   */\n    tag_158:\n        /* \"#utility.yul\":507:513   */\n      0x00\n        /* \"#utility.yul\":535:539   */\n      0x03\n        /* \"#utility.yul\":525:539   */\n      swap1\n      pop\n        /* \"#utility.yul\":442:546   */\n      swap2\n      swap1\n      pop\n      jump\t// out\n        /* \"#utility.yul\":552:695   */\n    tag_159:\n        /* \"#utility.yul\":649:660   */\n      0x00\n        /* \"#utility.yul\":686:689   */\n      dup2\n        /* \"#utility.yul\":671:689   */\n      swap1\n      pop\n        /* \"#utility.yul\":552:695   */\n      swap3\n      swap2\n      pop\n      pop\n      jump\t// out\n        /* \"#utility.yul\":701:799   */\n    tag_160:\n        /* \"#utility.yul\":766:770   */\n      0x00\n        /* \"#utility.yul\":789:792   */\n      dup2\n        /* \"#utility.yul\":781:792   */\n      swap1\n      pop\n        /* \"#utility.yul\":701:799   */\n      swap2\n      swap1\n      pop\n      jump\t// out\n        /* \"#utility.yul\":805:931   */\n    tag_161:\n        /* \"#utility.yul\":842:849   */\n      0x00\n        /* \"#utility.yul\":882:924   */\n      0xffffffffffffffffffffffffffffffffffffffff\n        /* \"#utility.yul\":875:880   */\n      dup3\n        /* \"#utility.yul\":871:925   */\n      and\n        /* \"#utility.yul\":860:925   */\n      swap1\n      pop\n        /* \"#utility.yul\":805:931   */\n      swap2\n      swap1\n      pop\n      jump\t// out\n        /* \"#utility.yul\":937:1033   */\n    tag_162:\n        /* \"#utility.yul\":974:981   */\n      0x00\n        /* \"#utility.yul\":1003:1027   */\n      tag_203\n        /* \"#utility.yul\":1021:1026   */\n      dup3\n        /* \"#utility.yul\":1003:1027   */\n      tag_161\n      jump\t// in\n    tag_203:\n        /* \"#utility.yul\":992:1027   */\n      swap1\n      pop\n        /* \"#utility.yul\":937:1033   */\n      swap2\n      swap1\n      pop\n      jump\t// out\n        /* \"#utility.yul\":1039:1147   */\n    tag_163:\n        /* \"#utility.yul\":1116:1140   */\n      tag_205\n        /* \"#utility.yul\":1134:1139   */\n      dup2\n        /* \"#utility.yul\":1116:1140   */\n      tag_162\n      jump\t// in\n    tag_205:\n        /* \"#utility.yul\":1111:1114   */\n      dup3\n        /* \"#utility.yul\":1104:1141   */\n      mstore\n        /* \"#utility.yul\":1039:1147   */\n      pop\n      pop\n      jump\t// out\n        /* \"#utility.yul\":1153:1332   */\n    tag_164:\n        /* \"#utility.yul\":1222:1232   */\n      0x00\n        /* \"#utility.yul\":1243:1289   */\n      tag_207\n        /* \"#utility.yul\":1285:1288   */\n      dup4\n        /* \"#utility.yul\":1277:1283   */\n      dup4\n        /* \"#utility.yul\":1243:1289   */\n      tag_163\n      jump\t// in\n    tag_207:\n        /* \"#utility.yul\":1321:1325   */\n      0x20\n        /* \"#utility.yul\":1316:1319   */\n      dup4\n        /* \"#utility.yul\":1312:1326   */\n      add\n        /* \"#utility.yul\":1298:1326   */\n      swap1\n      pop\n        /* \"#utility.yul\":1153:1332   */\n      swap3\n      swap2\n      pop\n      pop\n      jump\t// out\n        /* \"#utility.yul\":1338:1449   */\n    tag_165:\n        /* \"#utility.yul\":1406:1410   */\n      0x00\n        /* \"#utility.yul\":1438:1442   */\n      0x20\n        /* \"#utility.yul\":1433:1436   */\n      dup3\n        /* \"#utility.yul\":1429:1443   */\n      add\n        /* \"#utility.yul\":1421:1443   */\n      swap1\n      pop\n        /* \"#utility.yul\":1338:1449   */\n      swap2\n      swap1\n      pop\n      jump\t// out\n        /* \"#utility.yul\":1487:2181   */\n    tag_166:\n        /* \"#utility.yul\":1623:1675   */\n      tag_210\n        /* \"#utility.yul\":1669:1674   */\n      dup2\n        /* \"#utility.yul\":1623:1675   */\n      tag_158\n      jump\t// in\n    tag_210:\n        /* \"#utility.yul\":1691:1775   */\n      tag_211\n        /* \"#utility.yul\":1768:1774   */\n      dup2\n        /* \"#utility.yul\":1763:1766   */\n      dup5\n        /* \"#utility.yul\":1691:1775   */\n      tag_159\n      jump\t// in\n    tag_211:\n        /* \"#utility.yul\":1684:1775   */\n      swap3\n      pop\n        /* \"#utility.yul\":1799:1853   */\n      tag_212\n        /* \"#utility.yul\":1847:1852   */\n      dup3\n        /* \"#utility.yul\":1799:1853   */\n      tag_160\n      jump\t// in\n    tag_212:\n        /* \"#utility.yul\":1876:1883   */\n      dup1\n        /* \"#utility.yul\":1907:1908   */\n      0x00\n        /* \"#utility.yul\":1892:2174   */\n    tag_213:\n        /* \"#utility.yul\":1917:1923   */\n      dup4\n        /* \"#utility.yul\":1914:1915   */\n      dup2\n        /* \"#utility.yul\":1911:1924   */\n      lt\n        /* \"#utility.yul\":1892:2174   */\n      iszero\n      tag_215\n      jumpi\n        /* \"#utility.yul\":1993:1999   */\n      dup2\n        /* \"#utility.yul\":1987:2000   */\n      mload\n        /* \"#utility.yul\":2020:2083   */\n      tag_216\n        /* \"#utility.yul\":2079:2082   */\n      dup8\n        /* \"#utility.yul\":2064:2077   */\n      dup3\n        /* \"#utility.yul\":2020:2083   */\n      tag_164\n      jump\t// in\n    tag_216:\n        /* \"#utility.yul\":2013:2083   */\n      swap7\n      pop\n        /* \"#utility.yul\":2106:2164   */\n      tag_217\n        /* \"#utility.yul\":2157:2163   */\n      dup4\n        /* \"#utility.yul\":2106:2164   */\n      tag_165\n      jump\t// in\n    tag_217:\n        /* \"#utility.yul\":2096:2164   */\n      swap3\n      pop\n        /* \"#utility.yul\":1952:2174   */\n      pop\n        /* \"#utility.yul\":1939:1940   */\n      0x01\n        /* \"#utility.yul\":1936:1937   */\n      dup2\n        /* \"#utility.yul\":1932:1941   */\n      add\n        /* \"#utility.yul\":1927:1941   */\n      swap1\n      pop\n        /* \"#utility.yul\":1892:2174   */\n      jump(tag_213)\n    tag_215:\n        /* \"#utility.yul\":1896:1910   */\n      pop\n        /* \"#utility.yul\":1599:2181   */\n      pop\n      pop\n      pop\n        /* \"#utility.yul\":1487:2181   */\n      pop\n      pop\n      jump\t// out\n        /* \"#utility.yul\":2187:2291   */\n    tag_167:\n        /* \"#utility.yul\":2252:2258   */\n      0x00\n        /* \"#utility.yul\":2280:2284   */\n      0x03\n        /* \"#utility.yul\":2270:2284   */\n      swap1\n      pop\n        /* \"#utility.yul\":2187:2291   */\n      swap2\n      swap1\n      pop\n      jump\t// out\n        /* \"#utility.yul\":2297:2440   */\n    tag_168:\n        /* \"#utility.yul\":2394:2405   */\n      0x00\n        /* \"#utility.yul\":2431:2434   */\n      dup2\n        /* \"#utility.yul\":2416:2434   */\n      swap1\n      pop\n        /* \"#utility.yul\":2297:2440   */\n      swap3\n      swap2\n      pop\n      pop\n      jump\t// out\n        /* \"#utility.yul\":2446:2544   */\n    tag_169:\n        /* \"#utility.yul\":2511:2515   */\n      0x00\n        /* \"#utility.yul\":2534:2537   */\n      dup2\n        /* \"#utility.yul\":2526:2537   */\n      swap1\n      pop\n        /* \"#utility.yul\":2446:2544   */\n      swap2\n      swap1\n      pop\n      jump\t// out\n        /* \"#utility.yul\":2550:2658   */\n    tag_170:\n        /* \"#utility.yul\":2627:2651   */\n      tag_222\n        /* \"#utility.yul\":2645:2650   */\n      dup2\n        /* \"#utility.yul\":2627:2651   */\n      tag_156\n      jump\t// in\n    tag_222:\n        /* \"#utility.yul\":2622:2625   */\n      dup3\n        /* \"#utility.yul\":2615:2652   */\n      mstore\n        /* \"#utility.yul\":2550:2658   */\n      pop\n      pop\n      jump\t// out\n        /* \"#utility.yul\":2664:2843   */\n    tag_171:\n        /* \"#utility.yul\":2733:2743   */\n      0x00\n        /* \"#utility.yul\":2754:2800   */\n      tag_224\n        /* \"#utility.yul\":2796:2799   */\n      dup4\n        /* \"#utility.yul\":2788:2794   */\n      dup4\n        /* \"#utility.yul\":2754:2800   */\n      tag_170\n      jump\t// in\n    tag_224:\n        /* \"#utility.yul\":2832:2836   */\n      0x20\n        /* \"#utility.yul\":2827:2830   */\n      dup4\n        /* \"#utility.yul\":2823:2837   */\n      add\n        /* \"#utility.yul\":2809:2837   */\n      swap1\n      pop\n        /* \"#utility.yul\":2664:2843   */\n      swap3\n      swap2\n      pop\n      pop\n      jump\t// out\n        /* \"#utility.yul\":2849:2960   */\n    tag_172:\n        /* \"#utility.yul\":2917:2921   */\n      0x00\n        /* \"#utility.yul\":2949:2953   */\n      0x20\n        /* \"#utility.yul\":2944:2947   */\n      dup3\n        /* \"#utility.yul\":2940:2954   */\n      add\n        /* \"#utility.yul\":2932:2954   */\n      swap1\n      pop\n        /* \"#utility.yul\":2849:2960   */\n      swap2\n      swap1\n      pop\n      jump\t// out\n        /* \"#utility.yul\":2998:3692   */\n    tag_173:\n        /* \"#utility.yul\":3134:3186   */\n      tag_227\n        /* \"#utility.yul\":3180:3185   */\n      dup2\n        /* \"#utility.yul\":3134:3186   */\n      tag_167\n      jump\t// in\n    tag_227:\n        /* \"#utility.yul\":3202:3286   */\n      tag_228\n        /* \"#utility.yul\":3279:3285   */\n      dup2\n        /* \"#utility.yul\":3274:3277   */\n      dup5\n        /* \"#utility.yul\":3202:3286   */\n      tag_168\n      jump\t// in\n    tag_228:\n        /* \"#utility.yul\":3195:3286   */\n      swap3\n      pop\n        /* \"#utility.yul\":3310:3364   */\n      tag_229\n        /* \"#utility.yul\":3358:3363   */\n      dup3\n        /* \"#utility.yul\":3310:3364   */\n      tag_169\n      jump\t// in\n    tag_229:\n        /* \"#utility.yul\":3387:3394   */\n      dup1\n        /* \"#utility.yul\":3418:3419   */\n      0x00\n        /* \"#utility.yul\":3403:3685   */\n    tag_230:\n        /* \"#utility.yul\":3428:3434   */\n      dup4\n        /* \"#utility.yul\":3425:3426   */\n      dup2\n        /* \"#utility.yul\":3422:3435   */\n      lt\n        /* \"#utility.yul\":3403:3685   */\n      iszero\n      tag_232\n      jumpi\n        /* \"#utility.yul\":3504:3510   */\n      dup2\n        /* \"#utility.yul\":3498:3511   */\n      mload\n        /* \"#utility.yul\":3531:3594   */\n      tag_233\n        /* \"#utility.yul\":3590:3593   */\n      dup8\n        /* \"#utility.yul\":3575:3588   */\n      dup3\n        /* \"#utility.yul\":3531:3594   */\n      tag_171\n      jump\t// in\n    tag_233:\n        /* \"#utility.yul\":3524:3594   */\n      swap7\n      pop\n        /* \"#utility.yul\":3617:3675   */\n      tag_234\n        /* \"#utility.yul\":3668:3674   */\n      dup4\n        /* \"#utility.yul\":3617:3675   */\n      tag_172\n      jump\t// in\n    tag_234:\n        /* \"#utility.yul\":3607:3675   */\n      swap3\n      pop\n        /* \"#utility.yul\":3463:3685   */\n      pop\n        /* \"#utility.yul\":3450:3451   */\n      0x01\n        /* \"#utility.yul\":3447:3448   */\n      dup2\n        /* \"#utility.yul\":3443:3452   */\n      add\n        /* \"#utility.yul\":3438:3452   */\n      swap1\n      pop\n        /* \"#utility.yul\":3403:3685   */\n      jump(tag_230)\n    tag_232:\n        /* \"#utility.yul\":3407:3421   */\n      pop\n        /* \"#utility.yul\":3110:3692   */\n      pop\n      pop\n      pop\n        /* \"#utility.yul\":2998:3692   */\n      pop\n      pop\n      jump\t// out\n        /* \"#utility.yul\":3698:4215   */\n    tag_22:\n        /* \"#utility.yul\":3911:3915   */\n      0x00\n        /* \"#utility.yul\":3949:3952   */\n      0xc0\n        /* \"#utility.yul\":3938:3947   */\n      dup3\n        /* \"#utility.yul\":3934:3953   */\n      add\n        /* \"#utility.yul\":3926:3953   */\n      swap1\n      pop\n        /* \"#utility.yul\":3963:4080   */\n      tag_236\n        /* \"#utility.yul\":4077:4078   */\n      0x00\n        /* \"#utility.yul\":4066:4075   */\n      dup4\n        /* \"#utility.yul\":4062:4079   */\n      add\n        /* \"#utility.yul\":4053:4059   */\n      dup6\n        /* \"#utility.yul\":3963:4080   */\n      tag_166\n      jump\t// in\n    tag_236:\n        /* \"#utility.yul\":4090:4208   */\n      tag_237\n        /* \"#utility.yul\":4204:4206   */\n      0x60\n        /* \"#utility.yul\":4193:4202   */\n      dup4\n        /* \"#utility.yul\":4189:4207   */\n      add\n        /* \"#utility.yul\":4180:4186   */\n      dup5\n        /* \"#utility.yul\":4090:4208   */\n      tag_173\n      jump\t// in\n    tag_237:\n        /* \"#utility.yul\":3698:4215   */\n      swap4\n      swap3\n      pop\n      pop\n      pop\n      jump\t// out\n        /* \"#utility.yul\":4302:4419   */\n    tag_175:\n        /* \"#utility.yul\":4411:4412   */\n      0x00\n        /* \"#utility.yul\":4408:4409   */\n      0x00\n        /* \"#utility.yul\":4401:4413   */\n      revert\n        /* \"#utility.yul\":4548:4670   */\n    tag_177:\n        /* \"#utility.yul\":4621:4645   */\n      tag_242\n        /* \"#utility.yul\":4639:4644   */\n      dup2\n        /* \"#utility.yul\":4621:4645   */\n      tag_162\n      jump\t// in\n    tag_242:\n        /* \"#utility.yul\":4614:4619   */\n      dup2\n        /* \"#utility.yul\":4611:4646   */\n      eq\n        /* \"#utility.yul\":4601:4664   */\n      tag_243\n      jumpi\n        /* \"#utility.yul\":4660:4661   */\n      0x00\n        /* \"#utility.yul\":4657:4658   */\n      0x00\n        /* \"#utility.yul\":4650:4662   */\n      revert\n        /* \"#utility.yul\":4601:4664   */\n    tag_243:\n        /* \"#utility.yul\":4548:4670   */\n      pop\n      jump\t// out\n        /* \"#utility.yul\":4676:4815   */\n    tag_178:\n        /* \"#utility.yul\":4722:4727   */\n      0x00\n        /* \"#utility.yul\":4760:4766   */\n      dup2\n        /* \"#utility.yul\":4747:4767   */\n      calldataload\n        /* \"#utility.yul\":4738:4767   */\n      swap1\n      pop\n        /* \"#utility.yul\":4776:4809   */\n      tag_245\n        /* \"#utility.yul\":4803:4808   */\n      dup2\n        /* \"#utility.yul\":4776:4809   */\n      tag_177\n      jump\t// in\n    tag_245:\n        /* \"#utility.yul\":4676:4815   */\n      swap3\n      swap2\n      pop\n      pop\n      jump\t// out\n        /* \"#utility.yul\":4821:5150   */\n    tag_33:\n        /* \"#utility.yul\":4880:4886   */\n      0x00\n        /* \"#utility.yul\":4929:4931   */\n      0x20\n        /* \"#utility.yul\":4917:4926   */\n      dup3\n        /* \"#utility.yul\":4908:4915   */\n      dup5\n        /* \"#utility.yul\":4904:4927   */\n      sub\n        /* \"#utility.yul\":4900:4932   */\n      slt\n        /* \"#utility.yul\":4897:5016   */\n      iszero\n      tag_247\n      jumpi\n        /* \"#utility.yul\":4935:5014   */\n      tag_248\n      tag_175\n      jump\t// in\n    tag_248:\n        /* \"#utility.yul\":4897:5016   */\n    tag_247:\n        /* \"#utility.yul\":5055:5056   */\n      0x00\n        /* \"#utility.yul\":5080:5133   */\n      tag_249\n        /* \"#utility.yul\":5125:5132   */\n      dup5\n        /* \"#utility.yul\":5116:5122   */\n      dup3\n        /* \"#utility.yul\":5105:5114   */\n      dup6\n        /* \"#utility.yul\":5101:5123   */\n      add\n        /* \"#utility.yul\":5080:5133   */\n      tag_178\n      jump\t// in\n    tag_249:\n        /* \"#utility.yul\":5070:5133   */\n      swap2\n      pop\n        /* \"#utility.yul\":5026:5143   */\n      pop\n        /* \"#utility.yul\":4821:5150   */\n      swap3\n      swap2\n      pop\n      pop\n      jump\t// out\n        /* \"#utility.yul\":5156:5278   */\n    tag_179:\n        /* \"#utility.yul\":5229:5253   */\n      tag_251\n        /* \"#utility.yul\":5247:5252   */\n      dup2\n        /* \"#utility.yul\":5229:5253   */\n      tag_156\n      jump\t// in\n    tag_251:\n        /* \"#utility.yul\":5222:5227   */\n      dup2\n        /* \"#utility.yul\":5219:5254   */\n      eq\n        /* \"#utility.yul\":5209:5272   */\n      tag_252\n      jumpi\n        /* \"#utility.yul\":5268:5269   */\n      0x00\n        /* \"#utility.yul\":5265:5266   */\n      0x00\n        /* \"#utility.yul\":5258:5270   */\n      revert\n        /* \"#utility.yul\":5209:5272   */\n    tag_252:\n        /* \"#utility.yul\":5156:5278   */\n      pop\n      jump\t// out\n        /* \"#utility.yul\":5284:5423   */\n    tag_180:\n        /* \"#utility.yul\":5330:5335   */\n      0x00\n        /* \"#utility.yul\":5368:5374   */\n      dup2\n        /* \"#utility.yul\":5355:5375   */\n      calldataload\n        /* \"#utility.yul\":5346:5375   */\n      swap1\n      pop\n        /* \"#utility.yul\":5384:5417   */\n      tag_254\n        /* \"#utility.yul\":5411:5416   */\n      dup2\n        /* \"#utility.yul\":5384:5417   */\n      tag_179\n      jump\t// in\n    tag_254:\n        /* \"#utility.yul\":5284:5423   */\n      swap3\n      swap2\n      pop\n      pop\n      jump\t// out\n        /* \"#utility.yul\":5429:5758   */\n    tag_39:\n        /* \"#utility.yul\":5488:5494   */\n      0x00\n        /* \"#utility.yul\":5537:5539   */\n      0x20\n        /* \"#utility.yul\":5525:5534   */\n      dup3\n        /* \"#utility.yul\":5516:5523   */\n      dup5\n        /* \"#utility.yul\":5512:5535   */\n      sub\n        /* \"#utility.yul\":5508:5540   */\n      slt\n        /* \"#utility.yul\":5505:5624   */\n      iszero\n      tag_256\n      jumpi\n        /* \"#utility.yul\":5543:5622   */\n      tag_257\n      tag_175\n      jump\t// in\n    tag_257:\n        /* \"#utility.yul\":5505:5624   */\n    tag_256:\n        /* \"#utility.yul\":5663:5664   */\n      0x00\n        /* \"#utility.yul\":5688:5741   */\n      tag_258\n        /* \"#utility.yul\":5733:5740   */\n      dup5\n        /* \"#utility.yul\":5724:5730   */\n      dup3\n        /* \"#utility.yul\":5713:5722   */\n      dup6\n        /* \"#utility.yul\":5709:5731   */\n      add\n        /* \"#utility.yul\":5688:5741   */\n      tag_180\n      jump\t// in\n    tag_258:\n        /* \"#utility.yul\":5678:5741   */\n      swap2\n      pop\n        /* \"#utility.yul\":5634:5751   */\n      pop\n        /* \"#utility.yul\":5429:5758   */\n      swap3\n      swap2\n      pop\n      pop\n      jump\t// out\n        /* \"#utility.yul\":5764:5882   */\n    tag_181:\n        /* \"#utility.yul\":5851:5875   */\n      tag_260\n        /* \"#utility.yul\":5869:5874   */\n      dup2\n        /* \"#utility.yul\":5851:5875   */\n      tag_162\n      jump\t// in\n    tag_260:\n        /* \"#utility.yul\":5846:5849   */\n      dup3\n        /* \"#utility.yul\":5839:5876   */\n      mstore\n        /* \"#utility.yul\":5764:5882   */\n      pop\n      pop\n      jump\t// out\n        /* \"#utility.yul\":5888:6110   */\n    tag_42:\n        /* \"#utility.yul\":5981:5985   */\n      0x00\n        /* \"#utility.yul\":6019:6021   */\n      0x20\n        /* \"#utility.yul\":6008:6017   */\n      dup3\n        /* \"#utility.yul\":6004:6022   */\n      add\n        /* \"#utility.yul\":5996:6022   */\n      swap1\n      pop\n        /* \"#utility.yul\":6032:6103   */\n      tag_262\n        /* \"#utility.yul\":6100:6101   */\n      0x00\n        /* \"#utility.yul\":6089:6098   */\n      dup4\n        /* \"#utility.yul\":6085:6102   */\n      add\n        /* \"#utility.yul\":6076:6082   */\n      dup5\n        /* \"#utility.yul\":6032:6103   */\n      tag_181\n      jump\t// in\n    tag_262:\n        /* \"#utility.yul\":5888:6110   */\n      swap3\n      swap2\n      pop\n      pop\n      jump\t// out\n        /* \"#utility.yul\":6116:6296   */\n    tag_71:\n        /* \"#utility.yul\":6164:6241   */\n      0x4e487b7100000000000000000000000000000000000000000000000000000000\n        /* \"#utility.yul\":6161:6162   */\n      0x00\n        /* \"#utility.yul\":6154:6242   */\n      mstore\n        /* \"#utility.yul\":6261:6265   */\n      0x32\n        /* \"#utility.yul\":6258:6259   */\n      0x04\n        /* \"#utility.yul\":6251:6266   */\n      mstore\n        /* \"#utility.yul\":6285:6289   */\n      0x24\n        /* \"#utility.yul\":6282:6283   */\n      0x00\n        /* \"#utility.yul\":6275:6290   */\n      revert\n        /* \"#utility.yul\":6302:6471   */\n    tag_182:\n        /* \"#utility.yul\":6386:6397   */\n      0x00\n        /* \"#utility.yul\":6420:6426   */\n      dup3\n        /* \"#utility.yul\":6415:6418   */\n      dup3\n        /* \"#utility.yul\":6408:6427   */\n      mstore\n        /* \"#utility.yul\":6460:6464   */\n      0x20\n        /* \"#utility.yul\":6455:6458   */\n      dup3\n        /* \"#utility.yul\":6451:6465   */\n      add\n        /* \"#utility.yul\":6436:6465   */\n      swap1\n      pop\n        /* \"#utility.yul\":6302:6471   */\n      swap3\n      swap2\n      pop\n      pop\n      jump\t// out\n        /* \"#utility.yul\":6477:6697   */\n    tag_183:\n        /* \"#utility.yul\":6617:6651   */\n      0x4f6e6c79206f776e65722063616e2063616c6c20746869732066756e6374696f\n        /* \"#utility.yul\":6613:6614   */\n      0x00\n        /* \"#utility.yul\":6605:6611   */\n      dup3\n        /* \"#utility.yul\":6601:6615   */\n      add\n        /* \"#utility.yul\":6594:6652   */\n      mstore\n        /* \"#utility.yul\":6686:6689   */\n      0x6e00000000000000000000000000000000000000000000000000000000000000\n        /* \"#utility.yul\":6681:6683   */\n      0x20\n        /* \"#utility.yul\":6673:6679   */\n      dup3\n        /* \"#utility.yul\":6669:6684   */\n      add\n        /* \"#utility.yul\":6662:6690   */\n      mstore\n        /* \"#utility.yul\":6477:6697   */\n      pop\n      jump\t// out\n        /* \"#utility.yul\":6703:7069   */\n    tag_184:\n        /* \"#utility.yul\":6845:6848   */\n      0x00\n        /* \"#utility.yul\":6866:6933   */\n      tag_267\n        /* \"#utility.yul\":6930:6932   */\n      0x21\n        /* \"#utility.yul\":6925:6928   */\n      dup4\n        /* \"#utility.yul\":6866:6933   */\n      tag_182\n      jump\t// in\n    tag_267:\n        /* \"#utility.yul\":6859:6933   */\n      swap2\n      pop\n        /* \"#utility.yul\":6942:7035   */\n      tag_268\n        /* \"#utility.yul\":7031:7034   */\n      dup3\n        /* \"#utility.yul\":6942:7035   */\n      tag_183\n      jump\t// in\n    tag_268:\n        /* \"#utility.yul\":7060:7062   */\n      0x40\n        /* \"#utility.yul\":7055:7058   */\n      dup3\n        /* \"#utility.yul\":7051:7063   */\n      add\n        /* \"#utility.yul\":7044:7063   */\n      swap1\n      pop\n        /* \"#utility.yul\":6703:7069   */\n      swap2\n      swap1\n      pop\n      jump\t// out\n        /* \"#utility.yul\":7075:7494   */\n    tag_132:\n        /* \"#utility.yul\":7241:7245   */\n      0x00\n        /* \"#utility.yul\":7279:7281   */\n      0x20\n        /* \"#utility.yul\":7268:7277   */\n      dup3\n        /* \"#utility.yul\":7264:7282   */\n      add\n        /* \"#utility.yul\":7256:7282   */\n      swap1\n      pop\n        /* \"#utility.yul\":7328:7337   */\n      dup2\n        /* \"#utility.yul\":7322:7326   */\n      dup2\n        /* \"#utility.yul\":7318:7338   */\n      sub\n        /* \"#utility.yul\":7314:7315   */\n      0x00\n        /* \"#utility.yul\":7303:7312   */\n      dup4\n        /* \"#utility.yul\":7299:7316   */\n      add\n        /* \"#utility.yul\":7292:7339   */\n      mstore\n        /* \"#utility.yul\":7356:7487   */\n      tag_270\n        /* \"#utility.yul\":7482:7486   */\n      dup2\n        /* \"#utility.yul\":7356:7487   */\n      tag_184\n      jump\t// in\n    tag_270:\n        /* \"#utility.yul\":7348:7487   */\n      swap1\n      pop\n        /* \"#utility.yul\":7075:7494   */\n      swap2\n      swap1\n      pop\n      jump\t// out\n        /* \"#utility.yul\":7500:7670   */\n    tag_185:\n        /* \"#utility.yul\":7640:7662   */\n      0x4e6f2066756e647320746f207769746864726177000000000000000000000000\n        /* \"#utility.yul\":7636:7637   */\n      0x00\n        /* \"#utility.yul\":7628:7634   */\n      dup3\n        /* \"#utility.yul\":7624:7638   */\n      add\n        /* \"#utility.yul\":7617:7663   */\n      mstore\n        /* \"#utility.yul\":7500:7670   */\n      pop\n      jump\t// out\n        /* \"#utility.yul\":7676:8042   */\n    tag_186:\n        /* \"#utility.yul\":7818:7821   */\n      0x00\n        /* \"#utility.yul\":7839:7906   */\n      tag_273\n        /* \"#utility.yul\":7903:7905   */\n      0x14\n        /* \"#utility.yul\":7898:7901   */\n      dup4\n        /* \"#utility.yul\":7839:7906   */\n      tag_182\n      jump\t// in\n    tag_273:\n        /* \"#utility.yul\":7832:7906   */\n      swap2\n      pop\n        /* \"#utility.yul\":7915:8008   */\n      tag_274\n        /* \"#utility.yul\":8004:8007   */\n      dup3\n        /* \"#utility.yul\":7915:8008   */\n      tag_185\n      jump\t// in\n    tag_274:\n        /* \"#utility.yul\":8033:8035   */\n      0x20\n        /* \"#utility.yul\":8028:8031   */\n      dup3\n        /* \"#utility.yul\":8024:8036   */\n      add\n        /* \"#utility.yul\":8017:8036   */\n      swap1\n      pop\n        /* \"#utility.yul\":7676:8042   */\n      swap2\n      swap1\n      pop\n      jump\t// out\n        /* \"#utility.yul\":8048:8467   */\n    tag_136:\n        /* \"#utility.yul\":8214:8218   */\n      0x00\n        /* \"#utility.yul\":8252:8254   */\n      0x20\n        /* \"#utility.yul\":8241:8250   */\n      dup3\n        /* \"#utility.yul\":8237:8255   */\n      add\n        /* \"#utility.yul\":8229:8255   */\n      swap1\n      pop\n        /* \"#utility.yul\":8301:8310   */\n      dup2\n        /* \"#utility.yul\":8295:8299   */\n      dup2\n        /* \"#utility.yul\":8291:8311   */\n      sub\n        /* \"#utility.yul\":8287:8288   */\n      0x00\n        /* \"#utility.yul\":8276:8285   */\n      dup4\n        /* \"#utility.yul\":8272:8289   */\n      add\n        /* \"#utility.yul\":8265:8312   */\n      mstore\n        /* \"#utility.yul\":8329:8460   */\n      tag_276\n        /* \"#utility.yul\":8455:8459   */\n      dup2\n        /* \"#utility.yul\":8329:8460   */\n      tag_186\n      jump\t// in\n    tag_276:\n        /* \"#utility.yul\":8321:8460   */\n      swap1\n      pop\n        /* \"#utility.yul\":8048:8467   */\n      swap2\n      swap1\n      pop\n      jump\t// out\n        /* \"#utility.yul\":8473:8694   */\n    tag_187:\n        /* \"#utility.yul\":8613:8647   */\n      0x4e6f742077697468696e2074686520646f6e6174696f6e2074696d6520667261\n        /* \"#utility.yul\":8609:8610   */\n      0x00\n        /* \"#utility.yul\":8601:8607   */\n      dup3\n        /* \"#utility.yul\":8597:8611   */\n      add\n        /* \"#utility.yul\":8590:8648   */\n      mstore\n        /* \"#utility.yul\":8682:8686   */\n      0x6d65000000000000000000000000000000000000000000000000000000000000\n        /* \"#utility.yul\":8677:8679   */\n      0x20\n        /* \"#utility.yul\":8669:8675   */\n      dup3\n        /* \"#utility.yul\":8665:8680   */\n      add\n        /* \"#utility.yul\":8658:8687   */\n      mstore\n        /* \"#utility.yul\":8473:8694   */\n      pop\n      jump\t// out\n        /* \"#utility.yul\":8700:9066   */\n    tag_188:\n        /* \"#utility.yul\":8842:8845   */\n      0x00\n        /* \"#utility.yul\":8863:8930   */\n      tag_279\n        /* \"#utility.yul\":8927:8929   */\n      0x22\n        /* \"#utility.yul\":8922:8925   */\n      dup4\n        /* \"#utility.yul\":8863:8930   */\n      tag_182\n      jump\t// in\n    tag_279:\n        /* \"#utility.yul\":8856:8930   */\n      swap2\n      pop\n        /* \"#utility.yul\":8939:9032   */\n      tag_280\n        /* \"#utility.yul\":9028:9031   */\n      dup3\n        /* \"#utility.yul\":8939:9032   */\n      tag_187\n      jump\t// in\n    tag_280:\n        /* \"#utility.yul\":9057:9059   */\n      0x40\n        /* \"#utility.yul\":9052:9055   */\n      dup3\n        /* \"#utility.yul\":9048:9060   */\n      add\n        /* \"#utility.yul\":9041:9060   */\n      swap1\n      pop\n        /* \"#utility.yul\":8700:9066   */\n      swap2\n      swap1\n      pop\n      jump\t// out\n        /* \"#utility.yul\":9072:9491   */\n    tag_146:\n        /* \"#utility.yul\":9238:9242   */\n      0x00\n        /* \"#utility.yul\":9276:9278   */\n      0x20\n        /* \"#utility.yul\":9265:9274   */\n      dup3\n        /* \"#utility.yul\":9261:9279   */\n      add\n        /* \"#utility.yul\":9253:9279   */\n      swap1\n      pop\n        /* \"#utility.yul\":9325:9334   */\n      dup2\n        /* \"#utility.yul\":9319:9323   */\n      dup2\n        /* \"#utility.yul\":9315:9335   */\n      sub\n        /* \"#utility.yul\":9311:9312   */\n      0x00\n        /* \"#utility.yul\":9300:9309   */\n      dup4\n        /* \"#utility.yul\":9296:9313   */\n      add\n        /* \"#utility.yul\":9289:9336   */\n      mstore\n        /* \"#utility.yul\":9353:9484   */\n      tag_282\n        /* \"#utility.yul\":9479:9483   */\n      dup2\n        /* \"#utility.yul\":9353:9484   */\n      tag_188\n      jump\t// in\n    tag_282:\n        /* \"#utility.yul\":9345:9484   */\n      swap1\n      pop\n        /* \"#utility.yul\":9072:9491   */\n      swap2\n      swap1\n      pop\n      jump\t// out\n        /* \"#utility.yul\":9497:9722   */\n    tag_189:\n        /* \"#utility.yul\":9637:9671   */\n      0x446f6e6174696f6e20616d6f756e74206d757374206265206772656174657220\n        /* \"#utility.yul\":9633:9634   */\n      0x00\n        /* \"#utility.yul\":9625:9631   */\n      dup3\n        /* \"#utility.yul\":9621:9635   */\n      add\n        /* \"#utility.yul\":9614:9672   */\n      mstore\n        /* \"#utility.yul\":9706:9714   */\n      0x7468616e20300000000000000000000000000000000000000000000000000000\n        /* \"#utility.yul\":9701:9703   */\n      0x20\n        /* \"#utility.yul\":9693:9699   */\n      dup3\n        /* \"#utility.yul\":9689:9704   */\n      add\n        /* \"#utility.yul\":9682:9715   */\n      mstore\n        /* \"#utility.yul\":9497:9722   */\n      pop\n      jump\t// out\n        /* \"#utility.yul\":9728:10094   */\n    tag_190:\n        /* \"#utility.yul\":9870:9873   */\n      0x00\n        /* \"#utility.yul\":9891:9958   */\n      tag_285\n        /* \"#utility.yul\":9955:9957   */\n      0x26\n        /* \"#utility.yul\":9950:9953   */\n      dup4\n        /* \"#utility.yul\":9891:9958   */\n      tag_182\n      jump\t// in\n    tag_285:\n        /* \"#utility.yul\":9884:9958   */\n      swap2\n      pop\n        /* \"#utility.yul\":9967:10060   */\n      tag_286\n        /* \"#utility.yul\":10056:10059   */\n      dup3\n        /* \"#utility.yul\":9967:10060   */\n      tag_189\n      jump\t// in\n    tag_286:\n        /* \"#utility.yul\":10085:10087   */\n      0x40\n        /* \"#utility.yul\":10080:10083   */\n      dup3\n        /* \"#utility.yul\":10076:10088   */\n      add\n        /* \"#utility.yul\":10069:10088   */\n      swap1\n      pop\n        /* \"#utility.yul\":9728:10094   */\n      swap2\n      swap1\n      pop\n      jump\t// out\n        /* \"#utility.yul\":10100:10519   */\n    tag_150:\n        /* \"#utility.yul\":10266:10270   */\n      0x00\n        /* \"#utility.yul\":10304:10306   */\n      0x20\n        /* \"#utility.yul\":10293:10302   */\n      dup3\n        /* \"#utility.yul\":10289:10307   */\n      add\n        /* \"#utility.yul\":10281:10307   */\n      swap1\n      pop\n        /* \"#utility.yul\":10353:10362   */\n      dup2\n        /* \"#utility.yul\":10347:10351   */\n      dup2\n        /* \"#utility.yul\":10343:10363   */\n      sub\n        /* \"#utility.yul\":10339:10340   */\n      0x00\n        /* \"#utility.yul\":10328:10337   */\n      dup4\n        /* \"#utility.yul\":10324:10341   */\n      add\n        /* \"#utility.yul\":10317:10364   */\n      mstore\n        /* \"#utility.yul\":10381:10512   */\n      tag_288\n        /* \"#utility.yul\":10507:10511   */\n      dup2\n        /* \"#utility.yul\":10381:10512   */\n      tag_190\n      jump\t// in\n    tag_288:\n        /* \"#utility.yul\":10373:10512   */\n      swap1\n      pop\n        /* \"#utility.yul\":10100:10519   */\n      swap2\n      swap1\n      pop\n      jump\t// out\n        /* \"#utility.yul\":10525:10705   */\n    tag_191:\n        /* \"#utility.yul\":10573:10650   */\n      0x4e487b7100000000000000000000000000000000000000000000000000000000\n        /* \"#utility.yul\":10570:10571   */\n      0x00\n        /* \"#utility.yul\":10563:10651   */\n      mstore\n        /* \"#utility.yul\":10670:10674   */\n      0x11\n        /* \"#utility.yul\":10667:10668   */\n      0x04\n        /* \"#utility.yul\":10660:10675   */\n      mstore\n        /* \"#utility.yul\":10694:10698   */\n      0x24\n        /* \"#utility.yul\":10691:10692   */\n      0x00\n        /* \"#utility.yul\":10684:10699   */\n      revert\n        /* \"#utility.yul\":10711:10902   */\n    tag_154:\n        /* \"#utility.yul\":10751:10754   */\n      0x00\n        /* \"#utility.yul\":10770:10790   */\n      tag_291\n        /* \"#utility.yul\":10788:10789   */\n      dup3\n        /* \"#utility.yul\":10770:10790   */\n      tag_156\n      jump\t// in\n    tag_291:\n        /* \"#utility.yul\":10765:10790   */\n      swap2\n      pop\n        /* \"#utility.yul\":10804:10824   */\n      tag_292\n        /* \"#utility.yul\":10822:10823   */\n      dup4\n        /* \"#utility.yul\":10804:10824   */\n      tag_156\n      jump\t// in\n    tag_292:\n        /* \"#utility.yul\":10799:10824   */\n      swap3\n      pop\n        /* \"#utility.yul\":10847:10848   */\n      dup3\n        /* \"#utility.yul\":10844:10845   */\n      dup3\n        /* \"#utility.yul\":10840:10849   */\n      add\n        /* \"#utility.yul\":10833:10849   */\n      swap1\n      pop\n        /* \"#utility.yul\":10868:10871   */\n      dup1\n        /* \"#utility.yul\":10865:10866   */\n      dup3\n        /* \"#utility.yul\":10862:10872   */\n      gt\n        /* \"#utility.yul\":10859:10895   */\n      iszero\n      tag_293\n      jumpi\n        /* \"#utility.yul\":10875:10893   */\n      tag_294\n      tag_191\n      jump\t// in\n    tag_294:\n        /* \"#utility.yul\":10859:10895   */\n    tag_293:\n        /* \"#utility.yul\":10711:10902   */\n      swap3\n      swap2\n      pop\n      pop\n      jump\t// out\n\n    auxdata: 0xa2646970667358221220f798f73a77e063cfda2a1e5bc1cd32b318307c0a98ee14900b73c3b2c55f932364736f6c634300081e0033\n}\n",
				"bytecode": {
					"linkReferences": {},
					"object": "6080604052348015600e575f5ffd5b50335f5f6101000a81548173ffffffffffffffffffffffffffffffffffffffff021916908373ffffffffffffffffffffffffffffffffffffffff16021790555042600181905550624f1a00426062919060a2565b60028190555060ce565b5f819050919050565b7f4e487b71000000000000000000000000000000000000000000000000000000005f52601160045260245ffd5b5f60aa82606c565b915060b383606c565b925082820190508082111560c85760c76075565b5b92915050565b6110df806100db5f395ff3fe608060405260043610610090575f3560e01c80634abfa163116100585780634abfa1631461016557806378e97925146101a15780638da5cb5b146101cb578063cc6cb19a146101f5578063ed88c68e1461023157610090565b806312065fe0146100945780632d1e2518146100be5780633197cbb6146100e95780633ccfd60b14610113578063410a1d3214610129575b5f5ffd5b34801561009f575f5ffd5b506100a861023b565b6040516100b59190610b6a565b60405180910390f35b3480156100c9575f5ffd5b506100d2610242565b6040516100e0929190610cfd565b60405180910390f35b3480156100f4575f5ffd5b506100fd610730565b60405161010a9190610b6a565b60405180910390f35b34801561011e575f5ffd5b50610127610736565b005b348015610134575f5ffd5b5061014f600480360381019061014a9190610d52565b610871565b60405161015c9190610b6a565b60405180910390f35b348015610170575f5ffd5b5061018b60048036038101906101869190610da7565b6108b7565b6040516101989190610de1565b60405180910390f35b3480156101ac575f5ffd5b506101b56108f2565b6040516101c29190610b6a565b60405180910390f35b3480156101d6575f5ffd5b506101df6108f8565b6040516101ec9190610de1565b60405180910390f35b348015610200575f5ffd5b5061021b60048036038101906102169190610d52565b61091c565b6040516102289190610b6a565b60405180910390f35b610239610931565b005b5f47905090565b61024a610b0e565b610252610b30565b61025a610b30565b610262610b0e565b5f5f90505b600480549050811015610723575f60035f6004848154811061028c5761028b610dfa565b5b905f5260205f20015f9054906101000a900473ffffffffffffffffffffffffffffffffffffffff1673ffffffffffffffffffffffffffffffffffffffff1673ffffffffffffffffffffffffffffffffffffffff1681526020019081526020015f20549050835f6003811061030357610302610dfa565b5b60200201518111156104e9578360016003811061032357610322610dfa565b5b60200201518460026003811061033c5761033b610dfa565b5b6020020181815250508260016003811061035957610358610dfa565b5b60200201518360026003811061037257610371610dfa565b5b602002019073ffffffffffffffffffffffffffffffffffffffff16908173ffffffffffffffffffffffffffffffffffffffff1681525050835f600381106103bc576103bb610dfa565b5b6020020151846001600381106103d5576103d4610dfa565b5b602002018181525050825f600381106103f1576103f0610dfa565b5b60200201518360016003811061040a57610409610dfa565b5b602002019073ffffffffffffffffffffffffffffffffffffffff16908173ffffffffffffffffffffffffffffffffffffffff168152505080845f6003811061045557610454610dfa565b5b6020020181815250506004828154811061047257610471610dfa565b5b905f5260205f20015f9054906101000a900473ffffffffffffffffffffffffffffffffffffffff16835f600381106104ad576104ac610dfa565b5b602002019073ffffffffffffffffffffffffffffffffffffffff16908173ffffffffffffffffffffffffffffffffffffffff1681525050610715565b836001600381106104fd576104fc610dfa565b5b602002015181111561064d578360016003811061051d5761051c610dfa565b5b60200201518460026003811061053657610535610dfa565b5b6020020181815250508260016003811061055357610552610dfa565b5b60200201518360026003811061056c5761056b610dfa565b5b602002019073ffffffffffffffffffffffffffffffffffffffff16908173ffffffffffffffffffffffffffffffffffffffff168152505080846001600381106105b8576105b7610dfa565b5b602002018181525050600482815481106105d5576105d4610dfa565b5b905f5260205f20015f9054906101000a900473ffffffffffffffffffffffffffffffffffffffff168360016003811061061157610610610dfa565b5b602002019073ffffffffffffffffffffffffffffffffffffffff16908173ffffffffffffffffffffffffffffffffffffffff1681525050610714565b8360026003811061066157610660610dfa565b5b602002015181111561071357808460026003811061068257610681610dfa565b5b6020020181815250506004828154811061069f5761069e610dfa565b5b905f5260205f20015f9054906101000a900473ffffffffffffffffffffffffffffffffffffffff16836002600381106106db576106da610dfa565b5b602002019073ffffffffffffffffffffffffffffffffffffffff16908173ffffffffffffffffffffffffffffffffffffffff16815250505b5b5b508080600101915050610267565b5080829350935050509091565b60025481565b5f5f9054906101000a900473ffffffffffffffffffffffffffffffffffffffff1673ffffffffffffffffffffffffffffffffffffffff163373ffffffffffffffffffffffffffffffffffffffff16146107c4576040517f08c379a00000000000000000000000000000000000000000000000000000000081526004016107bb90610ea7565b60405180910390fd5b5f4790505f811161080a576040517f08c379a000000000000000000000000000000000000000000000000000000000815260040161080190610f0f565b60405180910390fd5b5f5f9054906101000a900473ffffffffffffffffffffffffffffffffffffffff1673ffffffffffffffffffffffffffffffffffffffff166108fc8290811502906040515f60405180830381858888f1935050505015801561086d573d5f5f3e3d5ffd5b5050565b5f60035f8373ffffffffffffffffffffffffffffffffffffffff1673ffffffffffffffffffffffffffffffffffffffff1681526020019081526020015f20549050919050565b600481815481106108c6575f80fd5b905f5260205f20015f915054906101000a900473ffffffffffffffffffffffffffffffffffffffff1681565b60015481565b5f5f9054906101000a900473ffffffffffffffffffffffffffffffffffffffff1681565b6003602052805f5260405f205f915090505481565b600154421015801561094557506002544211155b610984576040517f08c379a000000000000000000000000000000000000000000000000000000000815260040161097b90610f9d565b60405180910390fd5b5f34116109c6576040517f08c379a00000000000000000000000000000000000000000000000000000000081526004016109bd9061102b565b60405180910390fd5b5f60035f3373ffffffffffffffffffffffffffffffffffffffff1673ffffffffffffffffffffffffffffffffffffffff1681526020019081526020015f205403610a6b57600433908060018154018082558091505060019003905f5260205f20015f9091909190916101000a81548173ffffffffffffffffffffffffffffffffffffffff021916908373ffffffffffffffffffffffffffffffffffffffff1602179055505b3460035f3373ffffffffffffffffffffffffffffffffffffffff1673ffffffffffffffffffffffffffffffffffffffff1681526020019081526020015f205f828254610ab79190611076565b925050819055503373ffffffffffffffffffffffffffffffffffffffff167f5d8bc849764969eb1bcc6d0a2f55999d0167c1ccec240a4f39cf664ca9c4148e34604051610b049190610b6a565b60405180910390a2565b6040518060600160405280600390602082028036833780820191505090505090565b6040518060600160405280600390602082028036833780820191505090505090565b5f819050919050565b610b6481610b52565b82525050565b5f602082019050610b7d5f830184610b5b565b92915050565b5f60039050919050565b5f81905092915050565b5f819050919050565b5f73ffffffffffffffffffffffffffffffffffffffff82169050919050565b5f610bc982610ba0565b9050919050565b610bd981610bbf565b82525050565b5f610bea8383610bd0565b60208301905092915050565b5f602082019050919050565b610c0b81610b83565b610c158184610b8d565b9250610c2082610b97565b805f5b83811015610c50578151610c378782610bdf565b9650610c4283610bf6565b925050600181019050610c23565b505050505050565b5f60039050919050565b5f81905092915050565b5f819050919050565b610c7e81610b52565b82525050565b5f610c8f8383610c75565b60208301905092915050565b5f602082019050919050565b610cb081610c58565b610cba8184610c62565b9250610cc582610c6c565b805f5b83811015610cf5578151610cdc8782610c84565b9650610ce783610c9b565b925050600181019050610cc8565b505050505050565b5f60c082019050610d105f830185610c02565b610d1d6060830184610ca7565b9392505050565b5f5ffd5b610d3181610bbf565b8114610d3b575f5ffd5b50565b5f81359050610d4c81610d28565b92915050565b5f60208284031215610d6757610d66610d24565b5b5f610d7484828501610d3e565b91505092915050565b610d8681610b52565b8114610d90575f5ffd5b50565b5f81359050610da181610d7d565b92915050565b5f60208284031215610dbc57610dbb610d24565b5b5f610dc984828501610d93565b91505092915050565b610ddb81610bbf565b82525050565b5f602082019050610df45f830184610dd2565b92915050565b7f4e487b71000000000000000000000000000000000000000000000000000000005f52603260045260245ffd5b5f82825260208201905092915050565b7f4f6e6c79206f776e65722063616e2063616c6c20746869732066756e6374696f5f8201527f6e00000000000000000000000000000000000000000000000000000000000000602082015250565b5f610e91602183610e27565b9150610e9c82610e37565b604082019050919050565b5f6020820190508181035f830152610ebe81610e85565b9050919050565b7f4e6f2066756e647320746f2077697468647261770000000000000000000000005f82015250565b5f610ef9601483610e27565b9150610f0482610ec5565b602082019050919050565b5f6020820190508181035f830152610f2681610eed565b9050919050565b7f4e6f742077697468696e2074686520646f6e6174696f6e2074696d65206672615f8201527f6d65000000000000000000000000000000000000000000000000000000000000602082015250565b5f610f87602283610e27565b9150610f9282610f2d565b604082019050919050565b5f6020820190508181035f830152610fb481610f7b565b9050919050565b7f446f6e6174696f6e20616d6f756e74206d7573742062652067726561746572205f8201527f7468616e20300000000000000000000000000000000000000000000000000000602082015250565b5f611015602683610e27565b915061102082610fbb565b604082019050919050565b5f6020820190508181035f83015261104281611009565b9050919050565b7f4e487b71000000000000000000000000000000000000000000000000000000005f52601160045260245ffd5b5f61108082610b52565b915061108b83610b52565b92508282019050808211156110a3576110a2611049565b5b9291505056fea2646970667358221220f798f73a77e063cfda2a1e5bc1cd32b318307c0a98ee14900b73c3b2c55f932364736f6c634300081e0033",
					"opcodes": "PUSH1 0x80 PUSH1 0x40 MSTORE CALLVALUE DUP1 ISZERO PUSH1 0xE JUMPI PUSH0 PUSH0 REVERT JUMPDEST POP CALLER PUSH0 PUSH0 PUSH2 0x100 EXP DUP2 SLOAD DUP2 PUSH20 0xFFFFFFFFFFFFFFFFFFFFFFFFFFFFFFFFFFFFFFFF MUL NOT AND SWAP1 DUP4 PUSH20 0xFFFFFFFFFFFFFFFFFFFFFFFFFFFFFFFFFFFFFFFF AND MUL OR SWAP1 SSTORE POP TIMESTAMP PUSH1 0x1 DUP2 SWAP1 SSTORE POP PUSH3 0x4F1A00 TIMESTAMP PUSH1 0x62 SWAP2 SWAP1 PUSH1 0xA2 JUMP JUMPDEST PUSH1 0x2 DUP2 SWAP1 SSTORE POP PUSH1 0xCE JUMP JUMPDEST PUSH0 DUP2 SWAP1 POP SWAP2 SWAP1 POP JUMP JUMPDEST PUSH32 0x4E487B7100000000000000000000000000000000000000000000000000000000 PUSH0 MSTORE PUSH1 0x11 PUSH1 0x4 MSTORE PUSH1 0x24 PUSH0 REVERT JUMPDEST PUSH0 PUSH1 0xAA DUP3 PUSH1 0x6C JUMP JUMPDEST SWAP2 POP PUSH1 0xB3 DUP4 PUSH1 0x6C JUMP JUMPDEST SWAP3 POP DUP3 DUP3 ADD SWAP1 POP DUP1 DUP3 GT ISZERO PUSH1 0xC8 JUMPI PUSH1 0xC7 PUSH1 0x75 JUMP JUMPDEST JUMPDEST SWAP3 SWAP2 POP POP JUMP JUMPDEST PUSH2 0x10DF DUP1 PUSH2 0xDB PUSH0 CODECOPY PUSH0 RETURN INVALID PUSH1 0x80 PUSH1 0x40 MSTORE PUSH1 0x4 CALLDATASIZE LT PUSH2 0x90 JUMPI PUSH0 CALLDATALOAD PUSH1 0xE0 SHR DUP1 PUSH4 0x4ABFA163 GT PUSH2 0x58 JUMPI DUP1 PUSH4 0x4ABFA163 EQ PUSH2 0x165 JUMPI DUP1 PUSH4 0x78E97925 EQ PUSH2 0x1A1 JUMPI DUP1 PUSH4 0x8DA5CB5B EQ PUSH2 0x1CB JUMPI DUP1 PUSH4 0xCC6CB19A EQ PUSH2 0x1F5 JUMPI DUP1 PUSH4 0xED88C68E EQ PUSH2 0x231 JUMPI PUSH2 0x90 JUMP JUMPDEST DUP1 PUSH4 0x12065FE0 EQ PUSH2 0x94 JUMPI DUP1 PUSH4 0x2D1E2518 EQ PUSH2 0xBE JUMPI DUP1 PUSH4 0x3197CBB6 EQ PUSH2 0xE9 JUMPI DUP1 PUSH4 0x3CCFD60B EQ PUSH2 0x113 JUMPI DUP1 PUSH4 0x410A1D32 EQ PUSH2 0x129 JUMPI JUMPDEST PUSH0 PUSH0 REVERT JUMPDEST CALLVALUE DUP1 ISZERO PUSH2 0x9F JUMPI PUSH0 PUSH0 REVERT JUMPDEST POP PUSH2 0xA8 PUSH2 0x23B JUMP JUMPDEST PUSH1 0x40 MLOAD PUSH2 0xB5 SWAP2 SWAP1 PUSH2 0xB6A JUMP JUMPDEST PUSH1 0x40 MLOAD DUP1 SWAP2 SUB SWAP1 RETURN JUMPDEST CALLVALUE DUP1 ISZERO PUSH2 0xC9 JUMPI PUSH0 PUSH0 REVERT JUMPDEST POP PUSH2 0xD2 PUSH2 0x242 JUMP JUMPDEST PUSH1 0x40 MLOAD PUSH2 0xE0 SWAP3 SWAP2 SWAP1 PUSH2 0xCFD JUMP JUMPDEST PUSH1 0x40 MLOAD DUP1 SWAP2 SUB SWAP1 RETURN JUMPDEST CALLVALUE DUP1 ISZERO PUSH2 0xF4 JUMPI PUSH0 PUSH0 REVERT JUMPDEST POP PUSH2 0xFD PUSH2 0x730 JUMP JUMPDEST PUSH1 0x40 MLOAD PUSH2 0x10A SWAP2 SWAP1 PUSH2 0xB6A JUMP JUMPDEST PUSH1 0x40 MLOAD DUP1 SWAP2 SUB SWAP1 RETURN JUMPDEST CALLVALUE DUP1 ISZERO PUSH2 0x11E JUMPI PUSH0 PUSH0 REVERT JUMPDEST POP PUSH2 0x127 PUSH2 0x736 JUMP JUMPDEST STOP JUMPDEST CALLVALUE DUP1 ISZERO PUSH2 0x134 JUMPI PUSH0 PUSH0 REVERT JUMPDEST POP PUSH2 0x14F PUSH1 0x4 DUP1 CALLDATASIZE SUB DUP2 ADD SWAP1 PUSH2 0x14A SWAP2 SWAP1 PUSH2 0xD52 JUMP JUMPDEST PUSH2 0x871 JUMP JUMPDEST PUSH1 0x40 MLOAD PUSH2 0x15C SWAP2 SWAP1 PUSH2 0xB6A JUMP JUMPDEST PUSH1 0x40 MLOAD DUP1 SWAP2 SUB SWAP1 RETURN JUMPDEST CALLVALUE DUP1 ISZERO PUSH2 0x170 JUMPI PUSH0 PUSH0 REVERT JUMPDEST POP PUSH2 0x18B PUSH1 0x4 DUP1 CALLDATASIZE SUB DUP2 ADD SWAP1 PUSH2 0x186 SWAP2 SWAP1 PUSH2 0xDA7 JUMP JUMPDEST PUSH2 0x8B7 JUMP JUMPDEST PUSH1 0x40 MLOAD PUSH2 0x198 SWAP2 SWAP1 PUSH2 0xDE1 JUMP JUMPDEST PUSH1 0x40 MLOAD DUP1 SWAP2 SUB SWAP1 RETURN JUMPDEST CALLVALUE DUP1 ISZERO PUSH2 0x1AC JUMPI PUSH0 PUSH0 REVERT JUMPDEST POP PUSH2 0x1B5 PUSH2 0x8F2 JUMP JUMPDEST PUSH1 0x40 MLOAD PUSH2 0x1C2 SWAP2 SWAP1 PUSH2 0xB6A JUMP JUMPDEST PUSH1 0x40 MLOAD DUP1 SWAP2 SUB SWAP1 RETURN JUMPDEST CALLVALUE DUP1 ISZERO PUSH2 0x1D6 JUMPI PUSH0 PUSH0 REVERT JUMPDEST POP PUSH2 0x1DF PUSH2 0x8F8 JUMP JUMPDEST PUSH1 0x40 MLOAD PUSH2 0x1EC SWAP2 SWAP1 PUSH2 0xDE1 JUMP JUMPDEST PUSH1 0x40 MLOAD DUP1 SWAP2 SUB SWAP1 RETURN JUMPDEST CALLVALUE DUP1 ISZERO PUSH2 0x200 JUMPI PUSH0 PUSH0 REVERT JUMPDEST POP PUSH2 0x21B PUSH1 0x4 DUP1 CALLDATASIZE SUB DUP2 ADD SWAP1 PUSH2 0x216 SWAP2 SWAP1 PUSH2 0xD52 JUMP JUMPDEST PUSH2 0x91C JUMP JUMPDEST PUSH1 0x40 MLOAD PUSH2 0x228 SWAP2 SWAP1 PUSH2 0xB6A JUMP JUMPDEST PUSH1 0x40 MLOAD DUP1 SWAP2 SUB SWAP1 RETURN JUMPDEST PUSH2 0x239 PUSH2 0x931 JUMP JUMPDEST STOP JUMPDEST PUSH0 SELFBALANCE SWAP1 POP SWAP1 JUMP JUMPDEST PUSH2 0x24A PUSH2 0xB0E JUMP JUMPDEST PUSH2 0x252 PUSH2 0xB30 JUMP JUMPDEST PUSH2 0x25A PUSH2 0xB30 JUMP JUMPDEST PUSH2 0x262 PUSH2 0xB0E JUMP JUMPDEST PUSH0 PUSH0 SWAP1 POP JUMPDEST PUSH1 0x4 DUP1 SLOAD SWAP1 POP DUP2 LT ISZERO PUSH2 0x723 JUMPI PUSH0 PUSH1 0x3 PUSH0 PUSH1 0x4 DUP5 DUP2 SLOAD DUP2 LT PUSH2 0x28C JUMPI PUSH2 0x28B PUSH2 0xDFA JUMP JUMPDEST JUMPDEST SWAP1 PUSH0 MSTORE PUSH1 0x20 PUSH0 KECCAK256 ADD PUSH0 SWAP1 SLOAD SWAP1 PUSH2 0x100 EXP SWAP1 DIV PUSH20 0xFFFFFFFFFFFFFFFFFFFFFFFFFFFFFFFFFFFFFFFF AND PUSH20 0xFFFFFFFFFFFFFFFFFFFFFFFFFFFFFFFFFFFFFFFF AND PUSH20 0xFFFFFFFFFFFFFFFFFFFFFFFFFFFFFFFFFFFFFFFF AND DUP2 MSTORE PUSH1 0x20 ADD SWAP1 DUP2 MSTORE PUSH1 0x20 ADD PUSH0 KECCAK256 SLOAD SWAP1 POP DUP4 PUSH0 PUSH1 0x3 DUP2 LT PUSH2 0x303 JUMPI PUSH2 0x302 PUSH2 0xDFA JUMP JUMPDEST JUMPDEST PUSH1 0x20 MUL ADD MLOAD DUP2 GT ISZERO PUSH2 0x4E9 JUMPI DUP4 PUSH1 0x1 PUSH1 0x3 DUP2 LT PUSH2 0x323 JUMPI PUSH2 0x322 PUSH2 0xDFA JUMP JUMPDEST JUMPDEST PUSH1 0x20 MUL ADD MLOAD DUP5 PUSH1 0x2 PUSH1 0x3 DUP2 LT PUSH2 0x33C JUMPI PUSH2 0x33B PUSH2 0xDFA JUMP JUMPDEST JUMPDEST PUSH1 0x20 MUL ADD DUP2 DUP2 MSTORE POP POP DUP3 PUSH1 0x1 PUSH1 0x3 DUP2 LT PUSH2 0x359 JUMPI PUSH2 0x358 PUSH2 0xDFA JUMP JUMPDEST JUMPDEST PUSH1 0x20 MUL ADD MLOAD DUP4 PUSH1 0x2 PUSH1 0x3 DUP2 LT PUSH2 0x372 JUMPI PUSH2 0x371 PUSH2 0xDFA JUMP JUMPDEST JUMPDEST PUSH1 0x20 MUL ADD SWAP1 PUSH20 0xFFFFFFFFFFFFFFFFFFFFFFFFFFFFFFFFFFFFFFFF AND SWAP1 DUP2 PUSH20 0xFFFFFFFFFFFFFFFFFFFFFFFFFFFFFFFFFFFFFFFF AND DUP2 MSTORE POP POP DUP4 PUSH0 PUSH1 0x3 DUP2 LT PUSH2 0x3BC JUMPI PUSH2 0x3BB PUSH2 0xDFA JUMP JUMPDEST JUMPDEST PUSH1 0x20 MUL ADD MLOAD DUP5 PUSH1 0x1 PUSH1 0x3 DUP2 LT PUSH2 0x3D5 JUMPI PUSH2 0x3D4 PUSH2 0xDFA JUMP JUMPDEST JUMPDEST PUSH1 0x20 MUL ADD DUP2 DUP2 MSTORE POP POP DUP3 PUSH0 PUSH1 0x3 DUP2 LT PUSH2 0x3F1 JUMPI PUSH2 0x3F0 PUSH2 0xDFA JUMP JUMPDEST JUMPDEST PUSH1 0x20 MUL ADD MLOAD DUP4 PUSH1 0x1 PUSH1 0x3 DUP2 LT PUSH2 0x40A JUMPI PUSH2 0x409 PUSH2 0xDFA JUMP JUMPDEST JUMPDEST PUSH1 0x20 MUL ADD SWAP1 PUSH20 0xFFFFFFFFFFFFFFFFFFFFFFFFFFFFFFFFFFFFFFFF AND SWAP1 DUP2 PUSH20 0xFFFFFFFFFFFFFFFFFFFFFFFFFFFFFFFFFFFFFFFF AND DUP2 MSTORE POP POP DUP1 DUP5 PUSH0 PUSH1 0x3 DUP2 LT PUSH2 0x455 JUMPI PUSH2 0x454 PUSH2 0xDFA JUMP JUMPDEST JUMPDEST PUSH1 0x20 MUL ADD DUP2 DUP2 MSTORE POP POP PUSH1 0x4 DUP3 DUP2 SLOAD DUP2 LT PUSH2 0x472 JUMPI PUSH2 0x471 PUSH2 0xDFA JUMP JUMPDEST JUMPDEST SWAP1 PUSH0 MSTORE PUSH1 0x20 PUSH0 KECCAK256 ADD PUSH0 SWAP1 SLOAD SWAP1 PUSH2 0x100 EXP SWAP1 DIV PUSH20 0xFFFFFFFFFFFFFFFFFFFFFFFFFFFFFFFFFFFFFFFF AND DUP4 PUSH0 PUSH1 0x3 DUP2 LT PUSH2 0x4AD JUMPI PUSH2 0x4AC PUSH2 0xDFA JUMP JUMPDEST JUMPDEST PUSH1 0x20 MUL ADD SWAP1 PUSH20 0xFFFFFFFFFFFFFFFFFFFFFFFFFFFFFFFFFFFFFFFF AND SWAP1 DUP2 PUSH20 0xFFFFFFFFFFFFFFFFFFFFFFFFFFFFFFFFFFFFFFFF AND DUP2 MSTORE POP POP PUSH2 0x715 JUMP JUMPDEST DUP4 PUSH1 0x1 PUSH1 0x3 DUP2 LT PUSH2 0x4FD JUMPI PUSH2 0x4FC PUSH2 0xDFA JUMP JUMPDEST JUMPDEST PUSH1 0x20 MUL ADD MLOAD DUP2 GT ISZERO PUSH2 0x64D JUMPI DUP4 PUSH1 0x1 PUSH1 0x3 DUP2 LT PUSH2 0x51D JUMPI PUSH2 0x51C PUSH2 0xDFA JUMP JUMPDEST JUMPDEST PUSH1 0x20 MUL ADD MLOAD DUP5 PUSH1 0x2 PUSH1 0x3 DUP2 LT PUSH2 0x536 JUMPI PUSH2 0x535 PUSH2 0xDFA JUMP JUMPDEST JUMPDEST PUSH1 0x20 MUL ADD DUP2 DUP2 MSTORE POP POP DUP3 PUSH1 0x1 PUSH1 0x3 DUP2 LT PUSH2 0x553 JUMPI PUSH2 0x552 PUSH2 0xDFA JUMP JUMPDEST JUMPDEST PUSH1 0x20 MUL ADD MLOAD DUP4 PUSH1 0x2 PUSH1 0x3 DUP2 LT PUSH2 0x56C JUMPI PUSH2 0x56B PUSH2 0xDFA JUMP JUMPDEST JUMPDEST PUSH1 0x20 MUL ADD SWAP1 PUSH20 0xFFFFFFFFFFFFFFFFFFFFFFFFFFFFFFFFFFFFFFFF AND SWAP1 DUP2 PUSH20 0xFFFFFFFFFFFFFFFFFFFFFFFFFFFFFFFFFFFFFFFF AND DUP2 MSTORE POP POP DUP1 DUP5 PUSH1 0x1 PUSH1 0x3 DUP2 LT PUSH2 0x5B8 JUMPI PUSH2 0x5B7 PUSH2 0xDFA JUMP JUMPDEST JUMPDEST PUSH1 0x20 MUL ADD DUP2 DUP2 MSTORE POP POP PUSH1 0x4 DUP3 DUP2 SLOAD DUP2 LT PUSH2 0x5D5 JUMPI PUSH2 0x5D4 PUSH2 0xDFA JUMP JUMPDEST JUMPDEST SWAP1 PUSH0 MSTORE PUSH1 0x20 PUSH0 KECCAK256 ADD PUSH0 SWAP1 SLOAD SWAP1 PUSH2 0x100 EXP SWAP1 DIV PUSH20 0xFFFFFFFFFFFFFFFFFFFFFFFFFFFFFFFFFFFFFFFF AND DUP4 PUSH1 0x1 PUSH1 0x3 DUP2 LT PUSH2 0x611 JUMPI PUSH2 0x610 PUSH2 0xDFA JUMP JUMPDEST JUMPDEST PUSH1 0x20 MUL ADD SWAP1 PUSH20 0xFFFFFFFFFFFFFFFFFFFFFFFFFFFFFFFFFFFFFFFF AND SWAP1 DUP2 PUSH20 0xFFFFFFFFFFFFFFFFFFFFFFFFFFFFFFFFFFFFFFFF AND DUP2 MSTORE POP POP PUSH2 0x714 JUMP JUMPDEST DUP4 PUSH1 0x2 PUSH1 0x3 DUP2 LT PUSH2 0x661 JUMPI PUSH2 0x660 PUSH2 0xDFA JUMP JUMPDEST JUMPDEST PUSH1 0x20 MUL ADD MLOAD DUP2 GT ISZERO PUSH2 0x713 JUMPI DUP1 DUP5 PUSH1 0x2 PUSH1 0x3 DUP2 LT PUSH2 0x682 JUMPI PUSH2 0x681 PUSH2 0xDFA JUMP JUMPDEST JUMPDEST PUSH1 0x20 MUL ADD DUP2 DUP2 MSTORE POP POP PUSH1 0x4 DUP3 DUP2 SLOAD DUP2 LT PUSH2 0x69F JUMPI PUSH2 0x69E PUSH2 0xDFA JUMP JUMPDEST JUMPDEST SWAP1 PUSH0 MSTORE PUSH1 0x20 PUSH0 KECCAK256 ADD PUSH0 SWAP1 SLOAD SWAP1 PUSH2 0x100 EXP SWAP1 DIV PUSH20 0xFFFFFFFFFFFFFFFFFFFFFFFFFFFFFFFFFFFFFFFF AND DUP4 PUSH1 0x2 PUSH1 0x3 DUP2 LT PUSH2 0x6DB JUMPI PUSH2 0x6DA PUSH2 0xDFA JUMP JUMPDEST JUMPDEST PUSH1 0x20 MUL ADD SWAP1 PUSH20 0xFFFFFFFFFFFFFFFFFFFFFFFFFFFFFFFFFFFFFFFF AND SWAP1 DUP2 PUSH20 0xFFFFFFFFFFFFFFFFFFFFFFFFFFFFFFFFFFFFFFFF AND DUP2 MSTORE POP POP JUMPDEST JUMPDEST JUMPDEST POP DUP1 DUP1 PUSH1 0x1 ADD SWAP2 POP POP PUSH2 0x267 JUMP JUMPDEST POP DUP1 DUP3 SWAP4 POP SWAP4 POP POP POP SWAP1 SWAP2 JUMP JUMPDEST PUSH1 0x2 SLOAD DUP2 JUMP JUMPDEST PUSH0 PUSH0 SWAP1 SLOAD SWAP1 PUSH2 0x100 EXP SWAP1 DIV PUSH20 0xFFFFFFFFFFFFFFFFFFFFFFFFFFFFFFFFFFFFFFFF AND PUSH20 0xFFFFFFFFFFFFFFFFFFFFFFFFFFFFFFFFFFFFFFFF AND CALLER PUSH20 0xFFFFFFFFFFFFFFFFFFFFFFFFFFFFFFFFFFFFFFFF AND EQ PUSH2 0x7C4 JUMPI PUSH1 0x40 MLOAD PUSH32 0x8C379A000000000000000000000000000000000000000000000000000000000 DUP2 MSTORE PUSH1 0x4 ADD PUSH2 0x7BB SWAP1 PUSH2 0xEA7 JUMP JUMPDEST PUSH1 0x40 MLOAD DUP1 SWAP2 SUB SWAP1 REVERT JUMPDEST PUSH0 SELFBALANCE SWAP1 POP PUSH0 DUP2 GT PUSH2 0x80A JUMPI PUSH1 0x40 MLOAD PUSH32 0x8C379A000000000000000000000000000000000000000000000000000000000 DUP2 MSTORE PUSH1 0x4 ADD PUSH2 0x801 SWAP1 PUSH2 0xF0F JUMP JUMPDEST PUSH1 0x40 MLOAD DUP1 SWAP2 SUB SWAP1 REVERT JUMPDEST PUSH0 PUSH0 SWAP1 SLOAD SWAP1 PUSH2 0x100 EXP SWAP1 DIV PUSH20 0xFFFFFFFFFFFFFFFFFFFFFFFFFFFFFFFFFFFFFFFF AND PUSH20 0xFFFFFFFFFFFFFFFFFFFFFFFFFFFFFFFFFFFFFFFF AND PUSH2 0x8FC DUP3 SWAP1 DUP2 ISZERO MUL SWAP1 PUSH1 0x40 MLOAD PUSH0 PUSH1 0x40 MLOAD DUP1 DUP4 SUB DUP2 DUP6 DUP9 DUP9 CALL SWAP4 POP POP POP POP ISZERO DUP1 ISZERO PUSH2 0x86D JUMPI RETURNDATASIZE PUSH0 PUSH0 RETURNDATACOPY RETURNDATASIZE PUSH0 REVERT JUMPDEST POP POP JUMP JUMPDEST PUSH0 PUSH1 0x3 PUSH0 DUP4 PUSH20 0xFFFFFFFFFFFFFFFFFFFFFFFFFFFFFFFFFFFFFFFF AND PUSH20 0xFFFFFFFFFFFFFFFFFFFFFFFFFFFFFFFFFFFFFFFF AND DUP2 MSTORE PUSH1 0x20 ADD SWAP1 DUP2 MSTORE PUSH1 0x20 ADD PUSH0 KECCAK256 SLOAD SWAP1 POP SWAP2 SWAP1 POP JUMP JUMPDEST PUSH1 0x4 DUP2 DUP2 SLOAD DUP2 LT PUSH2 0x8C6 JUMPI PUSH0 DUP1 REVERT JUMPDEST SWAP1 PUSH0 MSTORE PUSH1 0x20 PUSH0 KECCAK256 ADD PUSH0 SWAP2 POP SLOAD SWAP1 PUSH2 0x100 EXP SWAP1 DIV PUSH20 0xFFFFFFFFFFFFFFFFFFFFFFFFFFFFFFFFFFFFFFFF AND DUP2 JUMP JUMPDEST PUSH1 0x1 SLOAD DUP2 JUMP JUMPDEST PUSH0 PUSH0 SWAP1 SLOAD SWAP1 PUSH2 0x100 EXP SWAP1 DIV PUSH20 0xFFFFFFFFFFFFFFFFFFFFFFFFFFFFFFFFFFFFFFFF AND DUP2 JUMP JUMPDEST PUSH1 0x3 PUSH1 0x20 MSTORE DUP1 PUSH0 MSTORE PUSH1 0x40 PUSH0 KECCAK256 PUSH0 SWAP2 POP SWAP1 POP SLOAD DUP2 JUMP JUMPDEST PUSH1 0x1 SLOAD TIMESTAMP LT ISZERO DUP1 ISZERO PUSH2 0x945 JUMPI POP PUSH1 0x2 SLOAD TIMESTAMP GT ISZERO JUMPDEST PUSH2 0x984 JUMPI PUSH1 0x40 MLOAD PUSH32 0x8C379A000000000000000000000000000000000000000000000000000000000 DUP2 MSTORE PUSH1 0x4 ADD PUSH2 0x97B SWAP1 PUSH2 0xF9D JUMP JUMPDEST PUSH1 0x40 MLOAD DUP1 SWAP2 SUB SWAP1 REVERT JUMPDEST PUSH0 CALLVALUE GT PUSH2 0x9C6 JUMPI PUSH1 0x40 MLOAD PUSH32 0x8C379A000000000000000000000000000000000000000000000000000000000 DUP2 MSTORE PUSH1 0x4 ADD PUSH2 0x9BD SWAP1 PUSH2 0x102B JUMP JUMPDEST PUSH1 0x40 MLOAD DUP1 SWAP2 SUB SWAP1 REVERT JUMPDEST PUSH0 PUSH1 0x3 PUSH0 CALLER PUSH20 0xFFFFFFFFFFFFFFFFFFFFFFFFFFFFFFFFFFFFFFFF AND PUSH20 0xFFFFFFFFFFFFFFFFFFFFFFFFFFFFFFFFFFFFFFFF AND DUP2 MSTORE PUSH1 0x20 ADD SWAP1 DUP2 MSTORE PUSH1 0x20 ADD PUSH0 KECCAK256 SLOAD SUB PUSH2 0xA6B JUMPI PUSH1 0x4 CALLER SWAP1 DUP1 PUSH1 0x1 DUP2 SLOAD ADD DUP1 DUP3 SSTORE DUP1 SWAP2 POP POP PUSH1 0x1 SWAP1 SUB SWAP1 PUSH0 MSTORE PUSH1 0x20 PUSH0 KECCAK256 ADD PUSH0 SWAP1 SWAP2 SWAP1 SWAP2 SWAP1 SWAP2 PUSH2 0x100 EXP DUP2 SLOAD DUP2 PUSH20 0xFFFFFFFFFFFFFFFFFFFFFFFFFFFFFFFFFFFFFFFF MUL NOT AND SWAP1 DUP4 PUSH20 0xFFFFFFFFFFFFFFFFFFFFFFFFFFFFFFFFFFFFFFFF AND MUL OR SWAP1 SSTORE POP JUMPDEST CALLVALUE PUSH1 0x3 PUSH0 CALLER PUSH20 0xFFFFFFFFFFFFFFFFFFFFFFFFFFFFFFFFFFFFFFFF AND PUSH20 0xFFFFFFFFFFFFFFFFFFFFFFFFFFFFFFFFFFFFFFFF AND DUP2 MSTORE PUSH1 0x20 ADD SWAP1 DUP2 MSTORE PUSH1 0x20 ADD PUSH0 KECCAK256 PUSH0 DUP3 DUP3 SLOAD PUSH2 0xAB7 SWAP2 SWAP1 PUSH2 0x1076 JUMP JUMPDEST SWAP3 POP POP DUP2 SWAP1 SSTORE POP CALLER PUSH20 0xFFFFFFFFFFFFFFFFFFFFFFFFFFFFFFFFFFFFFFFF AND PUSH32 0x5D8BC849764969EB1BCC6D0A2F55999D0167C1CCEC240A4F39CF664CA9C4148E CALLVALUE PUSH1 0x40 MLOAD PUSH2 0xB04 SWAP2 SWAP1 PUSH2 0xB6A JUMP JUMPDEST PUSH1 0x40 MLOAD DUP1 SWAP2 SUB SWAP1 LOG2 JUMP JUMPDEST PUSH1 0x40 MLOAD DUP1 PUSH1 0x60 ADD PUSH1 0x40 MSTORE DUP1 PUSH1 0x3 SWAP1 PUSH1 0x20 DUP3 MUL DUP1 CALLDATASIZE DUP4 CALLDATACOPY DUP1 DUP3 ADD SWAP2 POP POP SWAP1 POP POP SWAP1 JUMP JUMPDEST PUSH1 0x40 MLOAD DUP1 PUSH1 0x60 ADD PUSH1 0x40 MSTORE DUP1 PUSH1 0x3 SWAP1 PUSH1 0x20 DUP3 MUL DUP1 CALLDATASIZE DUP4 CALLDATACOPY DUP1 DUP3 ADD SWAP2 POP POP SWAP1 POP POP SWAP1 JUMP JUMPDEST PUSH0 DUP2 SWAP1 POP SWAP2 SWAP1 POP JUMP JUMPDEST PUSH2 0xB64 DUP2 PUSH2 0xB52 JUMP JUMPDEST DUP3 MSTORE POP POP JUMP JUMPDEST PUSH0 PUSH1 0x20 DUP3 ADD SWAP1 POP PUSH2 0xB7D PUSH0 DUP4 ADD DUP5 PUSH2 0xB5B JUMP JUMPDEST SWAP3 SWAP2 POP POP JUMP JUMPDEST PUSH0 PUSH1 0x3 SWAP1 POP SWAP2 SWAP1 POP JUMP JUMPDEST PUSH0 DUP2 SWAP1 POP SWAP3 SWAP2 POP POP JUMP JUMPDEST PUSH0 DUP2 SWAP1 POP SWAP2 SWAP1 POP JUMP JUMPDEST PUSH0 PUSH20 0xFFFFFFFFFFFFFFFFFFFFFFFFFFFFFFFFFFFFFFFF DUP3 AND SWAP1 POP SWAP2 SWAP1 POP JUMP JUMPDEST PUSH0 PUSH2 0xBC9 DUP3 PUSH2 0xBA0 JUMP JUMPDEST SWAP1 POP SWAP2 SWAP1 POP JUMP JUMPDEST PUSH2 0xBD9 DUP2 PUSH2 0xBBF JUMP JUMPDEST DUP3 MSTORE POP POP JUMP JUMPDEST PUSH0 PUSH2 0xBEA DUP4 DUP4 PUSH2 0xBD0 JUMP JUMPDEST PUSH1 0x20 DUP4 ADD SWAP1 POP SWAP3 SWAP2 POP POP JUMP JUMPDEST PUSH0 PUSH1 0x20 DUP3 ADD SWAP1 POP SWAP2 SWAP1 POP JUMP JUMPDEST PUSH2 0xC0B DUP2 PUSH2 0xB83 JUMP JUMPDEST PUSH2 0xC15 DUP2 DUP5 PUSH2 0xB8D JUMP JUMPDEST SWAP3 POP PUSH2 0xC20 DUP3 PUSH2 0xB97 JUMP JUMPDEST DUP1 PUSH0 JUMPDEST DUP4 DUP2 LT ISZERO PUSH2 0xC50 JUMPI DUP2 MLOAD PUSH2 0xC37 DUP8 DUP3 PUSH2 0xBDF JUMP JUMPDEST SWAP7 POP PUSH2 0xC42 DUP4 PUSH2 0xBF6 JUMP JUMPDEST SWAP3 POP POP PUSH1 0x1 DUP2 ADD SWAP1 POP PUSH2 0xC23 JUMP JUMPDEST POP POP POP POP POP POP JUMP JUMPDEST PUSH0 PUSH1 0x3 SWAP1 POP SWAP2 SWAP1 POP JUMP JUMPDEST PUSH0 DUP2 SWAP1 POP SWAP3 SWAP2 POP POP JUMP JUMPDEST PUSH0 DUP2 SWAP1 POP SWAP2 SWAP1 POP JUMP JUMPDEST PUSH2 0xC7E DUP2 PUSH2 0xB52 JUMP JUMPDEST DUP3 MSTORE POP POP JUMP JUMPDEST PUSH0 PUSH2 0xC8F DUP4 DUP4 PUSH2 0xC75 JUMP JUMPDEST PUSH1 0x20 DUP4 ADD SWAP1 POP SWAP3 SWAP2 POP POP JUMP JUMPDEST PUSH0 PUSH1 0x20 DUP3 ADD SWAP1 POP SWAP2 SWAP1 POP JUMP JUMPDEST PUSH2 0xCB0 DUP2 PUSH2 0xC58 JUMP JUMPDEST PUSH2 0xCBA DUP2 DUP5 PUSH2 0xC62 JUMP JUMPDEST SWAP3 POP PUSH2 0xCC5 DUP3 PUSH2 0xC6C JUMP JUMPDEST DUP1 PUSH0 JUMPDEST DUP4 DUP2 LT ISZERO PUSH2 0xCF5 JUMPI DUP2 MLOAD PUSH2 0xCDC DUP8 DUP3 PUSH2 0xC84 JUMP JUMPDEST SWAP7 POP PUSH2 0xCE7 DUP4 PUSH2 0xC9B JUMP JUMPDEST SWAP3 POP POP PUSH1 0x1 DUP2 ADD SWAP1 POP PUSH2 0xCC8 JUMP JUMPDEST POP POP POP POP POP POP JUMP JUMPDEST PUSH0 PUSH1 0xC0 DUP3 ADD SWAP1 POP PUSH2 0xD10 PUSH0 DUP4 ADD DUP6 PUSH2 0xC02 JUMP JUMPDEST PUSH2 0xD1D PUSH1 0x60 DUP4 ADD DUP5 PUSH2 0xCA7 JUMP JUMPDEST SWAP4 SWAP3 POP POP POP JUMP JUMPDEST PUSH0 PUSH0 REVERT JUMPDEST PUSH2 0xD31 DUP2 PUSH2 0xBBF JUMP JUMPDEST DUP2 EQ PUSH2 0xD3B JUMPI PUSH0 PUSH0 REVERT JUMPDEST POP JUMP JUMPDEST PUSH0 DUP2 CALLDATALOAD SWAP1 POP PUSH2 0xD4C DUP2 PUSH2 0xD28 JUMP JUMPDEST SWAP3 SWAP2 POP POP JUMP JUMPDEST PUSH0 PUSH1 0x20 DUP3 DUP5 SUB SLT ISZERO PUSH2 0xD67 JUMPI PUSH2 0xD66 PUSH2 0xD24 JUMP JUMPDEST JUMPDEST PUSH0 PUSH2 0xD74 DUP5 DUP3 DUP6 ADD PUSH2 0xD3E JUMP JUMPDEST SWAP2 POP POP SWAP3 SWAP2 POP POP JUMP JUMPDEST PUSH2 0xD86 DUP2 PUSH2 0xB52 JUMP JUMPDEST DUP2 EQ PUSH2 0xD90 JUMPI PUSH0 PUSH0 REVERT JUMPDEST POP JUMP JUMPDEST PUSH0 DUP2 CALLDATALOAD SWAP1 POP PUSH2 0xDA1 DUP2 PUSH2 0xD7D JUMP JUMPDEST SWAP3 SWAP2 POP POP JUMP JUMPDEST PUSH0 PUSH1 0x20 DUP3 DUP5 SUB SLT ISZERO PUSH2 0xDBC JUMPI PUSH2 0xDBB PUSH2 0xD24 JUMP JUMPDEST JUMPDEST PUSH0 PUSH2 0xDC9 DUP5 DUP3 DUP6 ADD PUSH2 0xD93 JUMP JUMPDEST SWAP2 POP POP SWAP3 SWAP2 POP POP JUMP JUMPDEST PUSH2 0xDDB DUP2 PUSH2 0xBBF JUMP JUMPDEST DUP3 MSTORE POP POP JUMP JUMPDEST PUSH0 PUSH1 0x20 DUP3 ADD SWAP1 POP PUSH2 0xDF4 PUSH0 DUP4 ADD DUP5 PUSH2 0xDD2 JUMP JUMPDEST SWAP3 SWAP2 POP POP JUMP JUMPDEST PUSH32 0x4E487B7100000000000000000000000000000000000000000000000000000000 PUSH0 MSTORE PUSH1 0x32 PUSH1 0x4 MSTORE PUSH1 0x24 PUSH0 REVERT JUMPDEST PUSH0 DUP3 DUP3 MSTORE PUSH1 0x20 DUP3 ADD SWAP1 POP SWAP3 SWAP2 POP POP JUMP JUMPDEST PUSH32 0x4F6E6C79206F776E65722063616E2063616C6C20746869732066756E6374696F PUSH0 DUP3 ADD MSTORE PUSH32 0x6E00000000000000000000000000000000000000000000000000000000000000 PUSH1 0x20 DUP3 ADD MSTORE POP JUMP JUMPDEST PUSH0 PUSH2 0xE91 PUSH1 0x21 DUP4 PUSH2 0xE27 JUMP JUMPDEST SWAP2 POP PUSH2 0xE9C DUP3 PUSH2 0xE37 JUMP JUMPDEST PUSH1 0x40 DUP3 ADD SWAP1 POP SWAP2 SWAP1 POP JUMP JUMPDEST PUSH0 PUSH1 0x20 DUP3 ADD SWAP1 POP DUP2 DUP2 SUB PUSH0 DUP4 ADD MSTORE PUSH2 0xEBE DUP2 PUSH2 0xE85 JUMP JUMPDEST SWAP1 POP SWAP2 SWAP1 POP JUMP JUMPDEST PUSH32 0x4E6F2066756E647320746F207769746864726177000000000000000000000000 PUSH0 DUP3 ADD MSTORE POP JUMP JUMPDEST PUSH0 PUSH2 0xEF9 PUSH1 0x14 DUP4 PUSH2 0xE27 JUMP JUMPDEST SWAP2 POP PUSH2 0xF04 DUP3 PUSH2 0xEC5 JUMP JUMPDEST PUSH1 0x20 DUP3 ADD SWAP1 POP SWAP2 SWAP1 POP JUMP JUMPDEST PUSH0 PUSH1 0x20 DUP3 ADD SWAP1 POP DUP2 DUP2 SUB PUSH0 DUP4 ADD MSTORE PUSH2 0xF26 DUP2 PUSH2 0xEED JUMP JUMPDEST SWAP1 POP SWAP2 SWAP1 POP JUMP JUMPDEST PUSH32 0x4E6F742077697468696E2074686520646F6E6174696F6E2074696D6520667261 PUSH0 DUP3 ADD MSTORE PUSH32 0x6D65000000000000000000000000000000000000000000000000000000000000 PUSH1 0x20 DUP3 ADD MSTORE POP JUMP JUMPDEST PUSH0 PUSH2 0xF87 PUSH1 0x22 DUP4 PUSH2 0xE27 JUMP JUMPDEST SWAP2 POP PUSH2 0xF92 DUP3 PUSH2 0xF2D JUMP JUMPDEST PUSH1 0x40 DUP3 ADD SWAP1 POP SWAP2 SWAP1 POP JUMP JUMPDEST PUSH0 PUSH1 0x20 DUP3 ADD SWAP1 POP DUP2 DUP2 SUB PUSH0 DUP4 ADD MSTORE PUSH2 0xFB4 DUP2 PUSH2 0xF7B JUMP JUMPDEST SWAP1 POP SWAP2 SWAP1 POP JUMP JUMPDEST PUSH32 0x446F6E6174696F6E20616D6F756E74206D757374206265206772656174657220 PUSH0 DUP3 ADD MSTORE PUSH32 0x7468616E20300000000000000000000000000000000000000000000000000000 PUSH1 0x20 DUP3 ADD MSTORE POP JUMP JUMPDEST PUSH0 PUSH2 0x1015 PUSH1 0x26 DUP4 PUSH2 0xE27 JUMP JUMPDEST SWAP2 POP PUSH2 0x1020 DUP3 PUSH2 0xFBB JUMP JUMPDEST PUSH1 0x40 DUP3 ADD SWAP1 POP SWAP2 SWAP1 POP JUMP JUMPDEST PUSH0 PUSH1 0x20 DUP3 ADD SWAP1 POP DUP2 DUP2 SUB PUSH0 DUP4 ADD MSTORE PUSH2 0x1042 DUP2 PUSH2 0x1009 JUMP JUMPDEST SWAP1 POP SWAP2 SWAP1 POP JUMP JUMPDEST PUSH32 0x4E487B7100000000000000000000000000000000000000000000000000000000 PUSH0 MSTORE PUSH1 0x11 PUSH1 0x4 MSTORE PUSH1 0x24 PUSH0 REVERT JUMPDEST PUSH0 PUSH2 0x1080 DUP3 PUSH2 0xB52 JUMP JUMPDEST SWAP2 POP PUSH2 0x108B DUP4 PUSH2 0xB52 JUMP JUMPDEST SWAP3 POP DUP3 DUP3 ADD SWAP1 POP DUP1 DUP3 GT ISZERO PUSH2 0x10A3 JUMPI PUSH2 0x10A2 PUSH2 0x1049 JUMP JUMPDEST JUMPDEST SWAP3 SWAP2 POP POP JUMP INVALID LOG2 PUSH5 0x6970667358 0x22 SLT KECCAK256 0xF7 SWAP9 0xF7 GASPRICE PUSH24 0xE063CFDA2A1E5BC1CD32B318307C0A98EE14900B73C3B2C5 PUSH0 SWAP4 0x23 PUSH5 0x736F6C6343 STOP ADDMOD 0x1E STOP CALLER "
				},
				"gasEstimates": {
					"creation": {
						"codeDepositCost": "863800",
						"executionCost": "infinite",
						"totalCost": "infinite"
					},
					"external": {
						"donate()": "infinite",
						"donations(address)": "2868",
						"donors(uint256)": "4944",
						"endTime()": "2470",
						"getBalance()": "335",
						"getDonation(address)": "2918",
						"getTop3Donors()": "infinite",
						"owner()": "2551",
						"startTime()": "2447",
						"withdraw()": "infinite"
					}
				},
				"methodIdentifiers": {
					"donate()": "ed88c68e",
					"donations(address)": "cc6cb19a",
					"donors(uint256)": "4abfa163",
					"endTime()": "3197cbb6",
					"getBalance()": "12065fe0",
					"getDonation(address)": "410a1d32",
					"getTop3Donors()": "2d1e2518",
					"owner()": "8da5cb5b",
					"startTime()": "78e97925",
					"withdraw()": "3ccfd60b"
				}
			},
			"storageLayout": {
				"storage": [
					{
						"astId": 3,
						"contract": "task2/BeggingContract.sol:BeggingContract",
						"label": "owner",
						"offset": 0,
						"slot": "0",
						"type": "t_address"
					},
					{
						"astId": 5,
						"contract": "task2/BeggingContract.sol:BeggingContract",
						"label": "startTime",
						"offset": 0,
						"slot": "1",
						"type": "t_uint256"
					},
					{
						"astId": 7,
						"contract": "task2/BeggingContract.sol:BeggingContract",
						"label": "endTime",
						"offset": 0,
						"slot": "2",
						"type": "t_uint256"
					},
					{
						"astId": 11,
						"contract": "task2/BeggingContract.sol:BeggingContract",
						"label": "donations",
						"offset": 0,
						"slot": "3",
						"type": "t_mapping(t_address,t_uint256)"
					},
					{
						"astId": 14,
						"contract": "task2/BeggingContract.sol:BeggingContract",
						"label": "donors",
						"offset": 0,
						"slot": "4",
						"type": "t_array(t_address)dyn_storage"
					}
				],
				"types": {
					"t_address": {
						"encoding": "inplace",
						"label": "address",
						"numberOfBytes": "20"
					},
					"t_array(t_address)dyn_storage": {
						"base": "t_address",
						"encoding": "dynamic_array",
						"label": "address[]",
						"numberOfBytes": "32"
					},
					"t_mapping(t_address,t_uint256)": {
						"encoding": "mapping",
						"key": "t_address",
						"label": "mapping(address => uint256)",
						"numberOfBytes": "32",
						"value": "t_uint256"
					},
					"t_uint256": {
						"encoding": "inplace",
						"label": "uint256",
						"numberOfBytes": "32"
					}
				}
			},
			"userdoc": {
				"kind": "user",
				"methods": {},
				"version": 1
			}
		}
	}
}