{
	"data": {
		"bytecode": {
			"linkReferences": {},
			"object": "6080604052348015600e575f5ffd5b5061083f8061001c5f395ff3fe608060405234801561000f575f5ffd5b506004361061003f575f3560e01c8063805265e514610043578063b9830ff114610073578063fc36e15b1461007d575b5f5ffd5b61005d6004803603810190610058919061033a565b610099565b60405161006a9190610399565b60405180910390f35b61007b6100bf565b005b6100976004803603810190610092919061033a565b61011e565b005b5f5f826040516100a99190610404565b9081526020016040518091039020549050919050565b5f5f90505b60018054905081101561011b575f5f600183815481106100e7576100e661041a565b5b905f5260205f20016040516100fc9190610536565b90815260200160405180910390208190555080806001019150506100c4565b50565b60028160405161012e9190610404565b90815260200160405180910390205f9054906101000a900460ff166101b657600181908060018154018082558091505060019003905f5260205f20015f90919091909150908161017e91906106da565b5060016002826040516101919190610404565b90815260200160405180910390205f6101000a81548160ff0219169083151502179055505b60015f826040516101c79190610404565b90815260200160405180910390205f8282546101e391906107d6565b9250508190555050565b5f604051905090565b5f5ffd5b5f5ffd5b5f5ffd5b5f5ffd5b5f601f19601f8301169050919050565b7f4e487b71000000000000000000000000000000000000000000000000000000005f52604160045260245ffd5b61024c82610206565b810181811067ffffffffffffffff8211171561026b5761026a610216565b5b80604052505050565b5f61027d6101ed565b90506102898282610243565b919050565b5f67ffffffffffffffff8211156102a8576102a7610216565b5b6102b182610206565b9050602081019050919050565b828183375f83830152505050565b5f6102de6102d98461028e565b610274565b9050828152602081018484840111156102fa576102f9610202565b5b6103058482856102be565b509392505050565b5f82601f830112610321576103206101fe565b5b81356103318482602086016102cc565b91505092915050565b5f6020828403121561034f5761034e6101f6565b5b5f82013567ffffffffffffffff81111561036c5761036b6101fa565b5b6103788482850161030d565b91505092915050565b5f819050919050565b61039381610381565b82525050565b5f6020820190506103ac5f83018461038a565b92915050565b5f81519050919050565b5f81905092915050565b8281835e5f83830152505050565b5f6103de826103b2565b6103e881856103bc565b93506103f88185602086016103c6565b80840191505092915050565b5f61040f82846103d4565b915081905092915050565b7f4e487b71000000000000000000000000000000000000000000000000000000005f52603260045260245ffd5b7f4e487b71000000000000000000000000000000000000000000000000000000005f52602260045260245ffd5b5f600282049050600182168061048b57607f821691505b60208210810361049e5761049d610447565b5b50919050565b5f819050815f5260205f209050919050565b5f81546104c281610474565b6104cc81866103bc565b9450600182165f81146104e657600181146104fb5761052d565b60ff198316865281151582028601935061052d565b610504856104a4565b5f5b8381101561052557815481890152600182019150602081019050610506565b838801955050505b50505092915050565b5f61054182846104b6565b915081905092915050565b5f6020601f8301049050919050565b5f82821b905092915050565b5f600883026105967fffffffffffffffffffffffffffffffffffffffffffffffffffffffffffffffff8261055b565b6105a0868361055b565b95508019841693508086168417925050509392505050565b5f819050919050565b5f6105db6105d66105d184610381565b6105b8565b610381565b9050919050565b5f819050919050565b6105f4836105c1565b610608610600826105e2565b848454610567565b825550505050565b5f5f905090565b61061f610610565b61062a8184846105eb565b505050565b5b8181101561064d576106425f82610617565b600181019050610630565b5050565b601f82111561069257610663816104a4565b61066c8461054c565b8101602085101561067b578190505b61068f6106878561054c565b83018261062f565b50505b505050565b5f82821c905092915050565b5f6106b25f1984600802610697565b1980831691505092915050565b5f6106ca83836106a3565b9150826002028217905092915050565b6106e3826103b2565b67ffffffffffffffff8111156106fc576106fb610216565b5b6107068254610474565b610711828285610651565b5f60209050601f831160018114610742575f8415610730578287015190505b61073a85826106bf565b8655506107a1565b601f198416610750866104a4565b5f5b8281101561077757848901518255600182019150602085019450602081019050610752565b868310156107945784890151610790601f8916826106a3565b8355505b6001600288020188555050505b505050505050565b7f4e487b71000000000000000000000000000000000000000000000000000000005f52601160045260245ffd5b5f6107e082610381565b91506107eb83610381565b9250828201905080821115610803576108026107a9565b5b9291505056fea264697066735822122049d00ed6c8fce3f300800cc7fb1029d2cd3341bc0ea8f77644bdb65b3d5593a364736f6c634300081e0033",
			"opcodes": "PUSH1 0x80 PUSH1 0x40 MSTORE CALLVALUE DUP1 ISZERO PUSH1 0xE JUMPI PUSH0 PUSH0 REVERT JUMPDEST POP PUSH2 0x83F DUP1 PUSH2 0x1C PUSH0 CODECOPY PUSH0 RETURN INVALID PUSH1 0x80 PUSH1 0x40 MSTORE CALLVALUE DUP1 ISZERO PUSH2 0xF JUMPI PUSH0 PUSH0 REVERT JUMPDEST POP PUSH1 0x4 CALLDATASIZE LT PUSH2 0x3F JUMPI PUSH0 CALLDATALOAD PUSH1 0xE0 SHR DUP1 PUSH4 0x805265E5 EQ PUSH2 0x43 JUMPI DUP1 PUSH4 0xB9830FF1 EQ PUSH2 0x73 JUMPI DUP1 PUSH4 0xFC36E15B EQ PUSH2 0x7D JUMPI JUMPDEST PUSH0 PUSH0 REVERT JUMPDEST PUSH2 0x5D PUSH1 0x4 DUP1 CALLDATASIZE SUB DUP2 ADD SWAP1 PUSH2 0x58 SWAP2 SWAP1 PUSH2 0x33A JUMP JUMPDEST PUSH2 0x99 JUMP JUMPDEST PUSH1 0x40 MLOAD PUSH2 0x6A SWAP2 SWAP1 PUSH2 0x399 JUMP JUMPDEST PUSH1 0x40 MLOAD DUP1 SWAP2 SUB SWAP1 RETURN JUMPDEST PUSH2 0x7B PUSH2 0xBF JUMP JUMPDEST STOP JUMPDEST PUSH2 0x97 PUSH1 0x4 DUP1 CALLDATASIZE SUB DUP2 ADD SWAP1 PUSH2 0x92 SWAP2 SWAP1 PUSH2 0x33A JUMP JUMPDEST PUSH2 0x11E JUMP JUMPDEST STOP JUMPDEST PUSH0 PUSH0 DUP3 PUSH1 0x40 MLOAD PUSH2 0xA9 SWAP2 SWAP1 PUSH2 0x404 JUMP JUMPDEST SWAP1 DUP2 MSTORE PUSH1 0x20 ADD PUSH1 0x40 MLOAD DUP1 SWAP2 SUB SWAP1 KECCAK256 SLOAD SWAP1 POP SWAP2 SWAP1 POP JUMP JUMPDEST PUSH0 PUSH0 SWAP1 POP JUMPDEST PUSH1 0x1 DUP1 SLOAD SWAP1 POP DUP2 LT ISZERO PUSH2 0x11B JUMPI PUSH0 PUSH0 PUSH1 0x1 DUP4 DUP2 SLOAD DUP2 LT PUSH2 0xE7 JUMPI PUSH2 0xE6 PUSH2 0x41A JUMP JUMPDEST JUMPDEST SWAP1 PUSH0 MSTORE PUSH1 0x20 PUSH0 KECCAK256 ADD PUSH1 0x40 MLOAD PUSH2 0xFC SWAP2 SWAP1 PUSH2 0x536 JUMP JUMPDEST SWAP1 DUP2 MSTORE PUSH1 0x20 ADD PUSH1 0x40 MLOAD DUP1 SWAP2 SUB SWAP1 KECCAK256 DUP2 SWAP1 SSTORE POP DUP1 DUP1 PUSH1 0x1 ADD SWAP2 POP POP PUSH2 0xC4 JUMP JUMPDEST POP JUMP JUMPDEST PUSH1 0x2 DUP2 PUSH1 0x40 MLOAD PUSH2 0x12E SWAP2 SWAP1 PUSH2 0x404 JUMP JUMPDEST SWAP1 DUP2 MSTORE PUSH1 0x20 ADD PUSH1 0x40 MLOAD DUP1 SWAP2 SUB SWAP1 KECCAK256 PUSH0 SWAP1 SLOAD SWAP1 PUSH2 0x100 EXP SWAP1 DIV PUSH1 0xFF AND PUSH2 0x1B6 JUMPI PUSH1 0x1 DUP2 SWAP1 DUP1 PUSH1 0x1 DUP2 SLOAD ADD DUP1 DUP3 SSTORE DUP1 SWAP2 POP POP PUSH1 0x1 SWAP1 SUB SWAP1 PUSH0 MSTORE PUSH1 0x20 PUSH0 KECCAK256 ADD PUSH0 SWAP1 SWAP2 SWAP1 SWAP2 SWAP1 SWAP2 POP SWAP1 DUP2 PUSH2 0x17E SWAP2 SWAP1 PUSH2 0x6DA JUMP JUMPDEST POP PUSH1 0x1 PUSH1 0x2 DUP3 PUSH1 0x40 MLOAD PUSH2 0x191 SWAP2 SWAP1 PUSH2 0x404 JUMP JUMPDEST SWAP1 DUP2 MSTORE PUSH1 0x20 ADD PUSH1 0x40 MLOAD DUP1 SWAP2 SUB SWAP1 KECCAK256 PUSH0 PUSH2 0x100 EXP DUP2 SLOAD DUP2 PUSH1 0xFF MUL NOT AND SWAP1 DUP4 ISZERO ISZERO MUL OR SWAP1 SSTORE POP JUMPDEST PUSH1 0x1 PUSH0 DUP3 PUSH1 0x40 MLOAD PUSH2 0x1C7 SWAP2 SWAP1 PUSH2 0x404 JUMP JUMPDEST SWAP1 DUP2 MSTORE PUSH1 0x20 ADD PUSH1 0x40 MLOAD DUP1 SWAP2 SUB SWAP1 KECCAK256 PUSH0 DUP3 DUP3 SLOAD PUSH2 0x1E3 SWAP2 SWAP1 PUSH2 0x7D6 JUMP JUMPDEST SWAP3 POP POP DUP2 SWAP1 SSTORE POP POP JUMP JUMPDEST PUSH0 PUSH1 0x40 MLOAD SWAP1 POP SWAP1 JUMP JUMPDEST PUSH0 PUSH0 REVERT JUMPDEST PUSH0 PUSH0 REVERT JUMPDEST PUSH0 PUSH0 REVERT JUMPDEST PUSH0 PUSH0 REVERT JUMPDEST PUSH0 PUSH1 0x1F NOT PUSH1 0x1F DUP4 ADD AND SWAP1 POP SWAP2 SWAP1 POP JUMP JUMPDEST PUSH32 0x4E487B7100000000000000000000000000000000000000000000000000000000 PUSH0 MSTORE PUSH1 0x41 PUSH1 0x4 MSTORE PUSH1 0x24 PUSH0 REVERT JUMPDEST PUSH2 0x24C DUP3 PUSH2 0x206 JUMP JUMPDEST DUP2 ADD DUP2 DUP2 LT PUSH8 0xFFFFFFFFFFFFFFFF DUP3 GT OR ISZERO PUSH2 0x26B JUMPI PUSH2 0x26A PUSH2 0x216 JUMP JUMPDEST JUMPDEST DUP1 PUSH1 0x40 MSTORE POP POP POP JUMP JUMPDEST PUSH0 PUSH2 0x27D PUSH2 0x1ED JUMP JUMPDEST SWAP1 POP PUSH2 0x289 DUP3 DUP3 PUSH2 0x243 JUMP JUMPDEST SWAP2 SWAP1 POP JUMP JUMPDEST PUSH0 PUSH8 0xFFFFFFFFFFFFFFFF DUP3 GT ISZERO PUSH2 0x2A8 JUMPI PUSH2 0x2A7 PUSH2 0x216 JUMP JUMPDEST JUMPDEST PUSH2 0x2B1 DUP3 PUSH2 0x206 JUMP JUMPDEST SWAP1 POP PUSH1 0x20 DUP2 ADD SWAP1 POP SWAP2 SWAP1 POP JUMP JUMPDEST DUP3 DUP2 DUP4 CALLDATACOPY PUSH0 DUP4 DUP4 ADD MSTORE POP POP POP JUMP JUMPDEST PUSH0 PUSH2 0x2DE PUSH2 0x2D9 DUP5 PUSH2 0x28E JUMP JUMPDEST PUSH2 0x274 JUMP JUMPDEST SWAP1 POP DUP3 DUP2 MSTORE PUSH1 0x20 DUP2 ADD DUP5 DUP5 DUP5 ADD GT ISZERO PUSH2 0x2FA JUMPI PUSH2 0x2F9 PUSH2 0x202 JUMP JUMPDEST JUMPDEST PUSH2 0x305 DUP5 DUP3 DUP6 PUSH2 0x2BE JUMP JUMPDEST POP SWAP4 SWAP3 POP POP POP JUMP JUMPDEST PUSH0 DUP3 PUSH1 0x1F DUP4 ADD SLT PUSH2 0x321 JUMPI PUSH2 0x320 PUSH2 0x1FE JUMP JUMPDEST JUMPDEST DUP2 CALLDATALOAD PUSH2 0x331 DUP5 DUP3 PUSH1 0x20 DUP7 ADD PUSH2 0x2CC JUMP JUMPDEST SWAP2 POP POP SWAP3 SWAP2 POP POP JUMP JUMPDEST PUSH0 PUSH1 0x20 DUP3 DUP5 SUB SLT ISZERO PUSH2 0x34F JUMPI PUSH2 0x34E PUSH2 0x1F6 JUMP JUMPDEST JUMPDEST PUSH0 DUP3 ADD CALLDATALOAD PUSH8 0xFFFFFFFFFFFFFFFF DUP2 GT ISZERO PUSH2 0x36C JUMPI PUSH2 0x36B PUSH2 0x1FA JUMP JUMPDEST JUMPDEST PUSH2 0x378 DUP5 DUP3 DUP6 ADD PUSH2 0x30D JUMP JUMPDEST SWAP2 POP POP SWAP3 SWAP2 POP POP JUMP JUMPDEST PUSH0 DUP2 SWAP1 POP SWAP2 SWAP1 POP JUMP JUMPDEST PUSH2 0x393 DUP2 PUSH2 0x381 JUMP JUMPDEST DUP3 MSTORE POP POP JUMP JUMPDEST PUSH0 PUSH1 0x20 DUP3 ADD SWAP1 POP PUSH2 0x3AC PUSH0 DUP4 ADD DUP5 PUSH2 0x38A JUMP JUMPDEST SWAP3 SWAP2 POP POP JUMP JUMPDEST PUSH0 DUP2 MLOAD SWAP1 POP SWAP2 SWAP1 POP JUMP JUMPDEST PUSH0 DUP2 SWAP1 POP SWAP3 SWAP2 POP POP JUMP JUMPDEST DUP3 DUP2 DUP4 MCOPY PUSH0 DUP4 DUP4 ADD MSTORE POP POP POP JUMP JUMPDEST PUSH0 PUSH2 0x3DE DUP3 PUSH2 0x3B2 JUMP JUMPDEST PUSH2 0x3E8 DUP2 DUP6 PUSH2 0x3BC JUMP JUMPDEST SWAP4 POP PUSH2 0x3F8 DUP2 DUP6 PUSH1 0x20 DUP7 ADD PUSH2 0x3C6 JUMP JUMPDEST DUP1 DUP5 ADD SWAP2 POP POP SWAP3 SWAP2 POP POP JUMP JUMPDEST PUSH0 PUSH2 0x40F DUP3 DUP5 PUSH2 0x3D4 JUMP JUMPDEST SWAP2 POP DUP2 SWAP1 POP SWAP3 SWAP2 POP POP JUMP JUMPDEST PUSH32 0x4E487B7100000000000000000000000000000000000000000000000000000000 PUSH0 MSTORE PUSH1 0x32 PUSH1 0x4 MSTORE PUSH1 0x24 PUSH0 REVERT JUMPDEST PUSH32 0x4E487B7100000000000000000000000000000000000000000000000000000000 PUSH0 MSTORE PUSH1 0x22 PUSH1 0x4 MSTORE PUSH1 0x24 PUSH0 REVERT JUMPDEST PUSH0 PUSH1 0x2 DUP3 DIV SWAP1 POP PUSH1 0x1 DUP3 AND DUP1 PUSH2 0x48B JUMPI PUSH1 0x7F DUP3 AND SWAP2 POP JUMPDEST PUSH1 0x20 DUP3 LT DUP2 SUB PUSH2 0x49E JUMPI PUSH2 0x49D PUSH2 0x447 JUMP JUMPDEST JUMPDEST POP SWAP2 SWAP1 POP JUMP JUMPDEST PUSH0 DUP2 SWAP1 POP DUP2 PUSH0 MSTORE PUSH1 0x20 PUSH0 KECCAK256 SWAP1 POP SWAP2 SWAP1 POP JUMP JUMPDEST PUSH0 DUP2 SLOAD PUSH2 0x4C2 DUP2 PUSH2 0x474 JUMP JUMPDEST PUSH2 0x4CC DUP2 DUP7 PUSH2 0x3BC JUMP JUMPDEST SWAP5 POP PUSH1 0x1 DUP3 AND PUSH0 DUP2 EQ PUSH2 0x4E6 JUMPI PUSH1 0x1 DUP2 EQ PUSH2 0x4FB JUMPI PUSH2 0x52D JUMP JUMPDEST PUSH1 0xFF NOT DUP4 AND DUP7 MSTORE DUP2 ISZERO ISZERO DUP3 MUL DUP7 ADD SWAP4 POP PUSH2 0x52D JUMP JUMPDEST PUSH2 0x504 DUP6 PUSH2 0x4A4 JUMP JUMPDEST PUSH0 JUMPDEST DUP4 DUP2 LT ISZERO PUSH2 0x525 JUMPI DUP2 SLOAD DUP2 DUP10 ADD MSTORE PUSH1 0x1 DUP3 ADD SWAP2 POP PUSH1 0x20 DUP2 ADD SWAP1 POP PUSH2 0x506 JUMP JUMPDEST DUP4 DUP9 ADD SWAP6 POP POP POP JUMPDEST POP POP POP SWAP3 SWAP2 POP POP JUMP JUMPDEST PUSH0 PUSH2 0x541 DUP3 DUP5 PUSH2 0x4B6 JUMP JUMPDEST SWAP2 POP DUP2 SWAP1 POP SWAP3 SWAP2 POP POP JUMP JUMPDEST PUSH0 PUSH1 0x20 PUSH1 0x1F DUP4 ADD DIV SWAP1 POP SWAP2 SWAP1 POP JUMP JUMPDEST PUSH0 DUP3 DUP3 SHL SWAP1 POP SWAP3 SWAP2 POP POP JUMP JUMPDEST PUSH0 PUSH1 0x8 DUP4 MUL PUSH2 0x596 PUSH32 0xFFFFFFFFFFFFFFFFFFFFFFFFFFFFFFFFFFFFFFFFFFFFFFFFFFFFFFFFFFFFFFFF DUP3 PUSH2 0x55B JUMP JUMPDEST PUSH2 0x5A0 DUP7 DUP4 PUSH2 0x55B JUMP JUMPDEST SWAP6 POP DUP1 NOT DUP5 AND SWAP4 POP DUP1 DUP7 AND DUP5 OR SWAP3 POP POP POP SWAP4 SWAP3 POP POP POP JUMP JUMPDEST PUSH0 DUP2 SWAP1 POP SWAP2 SWAP1 POP JUMP JUMPDEST PUSH0 PUSH2 0x5DB PUSH2 0x5D6 PUSH2 0x5D1 DUP5 PUSH2 0x381 JUMP JUMPDEST PUSH2 0x5B8 JUMP JUMPDEST PUSH2 0x381 JUMP JUMPDEST SWAP1 POP SWAP2 SWAP1 POP JUMP JUMPDEST PUSH0 DUP2 SWAP1 POP SWAP2 SWAP1 POP JUMP JUMPDEST PUSH2 0x5F4 DUP4 PUSH2 0x5C1 JUMP JUMPDEST PUSH2 0x608 PUSH2 0x600 DUP3 PUSH2 0x5E2 JUMP JUMPDEST DUP5 DUP5 SLOAD PUSH2 0x567 JUMP JUMPDEST DUP3 SSTORE POP POP POP POP JUMP JUMPDEST PUSH0 PUSH0 SWAP1 POP SWAP1 JUMP JUMPDEST PUSH2 0x61F PUSH2 0x610 JUMP JUMPDEST PUSH2 0x62A DUP2 DUP5 DUP5 PUSH2 0x5EB JUMP JUMPDEST POP POP POP JUMP JUMPDEST JUMPDEST DUP2 DUP2 LT ISZERO PUSH2 0x64D JUMPI PUSH2 0x642 PUSH0 DUP3 PUSH2 0x617 JUMP JUMPDEST PUSH1 0x1 DUP2 ADD SWAP1 POP PUSH2 0x630 JUMP JUMPDEST POP POP JUMP JUMPDEST PUSH1 0x1F DUP3 GT ISZERO PUSH2 0x692 JUMPI PUSH2 0x663 DUP2 PUSH2 0x4A4 JUMP JUMPDEST PUSH2 0x66C DUP5 PUSH2 0x54C JUMP JUMPDEST DUP2 ADD PUSH1 0x20 DUP6 LT ISZERO PUSH2 0x67B JUMPI DUP2 SWAP1 POP JUMPDEST PUSH2 0x68F PUSH2 0x687 DUP6 PUSH2 0x54C JUMP JUMPDEST DUP4 ADD DUP3 PUSH2 0x62F JUMP JUMPDEST POP POP JUMPDEST POP POP POP JUMP JUMPDEST PUSH0 DUP3 DUP3 SHR SWAP1 POP SWAP3 SWAP2 POP POP JUMP JUMPDEST PUSH0 PUSH2 0x6B2 PUSH0 NOT DUP5 PUSH1 0x8 MUL PUSH2 0x697 JUMP JUMPDEST NOT DUP1 DUP4 AND SWAP2 POP POP SWAP3 SWAP2 POP POP JUMP JUMPDEST PUSH0 PUSH2 0x6CA DUP4 DUP4 PUSH2 0x6A3 JUMP JUMPDEST SWAP2 POP DUP3 PUSH1 0x2 MUL DUP3 OR SWAP1 POP SWAP3 SWAP2 POP POP JUMP JUMPDEST PUSH2 0x6E3 DUP3 PUSH2 0x3B2 JUMP JUMPDEST PUSH8 0xFFFFFFFFFFFFFFFF DUP2 GT ISZERO PUSH2 0x6FC JUMPI PUSH2 0x6FB PUSH2 0x216 JUMP JUMPDEST JUMPDEST PUSH2 0x706 DUP3 SLOAD PUSH2 0x474 JUMP JUMPDEST PUSH2 0x711 DUP3 DUP3 DUP6 PUSH2 0x651 JUMP JUMPDEST PUSH0 PUSH1 0x20 SWAP1 POP PUSH1 0x1F DUP4 GT PUSH1 0x1 DUP2 EQ PUSH2 0x742 JUMPI PUSH0 DUP5 ISZERO PUSH2 0x730 JUMPI DUP3 DUP8 ADD MLOAD SWAP1 POP JUMPDEST PUSH2 0x73A DUP6 DUP3 PUSH2 0x6BF JUMP JUMPDEST DUP7 SSTORE POP PUSH2 0x7A1 JUMP JUMPDEST PUSH1 0x1F NOT DUP5 AND PUSH2 0x750 DUP7 PUSH2 0x4A4 JUMP JUMPDEST PUSH0 JUMPDEST DUP3 DUP2 LT ISZERO PUSH2 0x777 JUMPI DUP5 DUP10 ADD MLOAD DUP3 SSTORE PUSH1 0x1 DUP3 ADD SWAP2 POP PUSH1 0x20 DUP6 ADD SWAP5 POP PUSH1 0x20 DUP2 ADD SWAP1 POP PUSH2 0x752 JUMP JUMPDEST DUP7 DUP4 LT ISZERO PUSH2 0x794 JUMPI DUP5 DUP10 ADD MLOAD PUSH2 0x790 PUSH1 0x1F DUP10 AND DUP3 PUSH2 0x6A3 JUMP JUMPDEST DUP4 SSTORE POP JUMPDEST PUSH1 0x1 PUSH1 0x2 DUP9 MUL ADD DUP9 SSTORE POP POP POP JUMPDEST POP POP POP POP POP POP JUMP JUMPDEST PUSH32 0x4E487B7100000000000000000000000000000000000000000000000000000000 PUSH0 MSTORE PUSH1 0x11 PUSH1 0x4 MSTORE PUSH1 0x24 PUSH0 REVERT JUMPDEST PUSH0 PUSH2 0x7E0 DUP3 PUSH2 0x381 JUMP JUMPDEST SWAP2 POP PUSH2 0x7EB DUP4 PUSH2 0x381 JUMP JUMPDEST SWAP3 POP DUP3 DUP3 ADD SWAP1 POP DUP1 DUP3 GT ISZERO PUSH2 0x803 JUMPI PUSH2 0x802 PUSH2 0x7A9 JUMP JUMPDEST JUMPDEST SWAP3 SWAP2 POP POP JUMP INVALID LOG2 PUSH5 0x6970667358 0x22 SLT KECCAK256 BLOBHASH 0xD0 0xE 0xD6 0xC8 0xFC CALLF 0xF300 DUP1 0xC 0xC7 EXTSTATICCALL LT 0x29 0xD2 0xCD CALLER COINBASE 0xBC 0xE 0xA8 0xF7 PUSH23 0x44BDB65B3D5593A364736F6C634300081E003300000000 "
		},
		"gasEstimates": {
			"creation": {
				"codeDepositCost": "422200",
				"executionCost": "453",
				"totalCost": "422653"
			},
			"external": {
				"getVotes(string)": "infinite",
				"resetVotes()": "infinite",
				"vote(string)": "infinite"
			}
		},
		"methodIdentifiers": {
			"getVotes(string)": "805265e5",
			"resetVotes()": "b9830ff1",
			"vote(string)": "fc36e15b"
		}
	},
	"abi": [
		{
			"inputs": [
				{
					"internalType": "string",
					"name": "candidate",
					"type": "string"
				}
			],
			"name": "getVotes",
			"outputs": [
				{
					"internalType": "uint256",
					"name": "",
					"type": "uint256"
				}
			],
			"stateMutability": "view",
			"type": "function"
		},
		{
			"inputs": [],
			"name": "resetVotes",
			"outputs": [],
			"stateMutability": "nonpayable",
			"type": "function"
		},
		{
			"inputs": [
				{
					"internalType": "string",
					"name": "candidate",
					"type": "string"
				}
			],
			"name": "vote",
			"outputs": [],
			"stateMutability": "nonpayable",
			"type": "function"
		}
	]
}